:020000040800F2
:10000000C8090020A1010008A71C00084119000828
:10001000A31C0008AF0A0008914700080000000078
:10002000000000000000000000000000ED230008B8
:100030007915000800000000C520000845250008CB
:10004000BB010008BB010008BB010008BB010008A0
:10005000BB010008BB010008BB010008BB01000890
:100060006517000881170008BB010008BB010008E4
:10007000BB010008BB010008BB010008BB01000870
:10008000BB010008BB010008BB010008BB01000860
:10009000BB010008BB010008BB010008BB01000850
:1000A000BB010008BB010008BB010008BB01000840
:1000B000BB010008BB010008BB010008BB01000830
:1000C000BB010008BB010008BB010008BB01000820
:1000D000BB010008154400088D440008F5440008E1
:1000E000D5160008BB010008BB010008BB010008D1
:1000F000BB010008BB010008BD3A0008BB010008B5
:10010000BB010008BB01000831370008BB01000833
:10011000753F0008C540000821390008393A000839
:10012000BB010008BB010008BB010008BB010008BF
:10013000BB010008BB010008BB010008BB010008AF
:10014000BB010008BB010008BB010008BB0100089F
:10015000BB010008BB010008BB0100085D450008A9
:10016000BB010008BB010008BB010008BB0100087F
:10017000BB010008BB010008BB010008BB0100086F
:10018000BB010008BB010008DFF810D000F05CFAEA
:100190000048004749550008AFF30080C809002017
:1001A0000648804706480047FEE7FEE7FEE7FEE711
:1001B000FEE7FEE7FEE7FEE7FEE7FEE7492500086B
:1001C0008901000840EA01039B0703D009E008C940
:1001D000121F08C0042AFAD203E011F8013B00F80C
:1001E000013B521EF9D270472DE9FE4F81EA03040C
:1001F00004F0004421F0004100944FF0000B23F084
:10020000004350EA01045ED052EA03045BD0C3F31A
:100210000A54C1F30A552C44A4F2F3340194A0FB10
:100220000254C1F3130141F48011C3F3130343F4E7
:10023000801301FB024400FB034E840A970A44EA40
:10024000815447EA8357A4FB076802958D0A05FB92
:1002500007854FEA932C04FB0C542705029D4FEAB7
:10026000065847EA1637B5EB08056EEB070C870E04
:10027000920E47EA811742EA8312A7FB0201B6EB0E
:100280000B0164EB00042B0D43EA0C335E1844EBC6
:100290001C50DA465146E7FB0201C5F313044FEA4E
:1002A0000B3343EA14534FEA0432019C43EA06033A
:1002B000A4F10C040294009CCDE900B400F006F90E
:1002C00003B0BDE8F08F00200146F9E701F00043DC
:1002D00030B421F0004150EA010206D00A0DA2F527
:1002E0006072C1F31301002A02DC30BC00207047A9
:1002F000440F44EAC104C100E01830BC00EBC25016
:1003000000F09EB82DE9F05F0546002092469B461E
:1003100088460646814640241BE02846414647461B
:10032000224600F02FF853465A46C01A914110D386
:1003300011461846224600F016F82D1A67EB010800
:100340004F4622460120002100F00DF817EB00096E
:100350004E41201EA4F10104DFDC484631462A4606
:100360004346BDE8F09F202A04DB203A00FA02F160
:10037000002070479140C2F1200320FA03F3194393
:1003800090407047202A04DB203A21FA02F0002135
:10039000704721FA02F3D040C2F120029140084395
:1003A000194670470FB4002300B589B00CA900911D
:1003B0000B996FF00042CB601E4B06931E4B0793C8
:1003C0000423CDE901321D4A089202466B46002003
:1003D00000F0E6F909B05DF814FB70B586B006468A
:1003E0004FF0FF300091CDE90101002015460C4689
:1003F00004903246694604A8FFF7D4FF02460498E9
:10040000211825B108B1084600E02046286004986C
:1004100000280DD0002A02DD0098884208D0081B71
:100420000094CDE901043246694604A8FFF7BAFFFB
:1004300006B070BDD9090008F70900086D0600086C
:100440000029A8BF7047401C490008BF20F00100E8
:10045000704710B4B0FA80FC00FA0CF050EA0104C6
:1004600004BF10BC704749B1CCF1200421FA04F458
:1004700011FA0CF118BF012121430843A3EB0C0131
:10048000CB1D4FEA00614FEA102042BF002010BC94
:10049000704700EBC35010440029A4BF10BC704744
:1004A000401C490008BF20F0010010BC704710B587
:1004B000141E73F1000408DA401C41F10001921887
:1004C0005B411A4301D120F0010010BD2DE9F04D30
:1004D00092469B4611B1B1FA81F202E0B0FA80F285
:1004E00020329046FFF73FFF04460F4640EA0A00DD
:1004F00041EA0B0153465A46084313D0114653EACA
:10050000010019D0C8F140025046FFF73BFF0546F5
:100510000E46504659464246FFF725FF084305D090
:10052000012004E020463946BDE8F08D0020054357
:1005300046EAE0762C4337430A986305E40AA0EBC9
:1005400008000022FD0A44EA47540A3002D5002080
:100550000146E9E7010510196941DDE9084500197F
:100560006941BDE8F04DA2E72DE9F04D81EA0304B1
:1005700004F0004B21F0004514464FF0000A23F030
:10058000004150EA050220D054EA01021DD0C5F313
:100590000A570246C5F31303C1F31300C1F30A5609
:1005A00040F4801543F48013A7EB0608101BD646D1
:1005B00008F2FD3873EB050002D308F1010801E0F1
:1005C00092185B41B8F1000F03DA00200146BDE844
:1005D000F08D00204FF48011064684460EE0171B74
:1005E00073EB050705D3121B63EB050306434CEAC7
:1005F000010C49084FEA300092185B4150EA0107AC
:10060000EDD152EA030012D082EA040083EA050128
:10061000084305D0101BAB4106D20122002306E09F
:1006200000224FF0004302E06FF0010253101AEB7A
:1006300006004CEB085110EB0A0041EB0B01BDE842
:10064000F04DFFF734BF0000064C074D06E0E068B0
:1006500040F0010394E8070098471034AC42F6D309
:10066000FFF796FD5463000874630008C0B24FF4AE
:10067000F05100F0D1B900002DE9FF4F087883B0A8
:100680009946FF2805D0491C2D2804D000240020BD
:1006900008E000200BE00124F9E700EB800003EB09
:1006A0004000491C0B78FF2BF7D104B140420023D6
:1006B0000293147819461D462D2C01D02B2C04D101
:1006C000521C2D2C13D000240294AA461478FF2C1F
:1006D0000FD00A25A3FB057801FB05814FF0000C24
:1006E00003FB0C11521CE3194AEB0101EEE7012454
:1006F000EAE7814453EA010002D019F5C87F06DA1F
:1007000003980021C0E9001107B0BDE8F08F002573
:10071000AE4E2F46DFF8B882184600F091F9CDE9C9
:100720000001B9F1000002DAC9F1000400E004465A
:100730000023A74A1AEB030B42EB045A12E0E0072E
:1007400007D02A46334638464146FFF74DFD074657
:1007500088462A46334610461946FFF745FD0546AA
:100760000E466410002CEAD1DDE90001B9F1000F5A
:100770005A46534606DAFFF7F7FE3A464346FFF776
:10078000F3FE05E0FFF730FD3A464346FFF72CFD48
:10079000029A0AB181F00041039AC2E90001B3E76D
:1007A0002DE9FF4F1F468DB0D7E901464FF0FF38C6
:1007B0002E2045464FF000090B90B9696D1C0E982C
:1007C0008847396A824688470028F6D1BAF1FF3F48
:1007D0000AD024F4D064002E11DDBAF12B0F08D01A
:1007E000BAF12D0F0BD102E0404611B08DE744F471
:1007F0008064B9696D1C0E9888478246761E6946EA
:10080000600501D52D2000E02B208DF8000001F1BE
:10081000010B0DF1200809E0B9696D1C0E9888479D
:1008200082460F9844F40074761E0560002E02DDA7
:10083000BAF1300FF0D00B998A453ED144F08004D4
:1008400006E00F99681CA9F1010944F400740860DE
:10085000B9696D1C761E0E98884782463028F0D004
:100860002BE00B998A4505D1200603D444F080047F
:10087000761E18E0504604F046F908B30DF1130156
:10088000761E44F400748B4508D2AAF130000BF8B0
:10089000010B200607D5A9F1010003E0200602D4D0
:1008A00009F101008146A00502D50F99681C086076
:1008B000B9696D1C0E9888478246002ED1DC53E042
:1008C000002E51DDBAF1650F02D0BAF1450F4BD1C0
:1008D000A00549D5B9696D1C24F44074761E0E98A4
:1008E00088478246002E0CDD2B2804D0BAF12D0F4C
:1008F00007D144F48074B9696D1C0E98884782460C
:10090000761EE00501D52D2100E02B2108F8011B02
:10091000CDF82C8021E00DF12901761E44F40074FD
:1009200088450CD2AAF1300010F0FF0088F80000D2
:1009300002D10B99884509D908F1010806E0E005C4
:1009400001D5244801E042F20F708146B9696D1C5F
:100950000E98884782460F980560002E04DD5046A9
:1009600004F0D1F80028D6D1F9690E988847FF2005
:100970008BF8000088F800000020069007904B4696
:100980006A4608A906A8FFF777FEA00502D46FF013
:1009900001002AE714F0240F0AD0E00714D1DDE9A2
:1009A00006123868031D3B600068C0E900120BE0C6
:1009B000DDE90601FFF78AFC0146E00704D138684B
:1009C000021D3A600068016028460EE700001440EE
:1009D0000000F03FF1D8FFFF426842B1016811F812
:1009E000013B23B1521EC0E9001218467047012195
:1009F000C160881E704742685AB1C368016843B934
:100A000083688B4205D0491E521CC0E900120020A9
:100A100070474FF0FF3070477F2801D9002208E06F
:100A2000064A02EB5002C007127800D1120902F008
:100A30000F02012090400840704700001463000836
:100A40000EB540F2334202920022CDE90022134655
:100A5000FFF73CFD03B000BD70B58C1810F8015BCA
:100A600015F0070301D110F8013B2A1106D110F847
:100A7000012B03E010F8016B01F8016B5B1EF9D14B
:100A80002B0705D40023521E0DD401F8013BFAE7D1
:100A900010F8013BCB1A921C03E013F8015B01F83C
:100AA000015B521EF9D5A142D8D3002070BD00BF12
:100AB000FEE700001CB50121022001F005FB4FF408
:100AC0006040009001208DF8040000208DF80600A1
:100AD00003208DF8050000208DF8070069460948BD
:100AE00000F0C0FE4FF40051064800F026FF4FF41E
:100AF0008041044800F021FF4FF40041014800F01C
:100B00001CFF1CBD000402401CB50121102001F097
:100B1000DBFA0C20009000208DF804008DF8060010
:100B200002208DF8050001208DF807006946024873
:100B300000F098FE1CBD00000004024070B50546A0
:100B40000C46002D04DD002C02DD00F0C1F916E09A
:100B5000002D04DA002C02DA00F0D8F90FE0002DA5
:100B600004DA002C02DD00F0F1F908E0002D04DDCC
:100B7000002C02DA00F00CFA01E000F013F828462D
:100B800001F088F806463146054803F04EF9204644
:100B900001F080F806463146014803F048F970BD7F
:100BA0000004014010B50020124908601249C1F844
:100BB000A002104908310860091D0860091D08607D
:100BC000091D0860091D0860091D0860091D0860ED
:100BD00000210A4803F025F90021084803F023F911
:100BE0000021064803F021F90021044803F01FF911
:100BF00010BD00009C02424200004242000401403D
:100C000010B588B004460121082001F05DFA0121E9
:100C1000880401F069FA07220821254800F06AFEDD
:100C200007220921224800F065FE4FF4407006902B
:100C300002208DF81C008DF81D0000208DF81E008C
:100C400001208DF81F0006A9194800F00BFE029440
:100C50000020ADF80C00ADF80E00ADF81000ADF8B6
:100C600014000C20ADF8120002A9124803F022FD76
:100C70000121104803F0B5FC27208DF80400012065
:100C80008DF805008DF806008DF8070001A801F029
:100C90000BF8012240F22551064803F0E5FC012241
:100CA00040F22441034803F0DFFC08B010BD00000F
:100CB000000C02400048004010B588B004460121F5
:100CC000042001F001FA0121C80401F00DFA082204
:100CD0000A21264800F00EFE08220B21234800F0CE
:100CE00009FE4FF44060069002208DF81C008DF83C
:100CF0001D0000208DF81E0001208DF81F0006A9A0
:100D00001A4800F0AFFD02940020ADF80C00ADF8D9
:100D10000E00ADF81000ADF814000C20ADF8120074
:100D200002A9134803F0C6FC0121114803F059FC45
:100D300034208DF8040001208DF8050000208DF886
:100D4000060001208DF8070001A800F0ADFF012288
:100D500040F22551064803F087FC012240F224416D
:100D6000034803F081FC08B010BD000000080240F9
:100D7000004C004010B588B004460121082001F065
:100D8000A3F90121080501F0AFF908220221234847
:100D900000F0B0FD0420069002208DF81C008DF8B4
:100DA0001D0000208DF81E0001208DF81F0006A9EF
:100DB0001A4800F057FD02940020ADF80C00ADF881
:100DC0000E00ADF81000ADF814000C20ADF81200C4
:100DD00002A9134803F06EFC0121114803F001FC45
:100DE00035208DF8040002208DF8050000208DF8D4
:100DF000060001208DF8070001A800F055FF012230
:100E000040F22551064803F02FFC012240F2244114
:100E1000034803F029FC08B010BD0000000C02409C
:100E20000050004010B588B004460121042001F0B4
:100E30004BF90121202001F067F9082207212248FF
:100E400000F058FD8020069002208DF81C008DF8DF
:100E50001D0000208DF81E0001208DF81F0006A93E
:100E6000194800F0FFFC02940020ADF80C00ADF82A
:100E70000E00ADF81000ADF814000C20ADF8120013
:100E800002A9124803F016FC0121104803F0A9FB47
:100E900047208DF8040002208DF8050001208DF810
:100EA00006008DF8070001A800F0FEFE012240F2C6
:100EB0002551064803F0D8FB012240F224410348A3
:100EC00003F0D2FB08B010BD00080240001401403E
:100ED00001200C4908600C49C1F8A0020020094912
:100EE00008310860091D08600120091D0860091DFE
:100EF00008600020091D0860091D08600120091D07
:100F0000086070479C0242420000424201200D49A5
:100F1000086000200C49C1F8A002012009490831ED
:100F20000860091D08600020091D0860091D08608F
:100F30000120091D0860091D08600020091D0860C6
:100F4000704700009C0242420000424201200E49CC
:100F5000086000200D49C1F8A00201200A490831AB
:100F600008600020091D08600120091D086000209C
:100F7000091D08600120091D08600020091D086086
:100F80000120091D086070479C0242420000424255
:100F900001200E4908600E49C1F8A00200200B494B
:100FA000083108600120091D08600020091D086043
:100FB0000120091D08600020091D08600120091D8D
:100FC00008600020091D0860704700009C02424232
:100FD0000000424210B52DED028B47480068A0B3D7
:100FE00045480068A03808EE100AB8EEC80A434821
:100FF000D0ED000A20EE200ABDEEC00A404880ED88
:10100000000A00680A2802DD00203D4908603C48CB
:10101000006810F10A0F03DA6FF009003849086020
:101020003848006836490968084437490860354837
:10103000006833490968401A344908600846016865
:101040003148006800F08CFD52E0FFE72A48006854
:10105000002849D12E480078032845DB2D48007828
:10106000012809D1C82003F0D9FE042001F0D0F8EE
:10107000FFF798FD00BFFEE7C82003F0CFFE012078
:1010800001F0C6F8FFF78EFD4FF47A7003F0C6FE4C
:101090000BE021480068012804D14FF4FA7003F0F6
:1010A000BDFE03E0322003F0B9FEF2E700BF0220EC
:1010B00001F0AEF86FF00E010F2000F051FD4FF47B
:1010C000167003F0ABFEFFF76DFD1248007818B9FB
:1010D0000120104908700BE00E480078012807D164
:1010E000FFF760FD00BFFEE71E21084600F038FD57
:1010F000BDEC028B10BD00000C0300205800002046
:1011000054000020680000206C00002070000020C7
:101110008A0000208D0000201402404210B52DED01
:10112000028BFE480068A0B3FC480068A03808EEB7
:10113000100AB8EEC80AFA48D0ED000A20EE200ADC
:10114000BDEEC00AF74880ED000A00680A2802DDFB
:101150000020F4490860F348006810F10A0F03DA30
:101160006FF00900EF490860EF480068ED49096831
:101170000844EE490860EC480068EA490968401AEA
:10118000EB49086008460168E848006800F0E8FCA0
:10119000EDE1FFE7E148006800287DD1E5480078EF
:1011A000032879DBE4480078012876D10320E3495D
:1011B00088700B21E14802F0C5FE052003F02EFEE9
:1011C0000B21DE4802F0BEFE052003F027FE0B21B6
:1011D000DA4802F0B7FE052003F020FE0B21D748C5
:1011E00002F0B0FE052003F019FE0B21D34802F0F7
:1011F000A9FE052003F012FE0B21D04802F0A2FE4A
:10120000052003F00BFE0B21CC4802F09BFE0520CD
:1012100003F004FE0B21C94802F094FE052003F000
:10122000FDFD0B21C54802F08DFE052003F0F6FD03
:101230000B21C24802F086FE052003F0EFFD0B21D2
:10124000BE4802F07FFE052003F0E8FD0B21BB48FD
:1012500002F078FE052003F0E1FD0B21B74802F013
:1012600071FE052003F0DAFD0B21B44802F06AFE9E
:10127000052003F0D3FD0B21B04802F063FE0520EA
:1012800003F0CCFD0B21AD4802F05CFE052003F01D
:10129000C5FD0B21A94801E065E123E002F052FE03
:1012A000052003F0BBFD0B21A44802F04BFE0520F6
:1012B00003F0B4FD0B21A14802F044FE052003F029
:1012C000ADFD0B219D4802F03DFE052003F0A6FD7B
:1012D000502003F0A3FD042000F09AFFFFF762FC0A
:1012E00000BFFEE7C82003F099FD012000F090FF49
:1012F000FFF758FC01209149887091480078C87028
:101300000B218E4802F01EFE052003F087FD0B2105
:101310008A4802F017FE052003F080FD0B21874864
:1013200002F010FE052003F079FD0B21834802F046
:1013300009FE052003F072FD0B21804802F002FE39
:10134000052003F06BFD0B217C4802F0FBFD05201E
:1013500003F064FD0B21794802F0F4FD052003F051
:101360005DFD0B21754802F0EDFD052003F056FDF3
:101370000B21724802F0E6FD0B21704802F0E2FDFD
:10138000052003F04BFD0B216C4802F0DBFD05202E
:1013900003F044FD0B21694802F0D4FD052003F061
:1013A0003DFD0B21654802F0CDFD052003F036FD23
:1013B0000B21624802F0C6FD052003F02FFD0B2132
:1013C0005E4802F0BFFD052003F028FD0B215B48BD
:1013D00002F0B8FD052003F021FD0B21574802F073
:1013E000B1FD052003F01AFD0B21544802F0AAFDBF
:1013F00083E05448006801287CD102204F4988705E
:101400000B214E4802F09EFD032003F007FD0B2147
:101410004A4802F097FD032003F000FD0B214748E6
:1014200002F090FD032003F0F9FC0B21434802F089
:1014300089FD032003F0F2FC0B21404802F082FDFD
:10144000032003F0EBFC0B213C4802F07BFD032062
:1014500003F0E4FC0B21394802F074FD032003F093
:10146000DDFC0B21354802F06DFD032003F0D6FCB6
:101470000B21324802F066FD032003F0CFFC0B2164
:101480002E4802F05FFD032003F0C8FC0B212B481F
:1014900002F058FD032003F0C1FC0B21274802F0A5
:1014A00051FD032003F0BAFC0B21244802F04AFD51
:1014B000032003F0B3FC0B21204802F043FD03207E
:1014C00003F0ACFC0B211D4802F03CFD032003F0AF
:1014D000A5FC0B21194802F035FD032003F09EFC0A
:1014E0000B21164802F02EFD4FF4967003F096FC87
:1014F00004E0FFE7322003F091FC7AE700BF02200E
:1015000000F086FE6FF00E010F2000F029FB4FF473
:10151000167003F083FCFFF745FB15E00C03002079
:101520005800002054000020680000206C000020BB
:10153000700000208A0000208D0000209000002014
:10154000D9000020140240420A48007818B901204E
:10155000084908700BE007480078012807D1FFF719
:1015600021FB00BFFEE71E21084600F0F9FABDECA2
:10157000028B10BD8D0000207047000000B589B0BF
:101580000121042000F0B0FD0121022000F09CFDAB
:1015900002220621224800F0ADF90222072120484C
:1015A00000F0A8F9C020079002208DF82000032049
:1015B0008DF8210001208DF822008DF8230007A965
:1015C000174800F04FF94FF6FF7005900020ADF876
:1015D0001000ADF81800ADF8120004A9114802F08F
:1015E00055FC0A231A4603210E4802F0DCFA01A832
:1015F00002F04BFB0020ADF80C0001A9094802F0F5
:101600000DFB0121074802F0ADFA47F230500549C1
:10161000243108600121034802F0AAFA09B000BD94
:10162000000402400008004000B589B001210820F4
:1016300000F05AFD0121084600F046FD022200217B
:10164000224800F057F902220121204800F052F907
:101650000320079002208DF8200003208DF8210040
:1016600001208DF822008DF8230007A9174800F00B
:10167000F9F84FF6FF7005900020ADF81000ADF8B6
:101680001800ADF8120004A9114802F0FFFB0A236C
:101690001A4603210E4802F086FA01A802F0F5FA74
:1016A0000020ADF80C0001A9094802F0B7FA0121A9
:1016B000074802F057FA47F23050054924310860D4
:1016C0000121034802F054FA09B000BD00000240B5
:1016D000000C004010B54FF4004000F06DF80128F8
:1016E00033D1C00300F062F81848D0E90010184A5E
:1016F00018CACA1A60EB0400C821511A70F1000020
:1017000023DB1448006880F40050124908600F4839
:10171000D0E900100E4AC2E900100F48007808B95D
:10172000012000E000200C4908700C48007808B93E
:10173000012000E00020094908700948007808B934
:10174000012000E000200649087010BD7001002053
:101750004801002014080240E80000201C0100207D
:101760005001002010B5042000F026F8012805D112
:10177000042000F01BF8C82003F050FB10BD00004F
:1017800010B5082000F018F801280BD1082000F04F
:101790000DF80548006880F4806003490860C8209F
:1017A00003F03CFB10BD0000141402400149086026
:1017B00070470000143C014001460020034A1268B3
:1017C0000A400AB1012000E000207047143C0140AB
:1017D000002123498279002A3AD00A461268036818
:1017E0009A430B461A600A1D126803689A430B1D40
:1017F0001A60027911440A6803681A430A60184A99
:101800000832126803689A43154B08331A601A1D90
:10181000126803689A43124B0C331A604279102AFB
:101820000ED11A1F126803681A430D4B08331A6051
:101830001A1D126803681A43094B0C331A600DE035
:101840000749427911440A6803681A430A6005E0AF
:10185000027911440A6803689A430A6070470000DD
:10186000003C0140F0B50A4600210023002400BFDF
:101870003DE0012505FA01F3156805EA03049C42E1
:1018800034D105684F000326BE40B5430560157985
:101890004E00B5400668354305601579012D02D02C
:1018A0001579022D16D185684F000326BE40B54339
:1018B000856055794E00B54086683543856045683A
:1018C00001268E40B5434560456896798E40B6B294
:1018D00035434560C5684F000326BE40B543C5602B
:1018E000D5794E00B540C6683543C560491C1029FE
:1018F000BFD3F0BDF0B5002300244D07ED0E02FA72
:1019000005F3CE1000F1200555F826504E07F70ECE
:101910000F26BE40B543CF1000F1200646F82750F1
:10192000CE1000F1200555F8265045EA0304CE10EC
:1019300000F1200545F82640F0BD0183704770474F
:1019400000BFFEE71CB50121102000F0BDFB032005
:10195000009001208DF8040003208DF80500002080
:101960008DF806008DF8070069460248FFF77AFFF8
:101970001CBD00000010024070B504461548006808
:1019800020F00C00134908600846006840F004008D
:101990000860002010490860002517E0E0090E49A2
:1019A000091D08606006040E022003F053FA0120AE
:1019B0000A49C1F88002022003F04CFA00200649CF
:1019C0000860022003F046FA681CC5B2082DE5DB6A
:1019D00070BD0000001002408002424200004242FE
:1019E00010B50F48006820F00C000D49086008464B
:1019F000006840F00400086001200A4908600A49B4
:101A0000C1F88002042003F025FA0020054908608F
:101A1000042003F01FFA00200349C1F8800210BD22
:101A200000100240840242420000424210B50F48BA
:101A3000006820F00C000D4908600846006840F07E
:101A40000400086000200A4908600A49C1F88402BD
:101A5000042003F0FFF90120054908600549C1F899
:101A60008402042003F0F6F910BD000000100240CB
:101A7000800242420000424210B500241348006830
:101A800020F00C0011490860084600680860012039
:101A90000F49086003F0DEF901200E49C1F8800209
:101AA00003F0D8F907E0601CC4B2FA2C03DDFFF79D
:101AB000BDFF012010BD0648803800680028F2D123
:101AC0000349091F086000BFF4E70000001002404E
:101AD000840242420000424200B585B0012108461E
:101AE00000F0F2FA4FF40040009000208DF804005E
:101AF00003208DF8050000208DF8060001208DF8E8
:101B0000070069461548FFF7ADFE0121880300F084
:101B1000FBFA0F21002000F06BFC4FF40040029014
:101B200000208DF80C000C208DF80D0001208DF8A0
:101B30000E0002A8FFF74CFE28208DF810000120AF
:101B40008DF8110002208DF8120001208DF813008D
:101B500004A800F0A9F805B000BD00000000024094
:101B600070B504460D46502C01DD502404E014F1FC
:101B7000500F01DA6FF04F04502D01DD502504E0C5
:101B800015F1500F01DA6FF04F0500EE104AF8EE34
:101B9000C00A114890ED000AB8EEC00A00F0EEF954
:101BA00000EE105AF8EEC00A0C4890ED000AB8EEAC
:101BB000C00A00F035FA0A4A92ED090ABDEEC00AE1
:101BC00010EE101A074A92ED090ABDEEC00A10EE97
:101BD000100AFEF7B3FF70BD8000002084000020D3
:101BE0007002002038020020B3EE0A0A224880ED7D
:101BF000050A9FED220A80ED060AB7EE000A80ED85
:101C0000070A9FED1F0A80ED0A0A9FED1E0A80ED6C
:101C10000B0A9FED1D0A80ED0C0A9FED1C0A80ED5A
:101C20000D0A90ED050A1A4880ED050A124890ED5C
:101C3000060A174880ED060A0F4890ED070A144877
:101C400080ED070A0C4890ED0A0A114880ED0A0A57
:101C5000094890ED0B0A0E4880ED0B0A064890EDFE
:101C60000C0A0B4880ED0C0A034890ED0D0A084859
:101C700080ED0D0A704700003802002000000000CF
:101C800000007A4400007AC400004844000048C4C0
:101C9000700200200146002901DD084670474842D5
:101CA000FCE700BFFEE7704770B5002100230F225C
:101CB000C4781CB3174C246804F4E064C4F5E064F1
:101CC000C4F30721C1F10404E3B20A4144789C4003
:101CD000E1B28478144021430C07210E0E4C0578A4
:101CE0006155047804F01F050124AC4005786D119E
:101CF000AD0005F1E025C5F8004109E0047804F0E5
:101D00001F050124AC40054D0678761145F82640A4
:101D100070BD00000CED00E000E400E080E100E0B8
:101D200002490143024A1160704700000000FA05B1
:101D30000CED00E070B5002418E004F1B0000021C3
:101D400000F00FF90021084600F00BF900211020E7
:101D500000F007F9002505E00121002000F001F95D
:101D6000681CC5B2802DF7DB601CC4B2082CE4DB14
:101D700070BD10B5FFF7E6FDC82003F04FF8002155
:101D8000AE2000F0EEF80021084600F0EAF800214D
:101D9000102000F0E6F80021402000F0E2F80021D9
:101DA000B02000F0DEF80021812000F0DAF80021F8
:101DB000082000F0D6F80021A12000F0D2F8002180
:101DC000A62000F0CEF80021A82000F0CAF80021DB
:101DD0003F2000F0C6F80021C82000F0C2F8002122
:101DE000D32000F0BEF80021084600F0BAF8002128
:101DF000D52000F0B6F80021802000F0B2F80021D4
:101E0000D82000F0AEF80021052000F0AAF800214B
:101E1000D92000F0A6F80021F12000F0A2F800215E
:101E2000DA2000F09EF80021122000F09AF800213C
:101E3000DB2000F096F80021302000F092F800211D
:101E40008D2000F08EF80021142000F08AF8002187
:101E5000AF2000F086F8FFF76DFF10BD70B50446A7
:101E60000D4605F1B000002100F07BF8102141EA99
:101E70001410002100F075F804F00F00002100F0AC
:101E800070F870BD2DE9F04707460E46904699461A
:101E900000250024A8F12000C5B27F2F02DD002715
:101EA000B01CC6B2B9F1100F24D131463846FFF745
:101EB000D5FF002408E004EB0511194A505C01210C
:101EC00000F04FF8601CC4B2082CF4DB701CC1B2E7
:101ED0003846FFF7C3FF002409E004EB0511083181
:101EE0000F4A505C012100F03CF8601CC4B2082C81
:101EF000F3DB12E031463846FFF7B0FF00240AE07A
:101F000005EB4501074A02EB4101085D012100F0A4
:101F100028F8601CC4B2062CF2DBBDE8F087000094
:101F2000CC5C0008A45A00082DE9F04104460F4695
:101F30001546984600260FE0AA5D434639462046DE
:101F4000FFF7A0FF04F10800C4B2782C02DD0024E2
:101F5000B81CC7B2701CC6B2A85D0028ECD1BDE8A1
:101F6000F08170B504460D461DB1E0B202F028FCC8
:101F700002E0E0B202F00EFC70BD0000B0EE401ACC
:101F800030EEC10A254880ED020A90ED080AD0ED36
:101F9000021A30EE210A80ED080A90ED020AD0ED17
:101FA000031A30EE610A80ED040A90ED050AD0EDC7
:101FB000021A20EE210AD0ED061A90ED082A01EE51
:101FC000820AD0ED071A90ED042A01EE820A80ED14
:101FD000090A90ED020A80ED030A90ED090AD0ED9E
:101FE0000C1AB4EEE10AF1EE10FA04DB90ED0C0AE3
:101FF00080ED090A0DE0094890ED090AD0ED0D1AAF
:10200000B4EEE10AF1EE10FA03D890ED0D0A80ED7E
:10201000090A024890ED090A7047000038020020C2
:10202000B0EE401A30EEC10A254880ED020A90ED6C
:10203000080AD0ED021A30EE210A80ED080A90ED70
:10204000020AD0ED031A30EE610A80ED040A90ED29
:10205000050AD0ED021A20EE210AD0ED061A90ED05
:10206000082A01EE820AD0ED071A90ED042A01EE4B
:10207000820A80ED090A90ED020A80ED030A90EDD4
:10208000090AD0ED0C1AB4EEE10AF1EE10FA04DB05
:1020900090ED0C0A80ED090A0DE0094890ED090A5F
:1020A000D0ED0D1AB4EEE10AF1EE10FA03D890ED7E
:1020B0000D0A80ED090A024890ED090A70470000F8
:1020C000700200207047000029B1064A12680243DE
:1020D000044B1A6004E0034A12688243014B1A6001
:1020E000704700003038024029B1064A12680243A6
:1020F000044B1A6004E0034A12688243014B1A60E1
:10210000704700004038024029B1064A1268024375
:10211000044B1A6004E0034A12688243014B1A60C0
:102120007047000044380240F0B50021002200242E
:10213000022500260223324F3F6807F00C0121B12F
:10214000042905D0082937D105E02E4F076036E075
:102150002D4F076033E02A4F3F1F3F68C7F380567B
:10216000274F3F1F3F6807F03F036EB1264FB7FB75
:10217000F3F7DFF88CC0ACF1040CDCF800C0CCF352
:10218000881C07FB0CF40CE01E4FB7FBF3F7DFF8DD
:1021900070C0ACF1040CDCF800C0CCF3881C07FB69
:1021A0000CF4174F3F1F3F68C7F301477F1C7D00AA
:1021B000B4FBF5F7076002E0124F076000BF00BFF5
:1021C0000F4F3F6807F0F0010909104F7A5C07686C
:1021D000D74047600A4F3F6807F4E051890A0B4F28
:1021E0007A5C4768D7408760054F3F6807F46041D5
:1021F000490B064F7A5C4768D740C760F0BD0000C6
:10220000083802400024F40000127A000000002088
:1022100009285FD2DFE800F05E051A3024103B4742
:1022200053000121314A11600021314AC2F8BC1229
:102230002E4A121F116057E001212C4A11602C4ACE
:10224000C2F8BC12294A121F11604DE00021274A32
:102250001160274AC2F8BC12244A121F116043E0E1
:102260000021224A11600121214AC2F8BC1200213A
:102270001E4A121F116037E001211C4A11601C4ADE
:10228000C2F8BC120021194A121F11602CE0002173
:10229000164A11600121164AC2F8BC120021134AE5
:1022A000121F116020E00121104A11600021104A24
:1022B000C2F8BC1201210D4A121F116014E0002166
:1022C0000A4A116001210A4AC2F8BC12074A121FC9
:1022D000116009E00021054A1160054AC2F8BC12EC
:1022E000024A121F116000BF00BF7047B88240420F
:1022F0000080404200B587B001210846FFF7E4FEA8
:1023000001214804FFF7F0FE072202212548FFF7CC
:10231000F1FA072203212348FFF7ECFA0C2005907D
:1023200002208DF818008DF8190000208DF81A0091
:1023300001208DF81B0005A91A48FFF793FA4FF406
:10234000E13001900020ADF80800ADF80A00ADF8CA
:102350000C00ADF810000C20ADF80E0001A91248D9
:1023600002F0A8F90121104802F03BF9012240F2E5
:1023700025510D4802F078F9012240F224410A4823
:1023800002F072F926208DF8000001208DF801007E
:102390008DF802008DF803006846FFF785FC07B052
:1023A00000BD000000000240004400400B480068EF
:1023B000A0F5EA4030380A49086047F23050074932
:1023C00008600848006847F23051081A064908605A
:1023D00047F230500349086070470000240800406D
:1023E00080000020240C0040840000207047000082
:1023F00030B500228B071C0F0F2303FA04F20B4B9E
:102400008C1053F824309343084C8D1044F8253039
:1024100023468C1053F824308C07240F00FA04F460
:102420002343024C8D1044F8253030BD083801405C
:102430000CB50020019000903448006840F48030D2
:102440003249086000BF3148006800F40030009055
:102450000198401C0190009818B90198B0F5A04F60
:10246000F1D12A48006800F4003010B1012000903A
:1024700001E0002000900098012846D12348403018
:10248000006840F0805021494031086020480068D1
:1024900040F440401E4908601C48083000681B4951
:1024A000083108600846006840F4004008600846AB
:1024B000006840F4A05008601648091F0860081F13
:1024C000006840F08070091F086000BF0F48006876
:1024D00000F000700028F9D040F205700E49086045
:1024E0000A480830006820F00300084908310860F5
:1024F0000846006840F00200086000BF034808304A
:10250000006800F00C000828F8D10CBD003802402B
:102510000070004008544007003C0240042808D1E5
:102520004FF0E021096941F004014FF0E022116110
:1025300007E04FF0E021096921F004014FF0E022AB
:10254000116170477047000010B51548006840F4ED
:102550007000134908601348006840F001001149F9
:10256000086000200F49083108600E4800680E49D5
:1025700008400C4908600D48091D0860081F0068E4
:1025800020F48020091F0860002006490C310860F3
:10259000FFF74EFF4FF0006001498039086010BD21
:1025A00088ED00E000380240FFFFF6FE1030002406
:1025B0009EB07BE00120F74908704FF47A7002F07A
:1025C0002DFC012002F010FDF34908602C22F34994
:1025D00013A8FDF7F7FDF04800681490F048EE49A5
:1025E000096850F821001C2217A915906846FDF7CC
:1025F000E9FD13A80FC803F033F9E748E9A1026821
:10260000EA4802F047FA1023E84A00210846FFF79B
:102610008BFCE7480268E7480378E7A1E34802F04B
:1026200039FA1023E14A05210020FFF77DFCDC4840
:10263000D949096850F82100502820DD0020D549EB
:1026400008700120DF4908700AE00020D449DD4A03
:10265000127841F82200DB480078401CD949087004
:10266000D84800780828F0DDD7A1D04802F012FA47
:102670001023CE4A03210020FFF756FC17E000206C
:10268000C44908700120CF4908700AE00021C448FD
:10269000CC4A127840F82210CA480078401CC94938
:1026A0000870C84800780828F0DD00BF82E700BF46
:1026B0000DE0C748006838B94FF47A7002F0AEFBFD
:1026C0000120C449087003E0322002F0A7FBF0E7C4
:1026D00000BF18E2BF480078012871D1BE480078D9
:1026E00001283AD1BD480078012833D1BC480068A0
:1026F00070BBBC480078401EC0B2BA490870BA49E5
:10270000085CBA4908700846007801280ED10021FB
:102710002820FFF725FAFA2002F080FB0020AF49BD
:1027200008704FF49670B249086013E0AF48007823
:1027300003280ED128210020FFF712FADC2002F036
:102740006DFB0020A54908704FF49670A8490860F9
:1027500000E000BFFEF73EFC7EE1A648007820B90D
:1027600001208C490870A34908709C480078012812
:1027700042D19B48006810BB87480068012803D0FD
:1027800085480068022837D183480068012818D19D
:1027900028210020FFF7E4F9DC2002F03FFB0020B5
:1027A0008E4908704FF496709149086001218D4858
:1027B00002780078401C8B4B18708B4881541BE0CA
:1027C00045E175480068022816D100212820FFF74E
:1027D000C7F9FA2002F022FB0020804908704FF46C
:1027E00096708349086003217E4802780078401C77
:1027F0007C4B18707C4881547848007801287DD142
:10280000774800680028FAD163480068012875D02D
:10281000614800680228FAD000205E490870012053
:1028200002F080FB022002F07DFB73480068032861
:1028300002DA00207149087071480068032802DA42
:1028400000207049087070480068032802DA0020F0
:102850006E4908706E480068032802DA00206D494E
:1028600008700120574908700AE000214C48554A79
:10287000127840F8221053480078401C51490870E3
:10288000504800780828F0DD01204E4908700AE021
:10289000002061494B4A127841F8220049480078EB
:1028A000401C48490870474800780828F0DD59481E
:1028B000007856490978CDE90010524803784F480E
:1028C000027856A1394802F0E5F81023374A022170
:1028D0000020FFF729FB4E4800684B490968CDE905
:1028E000001047480368444850A102682F4802F08E
:1028F000D1F810232D4A0421002000E0A4E0FFF7C6
:1029000013FB3E48007824490968884205D03D48B9
:10291000007821490968884217D128210020FFF753
:102920001FF9DC2002F07AFA4FF496703049086003
:1029300001212C4802780078401C2A4B18702A4844
:1029400081540120134908707BE030480078124917
:102950000968884205D02F4800780F4909688842E5
:102960006CD100212820FFF7FBF8FA2002F056FA7C
:102970004FF496701E49086003211A4802780078C7
:10298000401C184B187018488154012001490870E8
:1029900057E053E0D00000204800002018590008FC
:1029A000800400204E2D256400000000B4050020A6
:1029B0000C0300208A0000206F6D762D25642D62A7
:1029C0002D256400D5000020474F474F474F210079
:1029D00014024042E80000208D0000205C0000202E
:1029E000640000208F00002098030020D700002002
:1029F000DC000020D6000020BC000020B400002035
:102A0000C0000020B5000020C4000020B600002057
:102A1000C8000020B7000020A404002076616C3AB2
:102A200025642D25642D25642D256400636E743A7C
:102A300025642D25642D25642D256400012032494F
:102A40000870002031490870FEF7C4FA04E0FEF770
:102A5000A9F800202E4908702C222E4913A8FDF752
:102A6000B1FB2D48006814902C48006815902C4844
:102A7000407816902A48807817902948C078189096
:102A8000274800791990264840791A90244880797F
:102A90001B902348C0791C902148007A1C2217A95A
:102AA0001D906846FDF78EFB13A80FC802F0D8FEF4
:102AB0002C2218492C3108A8FDF784FB19484078CE
:102AC0000990184880780A901648C0780B901548ED
:102AD00000790C90134840790D90124880790E903F
:102AE0001048C0790F900F48007A1C220CA9109052
:102AF0006846FDF767FB08A80FC802F0B1FE122078
:102B000002F08CF900BFE5E5D00000205C00002059
:102B1000E800002044590008A40000200C03002015
:102B20006C040020760400209EB07BE00120FE496A
:102B300008704FF47A7002F071F9012002F054FA33
:102B4000FA4908602C22FA4913A8FDF73BFBF74825
:102B500000681490F748F549096850F821001C22D4
:102B600017A915906846FDF72DFB13A80FC802F0B2
:102B700077FEEE48F0A10268F14801F08BFF1023C8
:102B8000EF4A00210846FFF7CFF9EE480268EE4809
:102B90000378EEA1EA4801F07DFF1023E84A052101
:102BA0000020FFF7C1F9E348E049096850F8210027
:102BB000502820DD0020DC4908700120E64908701B
:102BC0000AE00020DB49E44A127841F82200E2489A
:102BD0000078401CE0490870DF4800780828F0DDE4
:102BE000DEA1D74801F056FF1023D54A032100206B
:102BF000FFF79AF917E00020CB4908700120D64969
:102C000008700AE00021CB48D34A127840F822101D
:102C1000D1480078401CD0490870CF480078082877
:102C2000F0DD00BF82E700BF0DE0CE48006838B994
:102C30004FF47A7002F0F2F80120CB49087003E0FB
:102C4000322002F0EBF8F0E700BF2AE2C648007835
:102C5000012871D1C548007801283AD1C4480078CC
:102C6000012833D1C348006870BBC3480078401EB8
:102C7000C0B2C1490870C149085CC1490870084622
:102C8000007801280ED100212820FEF769FFFA20E4
:102C900002F0C4F80020B64908704FF49670B949A4
:102CA000086013E0B648007803280ED128210020E0
:102CB000FEF756FFDC2002F0B1F80020AC490870A6
:102CC0004FF49670AF49086000E000BFFEF726FAA7
:102CD00090E1AD48007820B9012093490870AA49D5
:102CE0000870A3480078012842D1A248006810BBB0
:102CF0008E480068012803D08C480068022837D12C
:102D00008A480068012818D128210020FEF728FFF2
:102D1000DC2002F083F80020954908704FF496708B
:102D2000984908600121944802780078401C924B31
:102D30001870924881541BE057E17C4800680228D3
:102D400016D100212820FEF70BFFFA2002F066F8CA
:102D50000020874908704FF496708A490860032262
:102D6000854801780078401C834B18708348425492
:102D70007F48007801287DD17E4800680028FAD17C
:102D80006A480068012875D0684800680228FAD0AF
:102D9000002065490870012002F0C4F8022002F00A
:102DA000C1F87A480068052802DA002078490870DE
:102DB00078480068052802DA0020774908707748CB
:102DC0000068052802DA0020754908707548006817
:102DD000052802DA00207449087001205E49087055
:102DE0000AE0002153485C4A127840F822105A4801
:102DF0000078401C58490870574800780828F0DDD2
:102E00000120554908700AE000206849524A1278AA
:102E100041F8220050480078401C4F4908704E4845
:102E200000780828F0DD604800785D490978CDE930
:102E3000001059480378564802785DA1404801F0D7
:102E400029FE10233E4A02210020FFF76DF8554865
:102E5000006852490968CDE900104E4803684B48A4
:102E600057A10268364801F015FE1023344A0421A8
:102E7000002000E0B6E0FFF757F8454800782B49FE
:102E80000968884205D04448007828490968884282
:102E90001ED101204E490870414800784D49087004
:102EA00028210020FEF75CFEDC2001F0B7FF4FF484
:102EB00096703449086001212F4802780078401C40
:102EC0002D4B18702D48815401201749087086E059
:102ED0003348007815490968884205D0324800789F
:102EE00012490968884277D1022039490870284878
:102EF00000783849087000212820FEF731FEFA20BA
:102F000001F08CFF4FF496701E49086003211A48A7
:102F100002780078401C184B187018488154012022
:102F2000014908705BE057E0D00000204800002015
:102F30009C590008800400204E2D256400000000EC
:102F4000B40500200C0300208A0000206F6D762D50
:102F500025642D622D256400E0000020474F474F77
:102F6000474F210014024042E80000208D0000205D
:102F70005C000020640000208F00002098030020E7
:102F8000E2000020DC000020E1000020BC00002066
:102F9000B4000020C0000020B5000020C4000020C4
:102FA000B6000020C8000020B7000020A4040020C4
:102FB00076616C3A25642D25642D25642D256400E9
:102FC000636E743A25642D25642D25642D256400D7
:102FD000D8000020D90000200120324908700020CC
:102FE00031490870FEF79AF804E0FDF7DBFD002098
:102FF0002E4908702C222E4913A8FDF7E3F82D481E
:10300000006814902C48006815902C484078169061
:103010002A48807817902948C07818902748007966
:103020001990264840791A90244880791B902348AB
:10303000C0791C902148007A1C2217A91D9068466F
:10304000FDF7C0F813A80FC802F00AFC2C2218499B
:103050002C3108A8FDF7B6F81948407809901848AF
:1030600080780A901648C0780B90154800790C902B
:10307000134840790D90124880790E901048C0791D
:103080000F900F48007A1C220CA910906846FDF79B
:1030900099F808A80FC802F0E3FB122001F0BEFE69
:1030A00000BFD3E5D00000205C000020E800002035
:1030B000C8590008A40000200C0300206C04002064
:1030C000760400209EB07BE00120FE4908704FF49A
:1030D0007A7001F0A3FE012001F086FFFA49086032
:1030E0002C22FA4913A8FDF76DF8F74800681490F0
:1030F000F748F549096850F821001C2217A91590D6
:103100006846FDF75FF813A80FC802F0A9FBEE4868
:10311000F0A10268F14801F0BDFC1023EF4A002144
:103120000846FEF701FFEE480268EE480378EEA17C
:10313000EA4801F0AFFC1023E84A05210020FEF721
:10314000F3FEE348E049096850F82100502820DDEB
:103150000020DC4908700120E64908700AE00020E0
:10316000DB49E44A127841F82200E2480078401C2A
:10317000E0490870DF4800780828F0DDDEA1D74874
:1031800001F088FC1023D54A03210020FEF7CCFE75
:1031900017E00020CB4908700120D64908700AE0EA
:1031A0000020CB49D34A127841F82200D148007858
:1031B000401CD0490870CF4800780828F0DD00BFD7
:1031C00082E700BF1AE2CE480078012871D1CD48CD
:1031D000007801283AD1CC480078012833D1CB4877
:1031E000006870BBCA480078401EC0B2C849087069
:1031F000C849085CC84908700846007801280ED103
:1032000000212820FEF7ACFCFA2001F007FE002088
:10321000BD4908704FF49670C049086013E0BE487D
:10322000007803280ED128210020FEF799FCDC202D
:1032300001F0F4FD0020B44908704FF49670B749CE
:10324000086000E000BFFDF7C5FE29E1B448007842
:1032500020B901209B490870B1490870AA4800783C
:10326000012842D1A948006810BB9748006801288E
:1032700003D095480068022837D193480068012898
:1032800018D128210020FEF76BFCDC2001F0C6FDE0
:103290004FF49670A149086000209B4908700121F5
:1032A0009B4802780078401C994B187099488154CB
:1032B0001BE0F0E084480068022816D10021282095
:1032C000FEF74EFCFA2001F0A9FD4FF496709349E9
:1032D000086000208C49087003228D48017800782E
:1032E000401C8B4B18708B4842548748007801284B
:1032F0007DD1864800680028FAD17348006801280B
:1033000075D0714800680228FAD000206D49087015
:10331000012001F007FE022001F004FE8148006850
:10332000032802DA002080490870804800680328DA
:1033300002DA00207E4908707E480068032802DA1D
:1033400000207D4908707D480068032802DA0020CB
:103350007B4908700120674908700AE000215C4839
:10336000644A127840F8221062480078401C614993
:103370000870604800780828F0DD01205D49087079
:103380000AE000206F495B4A127841F82200594850
:103390000078401C57490870564800780828F0DD2E
:1033A0006748007864490978CDE9001060480378DF
:1033B0005D48027864A1494801F06CFB1023474A3C
:1033C00002210020FEF7B0FD5C48006859490968F9
:1033D000CDE900105548036852485FA102683F4894
:1033E00001F058FB10233D4A0421002000E04FE08B
:1033F000FEF79AFD4C48007833490968884205D0A9
:103400004B48007830490968884217D128210020AC
:10341000FEF7A6FBDC2001F001FD4FF496703F495A
:10342000086001223A4801780078401C384B187037
:103430003848425401202349087026E03E4800786D
:1034400021490968884205D03D4800781E4909682D
:10345000884217D100212820FEF782FBFA2001F0D4
:10346000DDFC4FF496702D4908600321284802784E
:103470000078401C264B18702648815401201149C1
:10348000087002E001200F49087000201E490870F2
:10349000FDF7A0FD04E0FDF785FB0020184908704A
:1034A0002C220A492C3113A8FCF78CFE2E48006808
:1034B00014900B48006815902C48407816902B48C3
:1034C000807855E0D000002048000020205A0008F5
:1034D000800400204E2D256400000000B40500206B
:1034E0000C0300208A0000206F6D762D25642D626C
:1034F0002D256400E3000020474F474F474F210030
:10350000E80000208D0000205C0000206400002006
:103510008F00002098030020E5000020DC00002040
:10352000E4000020BC000020B4000020C000002007
:10353000B5000020C4000020B6000020C800002014
:10354000B7000020A404002076616C3A25642D2584
:10355000642D25642D256400636E743A25642D2541
:10356000642D25642D256400A40000206C04002037
:1035700017902348C0781890214800791990204866
:1035800040791A901E4880791B901D48C0791C9084
:103590001B48007A1C2217A91D906846FCF712FEF2
:1035A00013A80FC802F05CF92C22164908A8FCF7F2
:1035B00009FE154840780990134880780A9012480F
:1035C000C0780B90104800790C900F4840790D900E
:1035D0000D4880790E900C48C0790F900A48007A07
:1035E0001C220CA910906846FCF7ECFD08A80FC837
:1035F00002F036F9122001F011FC00BFE3E50000F3
:103600006C040020785A000876040020F0B50C46BF
:10361000154600210022068C4FF6FE773E400684B8
:10362000018B028C4FF60C7631407E1C06EA0316A5
:103630002E4331434FF6F576324044F001063243D3
:1036400001830284F0BDF0B50C461546002100222E
:103650000026078C4FF6EF7C07EA0C070784018BE6
:10366000028C4FF6FF7707EA041640F6FF47394011
:103670004FF6FF7707EA033739434FF6FF7707EA3C
:10368000052739434FF65F773A4046F010073A4333
:1036900001830284F0BDF0B50C46154600210022DE
:1036A0000026078C4FF6FF6C07EA0C070784818B16
:1036B000028C4FF6FF7707EA04264FF60C77394065
:1036C0004FF6FF7707EA03172F4339434FF2FF57AF
:1036D0003A4046F480773A4381830284F0BDF0B5E6
:1036E0000C461546002100220026078C4EF6FF7C72
:1036F00007EA0C070784818B028C4FF6FF7707EAF5
:10370000043640F6FF4739404FF6FF7707EA0527B2
:1037100039434FF6FF7707EA0337394345F6FF771A
:103720003A4046F480573A4381830284F0BD00005A
:1037300000B593B001216F4800F05FFA012828D14D
:1037400001216C4800F011FA6B480068401C6A497E
:103750000860084600686949884202D1002066492D
:1037600008606748007818B900206649086004E0DE
:1037700064480068401C634908606348007818B9D1
:1037800000206249086004E060480068401C5F490E
:1037900008600221574800F030FA012858D1022170
:1037A000544800F0DFF90221524800F0DEF9544895
:1037B000007898B95648006880F400705449086051
:1037C00001204F4908704B4800F00EFA40B25149B1
:1037D00008700221474800F06AFA39E04C48006856
:1037E00080F400704A49086000204549087041484B
:1037F00000F0FAF947490978401A40B24549087083
:103800002C22454908A8FCF7DDFC3E48006800EB87
:103810008000404991F9001001EB40004FF4AA717B
:10382000484342F21071B0FBF1F00990394890F929
:1038300000001C220CA90A906846FCF7C3FC08A8EB
:103840000FC802F00DF800212A4800F030FA00BF3E
:103850000421284800F0D1F9012849D10421254844
:1038600000F080F92848007868B9012026490870DE
:10387000204800F0BCF940B22849087002211D48D8
:1038800000F01EFA34E000201F490870194800F0CB
:10389000AEF922490978401A40B2204908702C221A
:1038A0001D492C3108A8FCF78DFC1848006800EB76
:1038B00080001A4991F9001001EB40004FF4AA7101
:1038C000484342F21071B0FBF1F00990134890F9AF
:1038D00000001C220CA90A906846FCF773FC08A89B
:1038E0000FC801F0BDFF0021024800F0E9F900BF58
:1038F00013B000BD000C004054010020A086010060
:10390000590100205C0100206101002064010020B9
:103910001414024058010020BC620008600100201D
:1039200010B50121124800F068F901281ED10121CB
:103930000F4800F01AF90F48D0E90020521C40F15E
:1039400000000C49C1E900200B480068002804DD94
:1039500009480068401E08490860084800680028B7
:1039600004DD06480068401E0449086010BD0000E0
:10397000001000407001002064000020DC000020E6
:103980007FB504460D4601211020FEF7ADFBA8B21D
:10399000ADF804000020ADF806000294ADF80C006C
:1039A00001A90D4800F072FA012211460A4800F000
:1039B00075F90121084800F0DBF836208DF8000089
:1039C00000208DF801008DF8020001208DF8030021
:1039D0006846FEF769F97FBD001000407FB50446D8
:1039E0000D4601212020FEF77FFBA8B2ADF80400B0
:1039F0000020ADF806000294ADF80C0001A90D48B6
:103A000000F044FA012211460A4800F047F901216A
:103A1000084800F0ADF837208DF8000002208DF83E
:103A2000010001208DF802008DF803006846FEF7C2
:103A30003BF97FBD0014004010B501211A4800F089
:103A4000DCF801282ED10121174800F08EF8174824
:103A50000068322808DB0020144908601448006818
:103A600080F400501249086010480068401C0F495B
:103A700008601048007808B9FEF798FC0D480078F7
:103A800008B9012000E000200A4908700A480068CF
:103A9000052802DB00200849086007480068401C30
:103AA0000549086010BD00000014004074000020AB
:103AB000140802407C0000207800002010B52DED95
:103AC000028B04211E4800F098F8C0B104211C4864
:103AD00000F04BF81A4800F08AF800EE100AB8EE31
:103AE000408A184890ED000AB8EEC00A38EE000A85
:103AF000BCEEC00A10EE101A114800F094F9102123
:103B00000F4800F07AF8C0B110210D4800F02DF8F0
:103B10000B4800F06FF800EE100AF8EE408A0A48F1
:103B200090ED000AB8EEC00A38EE800ABCEEC00A7A
:103B300010EE101A024800F07AF9BDEC028B10BDAD
:103B4000000401400C0100201001002021B1028876
:103B500042F08002028004E002884FF67F731A4030
:103B600002807047CA4302827047CA43028270478C
:103B700021B1028842F00102028004E002884FF67F
:103B8000FE731A400280704731B1B0F8442042F40D
:103B90000042A0F8442005E0B0F84420C2F30E0231
:103BA000A0F844207047F0B50C4615461E4600218B
:103BB000002200230189028B038C4FF6F8773940ED
:103BC00021434FF6FC473A4040F201173A434FF683
:103BD000DD773B404FF6FF7707EA06172F433B435D
:103BE000018102830384F0BD0146486B70470146A2
:103BF000886B70470146086C704730B5024600205C
:103C000000230024158A05EA0103958905EA0104C9
:103C100013B10CB1012000E0002030BD70B50546A5
:103C20000C46208850B92389A28861882846FFF76E
:103C3000EDFCE188284600F0FCF825E02088042807
:103C40000AD12389A28861882846FFF7FCFCE18815
:103C5000284600F0F7F817E0208808280AD12389C1
:103C6000A28861882846FFF716FDE188284600F003
:103C7000F6F809E02389A28861882846FFF72FFD1E
:103C8000E188284600F0F4F870BD002101804180F1
:103C9000012181800021C180018170471AB183898F
:103CA0000B43838102E083898B43838170470A46FB
:103CB0000021018C4FF6FD731940114301847047B8
:103CC0000A460021018C4FF6DF7319404FF6FF734F
:103CD00003EA0213194301847047000070B5002401
:103CE00000220023058C4FF6FF6635400584028CC8
:103CF0008388848B4FF68F752C404FF6FC752C40D3
:103D00000D882C434FF6FF552A408D894FF6FF76DC
:103D100006EA05252A434D8806EA05252A43154D5E
:103D2000A84202D0144DA8421DD14FF2FF752A407F
:103D3000CD894FF6FF7606EA05252A434FF6FF3573
:103D40002A408D8806EA05252A434EF6FF752B404A
:103D50004DF6FF752B400D8A06EA05152B434D8A5B
:103D600006EA05152B43838084838D68C56302842E
:103D700070BD000000000140000401400A4600211F
:103D8000818B4FF6F7731940114381837047000010
:103D900070B5002200230024058C4EF6FF763540D6
:103DA0000584038C8488828B48F6FF752A404FF681
:103DB000FF452A400D884FF6FF7606EA05252A437F
:103DC0004DF6FF752B408D8906EA05352B434D884E
:103DD00006EA05352B430A4DA84202D0094DA842F8
:103DE00008D14BF6FF752C400D8A4FF6FF7606EA98
:103DF00085152C43848082838D680564038470BD9F
:103E000000000140000401400A460021818B4FF26E
:103E1000FF7319404FF6FF7303EA022319438183AE
:103E200070474163704781637047C16370470164A5
:103E30007047028B4FF6F3731A400283028B0A43DA
:103E400002837047028B4FF2FF331A400283028BCA
:103E50004FF6FF7303EA01231A4302837047828BF4
:103E60004FF6F3731A408283828B0A438283704732
:103E7000828B4FF2FF331A408283828B4FF6FF739F
:103E800003EA01231A43828370470000002202885C
:103E9000184B98420ED0184B98420BD0B0F1804F7F
:103EA00008D0164B984205D0154B984202D0154BBE
:103EB000984204D14FF68F731A404B881A43124B25
:103EC000984207D0114B984204D04FF6FF431A4056
:103ED0000B891A4302804B68C3620B880385054B2C
:103EE000984202D0044B984201D18B7A0386012379
:103EF000838270470000014000040140000400403C
:103F000000080040000C0040001000400014004079
:103F10007047000070B505460E4600240CE0295D90
:103F2000074800F031FC00BF8021054800F065FB28
:103F30000128F9D1601CC4B2B442F0DB70BD0000AE
:103F40000010014070B505460E4600240CE0295DC6
:103F5000074800F019FC00BF8021054800F04DFB28
:103F60000128F9D1601CC4B2B442F0DB70BD00007E
:103F70000044004070B5002540F22551484800F04B
:103F800049FB60B14648001D0088C4B2454801782D
:103F90000078401C434A1070434844547EE040F28D
:103FA00024413F4800F036FB002877D03C48008889
:103FB000C5B23B48001D0088C5B23A480078401E93
:103FC00039490870012037490870374800780B28B4
:103FD0005FD135484078AA285BD133488078FF28E4
:103FE00057D1314800793049C97849B240EA0120B7
:103FF0002E4908602C4880792B49497949B240EA1A
:1040000001202A49C8612848007A2749C97949B25C
:1040100040EA0120254948622348407A2449087033
:1040200022480068B0F5A07F03DC20480068002823
:1040300002DAA0201D4908601E480078A8B91E4871
:10404000006890B91948C069782805DD1B480078D8
:10405000401C1A49087002E00020184908701748EF
:104060000078082801DB00F041FF1048406A7828FA
:1040700005DD13480078401C1149087002E000205B
:104080000F4908700E480078082807DB00F02EFF63
:1040900004E00020094908700949087070BD00005B
:1040A000004C00408C000020340300200C03002052
:1040B0008A0000205C000020DC0000208800002036
:1040C0008900002070B5002540F22551154800F008
:1040D000A1FA58B113488088C4B213480178007817
:1040E000401C114A1070114844541AE040F2244117
:1040F0000C4800F08FFAA0B10A480088C5B2094800
:104100008088C5B208480078401E08490870012020
:104110000549087006480068401C0549086000F021
:1041200065FB70BD00500040D20000200804002054
:10413000A40000202DE9F0412DED028B044600265D
:104140000027B0466078AA2877D1A078FF2802D04F
:10415000A0780528F8D1012608E0A05D3844C7B250
:1041600008EB070000F0FF08701CC6B22079401D64
:10417000B042F2DC2079401D205CB84204D12079A5
:10418000801D205C404503D0BDEC028BBDE8F08172
:10419000E078E12847D1B4F805500D2D21D006DC98
:1041A000012D0BD00B2D0ED00C2D36D112E00E2D83
:1041B0001ED00F2D23D0102D2FD127E0052128460A
:1041C00001F088F82EE08B4800680168284601F06D
:1041D00081F827E0884800680168284601F07AF8ED
:1041E00020E0864800680168284601F073F819E06D
:1041F000834800680168284601F06CF812E08148A5
:1042000000680168284601F065F80BE07E48006808
:104210000168284601F05EF804E02946284601F0CE
:1042200059F800BFE4E0E078E228FBD1B4F805508B
:10423000A5F10B0006282AD200E034E0DFE800F008
:1042400003090F151B21D4F807006A4909680860A3
:104250001EE0D4F8070068490968086018E0D4F83F
:10426000070066490968086012E0D4F8070064494D
:10427000096808600CE0D4F8070062490968086022
:1042800006E0D4F8070060490968086000E000BF54
:1042900000BF23799B1DE25C23795B1DE15CE07824
:1042A00001F074F8A4E06078672876D1E0783D28C2
:1042B00073D1A078312816D10021201D00F000FC18
:1042C000B0EE408AF0EE608A51EC180BFBF7FEFF6F
:1042D0004E4948604E48007808B9012000E00020AF
:1042E0004B4908707DE0A07832280ED10021201DB6
:1042F00000F0E6FBB0EE408AF0EE608A51EC180B5D
:10430000FBF7E4FF414988606BE0A07833280ED1C9
:104310000021201D00F0D4FBB0EE408AF0EE608A50
:1043200051EC180BFBF7D2FF3849C86059E0A07870
:1043300034280ED10021201D00F0C2FBB0EE408ACF
:10434000F0EE608A51EC180BFBF7C0FF2F490861B3
:1043500047E0A07835280ED10021201D00F0B0FBE9
:10436000B0EE408AF0EE608A51EC180BFBF7AEFF1E
:104370002649486135E0A07836280FD10021201D5C
:1043800000F09EFBB0EE408AF0EE608A51EC180B14
:10439000FBF79CFF1D49886123E029E0A0783728BE
:1043A0000ED10021201D00F08BFBB0EE408AF0EE14
:1043B000608A51EC180BFBF789FF1449C86110E0C3
:1043C000A07838280DD10021201D00F079FBB0EE37
:1043D000408AF0EE608A51EC180BFBF777FF0B492F
:1043E0000862002002E000212154401C0F28FADB63
:1043F00000BFC9E62C00002030000020340000205F
:10440000380000203C0000204000002078010020FF
:10441000E800002070B5002540F22551184800F052
:10442000F9F850B116488088C4B21648017800786F
:10443000401C144A10701448445440F2253110486E
:1044400000F0E8F820B140F225310D4800F0C0F846
:1044500040F224410A4800F0DDF880B108480088A5
:10446000C5B207488088C5B206480078401E064994
:1044700008700120034908700348FFF75BFE70BD18
:10448000001001406C0100205005002070B500258F
:1044900040F22551144800F0BDF860B11248001DEB
:1044A0000088C4B2114801780078401C0F4A10708F
:1044B0000F48445416E040F224410B4800F0AAF89B
:1044C00080B109480088C5B20748001D0088C5B200
:1044D00006480078401E064908700120034908700C
:1044E000FFF716FD70BD000000440040520100209F
:1044F000C804002070B5002540F22551144800F092
:1045000089F860B11248001D0088C4B211480178D2
:104510000078401C0F4A10700F48445416E040F2D7
:1045200024410B4800F076F880B109480088C5B2F4
:104530000748001D0088C5B206480078401E06499D
:104540000870012003490870FDF7F9F970BD0000FB
:10455000004800408B000020A802002070B5002514
:1045600040F22551164800F055F860B11448001D7E
:104570000088C4B2134801780078401C114A1070BA
:10458000114844541BE040F224410D4800F042F829
:10459000A8B10B480088C5B20948001D0088C5B203
:1045A00008480078401E0849087001200549087035
:1045B00006480068401C0549086000F0C1F970BD5C
:1045C00000140140D1000020A4030020A800002016
:1045D00001F40072B2F5007F00D100BFCA4302802F
:1045E000704721B1828942F40052828104E08289BD
:1045F0004DF6FF731A408281704702460020B1F5E4
:10460000007F00D100BF13880B400BB1012000E0F8
:104610000020704770B502460024002300250020CA
:1046200040F66A16B14200D100BFC1F3421501F055
:104630001F03012606FA03F3012D02D196893340A8
:1046400006E0022D02D1168A334001E0968A3340FB
:104650000C12012606FA04F41688344013B10CB18A
:10466000012000E0002070BDF0B5034600240026C4
:104670000025002040F66A17B94200D100BF184655
:10468000C1F3421401F01F06012707FA06F5012CB9
:1046900001D10C3004E0022C01D1103000E01430C4
:1046A0001AB107682F43076002E00768AF4307604D
:1046B000F0BD00002DE9FF4705460E460024A14647
:1046C00000BFA046B08900B100BF2C8A24F440543A
:1046D000F08804432C82AC8941F20C608443B0889A
:1046E00031890843718908430443AC81AC8A24F4BE
:1046F0004074B0890443AC826846FDF715FD20483C
:10470000854202D01F48854202D1DDF80C9001E0BD
:10471000DDF80890A88900F4004040B109EBC90019
:1047200000EB091031684900B0FBF1F707E009EB35
:10473000C90000EB091031688900B0FBF1F7642073
:10474000B7FBF0F004012009642101FB1078A8896F
:1047500000F4004040B1322000EBC800B0FBF1F0A3
:1047600000F00700044308E0322000EB0810642149
:10477000B0FBF1F000F00F0004432C81BDE8FF878F
:104780000010014000140140C1F30802828070470C
:1047900000BFFEE710B50446FDF722F97820FDF7CB
:1047A000EBF8FDF769F90020FDF7E6F8FDF764F98D
:1047B0002046FDF7E1F8FDF75FF9FDF737F910BD89
:1047C00010B50446FDF70CF97820FDF7D5F8FDF794
:1047D00053F94020FDF7D0F8FDF74EF92046FDF7DC
:1047E000CBF8FDF749F9FDF721F910BD4F480078E6
:1047F0000B287DD14D484078AA28FAD14B488078C3
:10480000FF28F6D14948C07ACC28F2D14748C07871
:104810004749487045480079887044484079C870D5
:104820004248807908714148C07948713F48007A10
:1048300088713E48407AC8713C48807A08723D4889
:104840000078012855D13C4908704CE03848407840
:10485000012804D139484068401C38494860344830
:104860008078012804D135488068401C334988602D
:104870002F48C078012804D13048C068401C2F4917
:10488000C8602B480079012804D12C480069401CDD
:104890002A49086126484079012804D127484069FF
:1048A000401C2649486122488079012804D12348C8
:1048B0008069401C214988611D48C079012804D1C4
:1048C0001E48C069401C1D49C8611948007A01286A
:1048D00004D11A48006A401C18490862164800783A
:1048E000401C15490870144800780828AEDD1CE00B
:1048F00013E00120104908700AE000200F490E4A19
:10490000127841F822000C480078401C0A490870CF
:10491000094800780828F0DD07E0002003E00021C6
:10492000034A1154401C0A28F9DB70470804002090
:104930006C040020D0000020D30000208004002060
:104940004F4800780B287DD14D484078AA28FAD1ED
:104950004B488078FF28F6D14948C07ACC28F2D15C
:104960004748C078474948704548007988704448AE
:104970004079C8704248807908714148C0794871CF
:104980003F48007A88713E48407AC8713C48807A36
:1049900008723D480078012855D13C4908704CE028
:1049A00038484078012804D139484068401C3849CB
:1049B000486034488078012804D135488068401C1C
:1049C000334988602F48C078012804D13048C06836
:1049D000401C2F49C8602B480079012804D12C487D
:1049E0000069401C2A49086126484079012804D101
:1049F00027484069401C264948612248807901289F
:104A000004D123488069401C214988611D48C07930
:104A1000012804D11E48C069401C1D49C8611948BD
:104A2000007A012804D11A48006A401C184908621B
:104A300016480078401C154908701448007808286A
:104A4000AEDD1CE013E00120104908700AE00020F0
:104A50000F490E4A127841F822000C480078401C99
:104A60000A490870094800780828F0DD07E00020AE
:104A700003E00021034A1154401C0A28F9DB704767
:104A8000A403002076040020D0000020D4000020E1
:104A9000A40400200FB4084B10B504A902AA03987F
:104AA00000F038F8044602A9002000F093F92046EF
:104AB00010BC5DF814FB0000D54D0008000000009C
:104AC00000B583B09FED060B0A4601468DED000B45
:104AD0006846FBF782FC9DED000B03B000BD0000B3
:104AE000000000000000000002E008C8121F08C11A
:104AF000002AFAD170477047002001E001C1121F5F
:104B0000002AFBD1704730380A2801D201207047B3
:104B1000002070472DE9FF4F8DB09B460F4604469D
:104B2000002606E025280BD05A460F999047641CB2
:104B3000761C20780028F5D111B03046BDE8F08F02
:104B40000025A8460122984900E0054314F8013FDA
:104B5000203B02FA03F00842F7D120782E2817D123
:104B600014F8010F45F004052A280ED06FF02F022B
:104B70002078A0F1300109290AD808EB880102EB5E
:104B8000410100EB0108641CF2E757F8048B641C38
:104B900020786C280DD004DC4C2812D06A2811D162
:104BA00004E074280DD07A280CD10AE045F40015F1
:104BB00007E0617845F48015814202D1641C05F557
:104BC0008015641C2078692844D008DC0028B3D004
:104BD000582867D063280FD0642808D13AE070289D
:104BE00065D0732812D075285AD078285AD05A46E2
:104BF0000F999047761CD5E017F8040B8DF800004C
:104C000000208DF80100E946012003E057F8049BDD
:104C10004FF0FF3069074FF0000501D40AE06D1C2A
:104C200045450DDA8542FADB19F805100029F6D161
:104C300006E06D1C8542FCDB19F805100029F8D14F
:104C40002E4404E019F8010B5A460F9990476D1E47
:104C5000F8D2A7E00A200021CDE90801C5F30250EF
:104C600002280CD001CFC117021E71F100020CDA2C
:104C70000023D0EB030063EB01012D2208E0FF1DB0
:104C800027F00707F7E80201EEE72A0504D52B22F3
:104C90008DF8282001223CE0EA073AD02022F7E7ED
:104CA0000A2000E010200021CDE9080107E01020D3
:104CB000002145F00405CDE908014FF00808C5F3CF
:104CC0000250022810D001CF00214FF0000A2A071D
:104CD00020D52278702A0DD0DDE908C38CF0100CA5
:104CE0005CEA030C0CD015E0FF1D27F00707F7E87E
:104CF0000201EAE740228DF828204FF0010A0CE07B
:104D000050EA010306D030238DF828308DF8292091
:104D1000022292462278582A04D024A20DF12009BA
:104D20000B9209E026A2F9E7DDE90823FBF7EAFA8E
:104D30000B9B9B5C09F8013D50EA0102F4D1ADEBFD
:104D4000090020300890680701D44FF00108089945
:104D5000884503DD0898A8EB000000E000208046AD
:104D6000002506E00AA85A46405D0F9990476D1C41
:104D7000761C5545F6DB04E030205A460F999047E3
:104D8000761CB8F10001A8F10108F5DC05E019F87E
:104D9000010B5A460F999047761C0899481E0890B7
:104DA0000029F4DC641CC4E60928010030313233E8
:104DB0003435363738396162636465660000000057
:104DC0003031323334353637383941424344454641
:104DD000000000000A68531C0B6010707047000050
:104DE00010B504466FF00400FDF798FBE11704EBE3
:104DF0005171C1F3C701074A11701046007800EBEA
:104E00004001C1EBC0104FF6FF7101EAC00002493A
:104E1000088010BD160100201801002070B504465E
:104E20004FF4077094FBF0F0C6B24FF4077094FB98
:104E3000F0F100FB114085B205E04FF4077000F07F
:104E40002FF8701EC6B2002EF7D115B1284600F01B
:104E500027F870BD0146114A12784A434FF0E0230B
:104E60005A6100229A611A46126942F001021A61DF
:104E700000BF4FF0E022106900F001021AB100F407
:104E80008032002AF5D04FF0E022126922F00102B0
:104E90004FF0E0231A6100229A617047160100204A
:104EA0000146114A12884A434FF0E0235A6100221A
:104EB0009A611A46126942F001021A6100BF4FF06E
:104EC000E022106900F001021AB100F48032002AD9
:104ED000F5D04FF0E022126922F001024FF0E023FA
:104EE0001A6100229A617047180100200A48006880
:104EF000012803D008480068022806D1012007498C
:104F00000870D2200649086005E0012003490870B6
:104F1000D220034908607047480000205C00002050
:104F20006400002070B50346002400250021002203
:104F3000012B21D100BF14E0214E56F820608E4293
:104F400005DD0A461E4E56F82010C4B208E01C4E7D
:104F500056F82060964203DD194E56F82020C5B25F
:104F6000401C0828E8DD174E3470174E3570174E78
:104F70003160174E326022E0022B20D1012014E074
:104F8000144E56F820608E4205DD0A46114E56F842
:104F90002010C4B208E00F4E56F82060964203DDA0
:104FA0000C4E56F82020C5B2401C0828E8DD0A4EF9
:104FB00034700A4E35700A4E31600A4E326070BD50
:104FC00080040020B4000020B5000020BC000020B8
:104FD000C0000020A4040020B6000020B70000207C
:104FE000C4000020C8000020024600200021012A41
:104FF0000CD1012107E00D4B53F82130834200DD35
:1050000008464B1CD9B20829F5DD0DE0022A0BD168
:10501000012107E0064B53F82130834200DD0846AA
:105020004B1CD9B20829F5DD704700008004002030
:10503000A40400202DE9FF41064600240025002796
:10504000AA222146641CA2484254FF222146641C25
:10505000425406F1F000C2B22146641C9C484254FE
:1050600000222146641C42549DF804202146641C01
:1050700042549DF805202146641C42549DF80620A8
:105080002146641C42549DF807202046611CCCB286
:105090008F490A549DF808202046611CCCB28C49E7
:1050A0000A549DF809202046611CCCB288490A5454
:1050B0009DF80A202046611CCCB285490A549DF80F
:1050C0000B202146601CC4B2814842549DF80C203C
:1050D0002046611CCCB27E490A549DF80D20204622
:1050E000611CCCB27A490A549DF80E202046611CFE
:1050F000CCB277490A549DF80F202046611CCCB2EF
:1051000073490A549DF828202046611CCCB270498E
:105110000A549DF829202046611CCCB26C490A54DF
:105120009DF82A202046611CCCB269490A549DF89A
:105130002B202046611CCCB265490A549DF82C20D6
:105140002146601CC4B2624842549DF82D2020467E
:10515000611CCCB25E490A549DF82E202046611C89
:10516000CCB25B490A549DF82F202146601CC4B282
:10517000574842549DF830202046611CCCB2544917
:105180000A549DF831202046611CCCB250490A5483
:105190009DF832202046611CCCB24D490A549DF83E
:1051A00033202046611CCCB249490A549DF8342072
:1051B0002046611CCCB246490A549DF83520204651
:1051C000611CCCB242490A549DF836202146601C2D
:1051D000C4B23F4842549DF837202046611CCCB2EF
:1051E0003B490A549DF838202046611CCCB238490E
:1051F0000A549DF839202046611CCCB234490A5427
:105200009DF83A202046611CCCB231490A549DF8E1
:105210003B202046611CCCB22D490A549DF83C200D
:105220002046611CCCB22A490A549DF83D202046F4
:10523000611CCCB226490A549DF83E202046611CD0
:10524000CCB223490A549DF83F202046611CCCB2C1
:105250001F490A549DF840202046611CCCB21C49CD
:105260000A549DF841202046611CCCB218490A54CA
:105270009DF842202146601CC4B2154842549DF856
:1052800043202046611CCCB211490A54201FC8702B
:10529000002007E00E49095C2944CDB27919CFB24C
:1052A000411CC8B20A49C978091D8142F2DC204676
:1052B000611CCCB206490D542046611CCCB2044995
:1052C0000F5421460248FEF725FEBDE8FF8100008D
:1052D000A001002073B5002400250026AA22214643
:1052E000641C29484254AF222146641C4254E222E5
:1052F0002146641C425400222146641C42549DF8FD
:1053000000202146641C42549DF801202146641C63
:1053100042549DF804202146641C42549DF8052007
:105320002146601CC4B2184842549DF8062021460C
:10533000601CC4B2144842549DF807202046611CEA
:10534000CCB211490A54201FC870002007E00E4952
:10535000095C2944CDB27119CEB2411CC8B20A49C8
:10536000C978091D8142F2DC2046611CCCB2064995
:105370000D542046611CCCB203490E54214602480C
:10538000FEF7C8FD7CBD0000A00100202DE9F0471C
:1053900006460F46904600240025A146AA22214633
:1053A000641C1E484254AF222146641C4254002211
:1053B0002146641C42542146641C42542146641C0C
:1053C00046542146641C47542146641C00F8018061
:1053D000201F1249C870002009E01049095C2944C7
:1053E000CDB209EB050101F0FF09411CC8B20B4920
:1053F000C978091D8142F0DC2046611CCCB2074906
:105400000D542046611CCCB2044901F8009021469D
:105410000248FEF77FFDBDE8F0870000A0010020F4
:105420001CB501210420FCF74FFE01210846FCF7C2
:105430004BFE4FF40050009001208DF80400002036
:105440008DF8060003208DF8050000208DF8070078
:1054500069461648FCF706FA1020009001208DF8E6
:10546000040000208DF8060002208DF805000020C1
:105470008DF8070069460E48FCF7F4F920200090EB
:1054800000208DF804008DF8060002208DF805003C
:1054900001208DF8070069460548FCF7E3F94FF451
:1054A00000510248FCF749FA1CBD00000008024008
:1054B000000002401CB501211020FCF705FE4FF44E
:1054C0007860009001208DF8040003208DF805001D
:1054D00000208DF8060002208DF807006946174865
:1054E000FCF7C0F90020164908601649C1F8A0026F
:1054F000134908310860091D0860091D08604FF450
:105500007040009001208DF8040003208DF8050004
:1055100000208DF8060002208DF807006946074834
:10552000FCF7A0F90020064914310860091D086045
:10553000091D0860091D08601CBD00000010024024
:105540009C024242000042421FB50220FCF7E8FBE9
:10555000A820FFF745FC6846FCF7E6FDFCF709FCD0
:1055600052A15348009AFFF795FA0823504A0021A8
:105570000846FCF7D9FC4FF4FA70FFF74FFC5321B3
:1055800040F2E730FEF7FCF9532142F20F70FEF7CC
:1055900025FAFCF7A1FAFBF7B7FAFFF741FFFBF793
:1055A00089FA0020434908606420FFF737FC012096
:1055B0004149C1F89002FCF717FBFBF7DFFFFCF74E
:1055C00033F8FFF777FF0320FCF722FE4FF47A70E1
:1055D000FFF724FC0620FCF71BFE4FF47A70FFF760
:1055E0001DFC0220FCF714FE532140F2E73000F0CE
:1055F0006FF84FF4E13000F0D5F8FCF77BFE4FF484
:10560000E130FBF7FDFA4FF4E130FBF755FB4FF4C7
:10561000E130FBF7AFFB4FF4E130FBF703FC002474
:10562000002526480068C4B22548D0F80C02C5B24F
:1056300024B91DB901202349087014E0012C04D1BC
:105640001DB902201F4908700DE02CB9012D03D1AE
:1056500003201C49087006E0012C04D1012D02D161
:105660000420184908701748027817A11048FFF75E
:1056700011FA08230E4A00215020FCF755FC11486E
:105680000078012802D1FCF793FF0CE00D48007868
:10569000022802D1FDF748FA05E00A4800780328FD
:1056A00001D1FDF70FFD00BFFEE7000025640000FB
:1056B000B4050020900240420000404208024242ED
:1056C000000042428E000020542D2564000000009E
:1056D00030B58BB004460D4601210220FCF714FDC5
:1056E00001210420FCF7F0FC032208212B48FCF7E1
:1056F00001F9032209212948FCF7FCF84FF4407016
:10570000099002208DF8280003208DF82900002040
:105710008DF82A0002208DF82B0009A91F48FCF7FC
:10572000A1F8A8B2ADF818000020ADF81A0007944F
:10573000ADF8200006A91A48FEF7A8FB7020ADF8C6
:1057400004000120ADF806000220ADF8100001A908
:105750001348FEF7C3FA01A91148FEF719FB082107
:105760000F48FEF70BFB08210D48FEF74DFB01210A
:105770000B48FEF7EBF901210948FEF705FA012174
:105780000748FEF7F5F900210548FEF74EFB00211A
:105790000348FEF74CFB0BB030BD00000008024090
:1057A0000004014010B588B0044601210846FCF70A
:1057B0008BFC01211020FCF7A7FC072209212648B9
:1057C000FCF798F807220A212348FCF793F84FF4D6
:1057D000C060069002208DF81C008DF81D0000208E
:1057E0008DF81E0001208DF81F0006A91A48FCF74D
:1057F00039F802940020ADF80C00ADF80E00ADF8B9
:105800001000ADF814000C20ADF8120002A91348E6
:10581000FEF750FF01211148FEF7E3FE012240F29E
:1058200025510E48FEF720FF012240F224410B488B
:10583000FEF71AFF25208DF8040001208DF80500E1
:1058400000208DF8060001208DF8070001A8FCF764
:105850002BFA08B010BD000000000240001001400B
:105860000FB42DE9F04F8BB09DF8500010B19DF8AA
:10587000500000E001200446159808B1159800E09A
:1058800000200546169808B1169800E0002006464C
:10589000179808B1179800E000200A90189808B1EE
:1058A000189800E000200990199808B1199800E0B4
:1058B000002007461A9808B11A9800E00020804698
:1058C0001B9808B11B9800E0002081461C9808B185
:1058D0001C9800E0002082461D9808B11D9800E049
:1058E000002008901E9808B11E9800E00020834612
:1058F0000898CDE9050BCDE9039A09988DE8810157
:105900003246294620460A9BFFF794FB0BB0BDE8C0
:10591000F00F5DF814FB0000010000000000000023
:105920000000000000000000000000000000000077
:105930000000000000000000000000000000000067
:105940000000000001000000000000000000000056
:105950000000000000000000000000000000000047
:105960000000000000000000000000000000000037
:105970000200000000000000000000000000000025
:105980000000000000000000000000000000000017
:105990000000000000000000000000000100000006
:1059A00000000000000000000000000000000000F7
:1059B00000000000000000000000000000000000E7
:1059C00000000000000000000100000000000000D6
:1059D00000000000000000000000000000000000C7
:1059E00000000000000000000000000000000000B7
:1059F00000000000020000000000000000000000A5
:105A00000000000000000000000000000000000096
:105A10000000000000000000000000000000000086
:105A20000100000000000000000000000000000075
:105A30000000000000000000000000000000000066
:105A40000000000000000000000000000100000055
:105A50000000000000000000000000000000000046
:105A60000000000000000000000000000000000036
:105A70000000000000000000020000000000000024
:105A80000000000000000000000000000000000016
:105A90000000000000000000000000000000000006
:105AA000000000000000000000000000002F0000C7
:105AB00000000700070000147F147F1400242A7FD1
:105AC0002A12006264081323003649552250000050
:105AD0000503000000001C224100000041221C00C0
