:020000040800F2
:10000000900A0020213000084D0200084F0200082D
:1000100053020008570200085B02000800000000BD
:100020000000000000000000000000005F02000867
:100030006102000800000000630200086502000879
:100040003B3000083B3000083B3000083B300008E4
:100050003B3000083B3000083B3000083B300008D4
:100060005F070008790700083B3000083B300008B4
:100070003B3000083B3000083B3000083B300008B4
:100080003B3000083B3000083B3000083B300008A4
:100090003B3000083B3000083B3000083B30000894
:1000A0003B3000083B3000083B3000083B30000884
:1000B0003B3000083B3000083B3000083B30000874
:1000C0003B3000083B3000083B3000083B30000864
:1000D0003B3000082F0600082B140008FF1A000808
:1000E000871600083B3000083B3000083B30000812
:1000F0003B3000083B300008F54D00083B3000085D
:100100003B3000083B300008650A00083B3000081F
:10011000851B000835220008970800083F180008D2
:100120003B3000083B3000083B3000083B30000803
:100130003B3000083B3000083B3000083B300008F3
:100140003B3000083B3000083B3000083B300008E3
:100150003B3000083B3000083B300008912000088D
:100160003B3000083B3000083B3000083B300008C3
:100170003B3000083B3000083B3000083B300008B3
:100180003B3000083B300008DFF810D005F0C4F821
:1001900000480047A1010008AFF30080900A00204A
:1001A0001FB5022002F04EFFA82000F065F9684656
:1001B00003F093FA00F0D3FE18A11948009A05F055
:1001C000DFFA0823164A0021084601F048F815A274
:1001D00017A1134805F0D4FA0823114A0221002080
:1001E00001F03DF813A212A10D4805F0C9FA082349
:1001F0000B4A0421002001F032F811A20CA108489A
:1002000005F0BEFA0823064A0621002001F027F86F
:100210004FF4FA7000F092F900BFFEE72564000089
:10022000480200206F6E446174613A203000000083
:10023000257300006B3231305F313A20300000000E
:100240006B3231305F323A2030000000704700BF1F
:10025000FEE700BFFEE700BFFEE700BFFEE7704716
:1002600070477047704700000CB500200190009067
:100270007648006840F480307449086000BF7348D5
:10028000006800F4003000900198401C0190009834
:1002900018B90198B0F5A04FF1D16C48006800F48E
:1002A000003010B10120009001E000200090009883
:1002B000012846D165484030006840F080506349CD
:1002C000403108606248006840F44040604908607E
:1002D0005E48083000685D490831086008460068DB
:1002E00040F4004008600846006840F4A0500860F0
:1002F0005848091F0860081F006840F08070091FF7
:10030000086000BF5148006800F000700028F9D074
:1003100040F20570504908604C480830006820F0F1
:1003200003004A49083108600846006840F00200AE
:10033000086000BF45480830006800F00C0008283D
:10034000F8D10CBD10B54548006840F47000434931
:1003500008603E48006840F001003C490860002009
:100360003A4908310860394800683D490840374932
:1003700008603C48091D0860081F006820F48020C0
:10038000091F0860002031490C310860FFF76CFF3D
:100390004FF0006031498039086010BD70B5002011
:1003A0000022022300240221284D08352D6805F083
:1003B0000C0020B1042806D0082834D107E02A4DCB
:1003C0002A4E356033E02A4D284E35602FE01F4D10
:1003D0002D1D2D68C5F380541C4D2D1D2D6805F075
:1003E0003F0154B1224DB5FBF1F5184E361D36686C
:1003F000C6F3881605FB06F209E01B4DB5FBF1F5C7
:10040000124E361D3668C6F3881605FB06F20F4DF0
:100410002D1D2D68C5F301456D1C6B00B2FBF3F576
:10042000124E356003E0104D104E356000BF00BF26
:10043000064D08352D68C5F303150E4E705D0B4D46
:100440002D68C540094E356070BD0000003802407F
:100450000070004008544007003C024088ED00E076
:10046000FFFFF6FE103000240024F40008000020F6
:1004700000127A000C00002010B504466FF0040052
:1004800002F032FEE11704EB5171C1F3C701394AA2
:1004900011701046007800EB4001C1EBC0104FF620
:1004A000FF7101EAC0003449088010BD0146314A9D
:1004B00012784A434FF0E0235A6100229A611A46AB
:1004C000126942F001021A6100BF4FF0E022106988
:1004D00000F001021AB100F48032002AF5D04FF08A
:1004E000E022126922F001024FF0E0231A6100229B
:1004F0009A6170470146204A12884A434FF0E02330
:100500005A6100229A611A46126942F001021A6188
:1005100000BF4FF0E022106900F001021AB100F4B0
:100520008032002AF5D04FF0E022126922F0010259
:100530004FF0E0231A6100229A61704770B50446BB
:100540004FF4077094FBF0F0C6B24FF4077094FBC1
:10055000F0F100FB114085B205E04FF40770FFF7A2
:10056000C9FF701EC6B2002EF7D115B12846FFF79D
:10057000C1FF70BD1C0000201E00002010B588B017
:1005800004460121084603F079F90121102003F007
:10059000CFF907220921474802F05DFF07220A210F
:1005A000444802F058FF4FF4C060069002208DF8D6
:1005B0001C008DF81D0000208DF81E0001208DF814
:1005C0001F0006A93B4802F0BBFE02940020ADF8D4
:1005D0000C00ADF80E00ADF81000ADF814000C20C2
:1005E000ADF8120002A9344804F09FF90121324805
:1005F00004F023FA012240F225512F4804F0D3FAE7
:10060000012240F224412C4804F0CDFA25208DF837
:10061000040001208DF8050000208DF8060001205F
:100620008DF8070001A802F012FD08B010BD70B5EA
:10063000002540F22551204804F0F0FA50B11E4840
:100640008088C4B21D4801780078401C1B4A107095
:100650001B48445440F22531174804F0DFFA20B11A
:1006600040F22531144804F0D0FA40F224411248F7
:1006700004F0D4FA80B110480088C5B20E488088D2
:10068000C5B20E480078401E0D49087001200B4984
:1006900008700B4802F054FB70BD00BF704700BFEC
:1006A000054A128802F04002002AF9D0C2B2024B79
:1006B0009A80704700000240001001402400002092
:1006C0005C02002000B585B00121112003F0D6F8AE
:1006D0000121880303F02CF90C20009000208DF8F4
:1006E000040003208DF8050001208DF807006946FD
:1006F0002B4802F025FE0221042003F024FA0321F6
:10070000042003F020FA0C20029000208DF80C0049
:100710000C208DF80D0001208DF80E0002A802F0CB
:100720000FFD08208DF8100001208DF81100022027
:100730008DF8120001208DF8130004A802F087FC48
:1007400009208DF8100001208DF811008DF812009D
:100750008DF8130004A802F07AFC05B000BD10B5B6
:10076000042002F053FD012805D1042002F059FDB8
:10077000C820FFF7E3FE10BD10B5082002F046FDCB
:1007800001280BD1082002F04CFD0648006880F4D7
:10079000806004490860C820FFF7D0FE10BD00004B
:1007A000001002401414024030B58BB004460D46D0
:1007B0000121080403F0BCF80121102003F05EF8C9
:1007C000032205215D4802F046FE20200990022008
:1007D0008DF8280003208DF8290000208DF82A00CC
:1007E00002208DF82B0009A9544802F0A9FDA8B2F7
:1007F000ADF818000020ADF81A000794ADF82000FD
:1008000006A94F4803F085FA7020ADF804000120D6
:10081000ADF806000220ADF8100001A9484803F029
:100820000DFB0821464803F096FC0121444803F0E3
:10083000DBFA0121424803F0F5FA0BB030BD7FB579
:1008400004460D460121102003F061F8A8B2ADF86E
:1008500004000020ADF806000294ADF80C0001A9D8
:10086000384803F056FA01221146364803F0F2FEEA
:100870000121344803F0D6FA36208DF8000000201C
:100880008DF801008DF8020001208DF80300684604
:1008900002F0DDFB7FBD10B501212A4803F0F1FE17
:1008A00001281ED10121274803F0FCFE2648D0E98B
:1008B0000020521C40F100002349C1E900202348D8
:1008C0000068002804DD21480068401E1F490860B8
:1008D0001F480068002804DD1D480068401E1C49B0
:1008E000086010BD7FB504460D460121202003F0AD
:1008F0000EF8A8B2ADF804000020ADF8060002948E
:10090000ADF80C0001A9134803F003FA01221146C7
:10091000104803F09FFE01210E4803F083FA3720B0
:100920008DF8000002208DF8010001208DF80200F2
:100930008DF80300684602F08AFB7FBD001002407C
:10094000004001400010004000000020280100206D
:10095000A00100200014004030B589B004460D46C7
:100960000121082002F0D3FF0121084602F086FF92
:100970000320079002208DF8200003208DF821002D
:1009800000208DF8220002208DF8230007A9A64838
:1009900002F0D6FCC020079001208DF82000032033
:1009A0008DF8210000208DF822008DF8230007A982
:1009B0009D4802F0C5FC022200219B4802F04BFD3D
:1009C00002220121984802F046FDADF810500020A7
:1009D000ADF812000594ADF8180004A9934803F08F
:1009E00098F90020ADF80000ADF802000120ADF844
:1009F00004000020ADF80600ADF8080069468B48F9
:100A000003F05EFD0420ADF800000020ADF8020008
:100A10000120ADF804000020ADF80600ADF8080094
:100A20006946824803F04CFD012203217F4803F010
:100A300011FE012204217D4803F00CFE01217B48B8
:100A400003F0F0F932208DF80C0000208DF80D0035
:100A50008DF80E0001208DF80F0003A802F0F7FAC0
:100A600009B030BD00B593B00121704803F009FE14
:100A7000012828D101216D4803F014FE6C4800685C
:100A8000401C6B490860084600686A49884202D1E8
:100A90000020674908606848007818B90020674955
:100AA000086004E065480068401C644908606448C8
:100AB000007818B900206349086004E061480068C4
:100AC000401C604908600221584803F0DAFD012803
:100AD00058D10221554803F0D1FD0221534803F0BB
:100AE000E1FD5548007898B95748006880F40070D7
:100AF000554908600120504908704C4803F05EFDDC
:100B000040B2524908700221484803F0A6FB39E080
:100B10004D48006880F400704B4908600020464949
:100B20000870424803F04AFD48490978401A40B22B
:100B3000464908702C22464908A804F0ABF93F4802
:100B4000006800EB8000414991F9001001EB400082
:100B50004FF4AA71484342F21071B0FBF1F00990D2
:100B60003A4890F900001C220CA90A90684604F04B
:100B700091F908A80FC801F05BFE00212B4803F093
:100B80006CFB00BF0421294803F07BFD012849D1FB
:100B90000421264803F072FD2948007868B9012035
:100BA00027490870214803F00CFD40B2294908701C
:100BB00002211E4803F063FB34E000202049087046
:100BC0001A4803F0FEFC23490978401A40B2214933
:100BD00008702C221E492C3108A804F05BF9194832
:100BE000006800EB80001B4991F9001001EB400008
:100BF0004FF4AA71484342F21071B0FBF1F0099032
:100C0000144890F900001C220CA90A90684604F0D0
:100C100041F908A80FC801F00BFE0021034803F0BA
:100C20002EFB00BF13B000BD00000240000C0040CE
:100C300028000020A08601002D00002030000020A8
:100C40003500002038000020141402402C00002041
:100C5000C85A0008340000201CB50121102002F001
:100C60000DFE0320009001208DF8040003208DF874
:100C7000050000208DF806008DF8070069468948B8
:100C800002F05EFB1CBD10B58648006820F00C0029
:100C9000844908600846006840F0040008600120AC
:100CA000814908608149C1F880020420FFF7FEFBFA
:100CB00000207D4908600420FFF7F8FB00207B49F5
:100CC000C1F8800210BD10B57648006820F00C0015
:100CD000744908600846006840F00400086000207D
:100CE0007149091F08607149C1F884020420FFF7A7
:100CF000DDFB01206C49091F08606C49C1F88402C2
:100D00000420FFF7D3FB10BD10B500246548006830
:100D100020F00C0063490860084600680860012064
:100D200061490860FFF7C2FB01206049C1F88002F9
:100D3000FFF7BCFB07E0601CC4B2FA2C03DDFFF731
:100D4000C2FF012010BD5848803800680028F2D149
:100D50005549091F086000BFF4E710B5002052494B
:100D6000091F08604F48006820F00C004D490860DA
:100D70000846006840F00400086000204B49C1F8B4
:100D800084020220FFF792FB01204749091F0860F7
:100D90000220FFF78BFB00204449C1F8800210BD00
:100DA00010B500204049091F08603E48006820F047
:100DB0000C003C4908600846006840F004000860E8
:100DC00001203A49C1F884020220FFF76FFB01209D
:100DD0003549091F08600220FFF768FB00203349EE
:100DE000C1F8800210BD70B504462E48006820F09E
:100DF0000C002C4908600846006840F004000860B8
:100E000000202949091F0860002517E0E00926494C
:100E100008606006040E0220FFF748FB012023490A
:100E2000C1F880020220FFF741FB00201E49091F84
:100E300008600220FFF73AFB681CC5B2082DE5DB0D
:100E400070BD70B5054600241648006820F00C00FF
:100E500014490860084600680860002617E0002072
:100E60001149091F08600220FFF720FB01200F49EC
:100E7000C1F880026006040E0B488038006808B193
:100E8000601CC4B20120FFF711FB701CC6B2082E13
:100E9000E5DB15B9FFF784FF01E0FFF75EFF2046B1
:100EA00070BD000000100240840242420000424235
:100EB00010B50446FFF7E7FE7820FFF794FFFFF731
:100EC00023FF0020FFF78FFFFFF71EFF2046FFF7ED
:100ED0008AFFFFF719FFFFF7F6FE10BD10B50446B5
:100EE000FFF7D1FE7820FFF77EFFFFF70DFF4020D0
:100EF000FFF779FFFFF708FF2046FFF774FFFFF7C2
:100F000003FFFFF7E0FE10BD70B504460D461DB1AE
:100F1000E0B2FFF7E3FF02E0E0B2FFF7C9FF70BD08
:100F200070B5002418E004F1B0000021FFF7ECFFD9
:100F300000210846FFF7E8FF00211020FFF7E4FF3B
:100F4000002505E001210020FFF7DEFF681CC5B287
:100F5000802DF7DB601CC4B2082CE4DB70BD10B53B
:100F6000FFF77AFEC820FFF7E9FA0021AE20FFF76D
:100F7000CBFF00210846FFF7C7FF00211020FFF735
:100F8000C3FF00214020FFF7BFFF0021B020FFF783
:100F9000BBFF00218120FFF7B7FF00210820FFF7EA
:100FA000B3FF0021A120FFF7AFFF0021A620FFF72C
:100FB000ABFF0021A820FFF7A7FF00213F20FFF78C
:100FC000A3FF0021C820FFF79FFF0021D320FFF7D8
:100FD0009BFF00210846FFF797FF0021D520FFF770
:100FE00093FF00218020FFF78FFF0021D820FFF71B
:100FF0008BFF00210520FFF787FF0021D920FFF795
:1010000083FF0021F120FFF77FFF0021DA20FFF7A7
:101010007BFF00211220FFF777FF0021DB20FFF785
:1010200073FF00213020FFF76FFF00218D20FFF7B5
:101030006BFF00211420FFF767FF0021AF20FFF7AF
:1010400063FFFFF76DFF10BD70B50646002418E082
:1010500004F1B0000021FFF757FF00210846FFF719
:1010600053FF00211020FFF74FFF002505E001216D
:101070003046FFF749FF681CC5B2802DF7DB601CC6
:10108000C4B2082CE4DB70BD70B504460D4605F112
:10109000B0000021FFF738FF102141EA14100021B1
:1010A000FFF732FF04F00F000021FFF72DFF70BDA6
:1010B00010B500218D20FFF727FF00211420FFF736
:1010C00023FF0021AF20FFF71FFF10BD10B5002147
:1010D0008D20FFF719FF00211020FFF715FF0021D9
:1010E000AE20FFF711FF10BD70B5002418E004F129
:1010F000B0000021FFF708FF00210846FFF704FFBA
:1011000000211020FFF700FF002505E0012108461F
:10111000FFF7FAFE681CC5B2802DF7DB601CC4B275
:10112000082CE4DB70BD2DE9F04707460E469046DB
:10113000994600250024A8F12000C5B27F2F02DDCA
:101140000027B01CC6B2B9F1100F24D13146384681
:10115000FFF79AFF002408E004EB0511844A505C75
:101160000121FFF7D1FE601CC4B2082CF4DB701C17
:10117000C1B23846FFF788FF002409E004EB0511EF
:1011800008317B4A505C0121FFF7BEFE601CC4B2EF
:10119000082CF3DB12E031463846FFF775FF0024D8
:1011A0000AE005EB4501734A02EB4101085D0121AC
:1011B000FFF7AAFE601CC4B2062CF2DBBDE8F08784
:1011C00010B50246012000E050430B1EA1F10104BE
:1011D000E1B2F9D110BD2DE9FF5F074691461E46E9
:1011E0000E9D4FF0000A002435E0301B401EC1B2B6
:1011F0000A20FFF7E5FFB9FBF0F00A21B0FBF1F29E
:1012000001FB1208BAF1000F14D1701EA04211DDCB
:10121000B8F1000F0CD1AB4605EBDB71491001FBB7
:101220000471C8B22B4620220199FFF77CFF10E021
:101230004FF0010AAB4605EBDB71491001FB04716D
:10124000C8B208F13001CAB22B460199FFF76BFF13
:1012500000BF601CC4B2B442C7DBBDE8FF9F2DE9EC
:10126000F04104460F461546984600260FE0AA5D59
:10127000434639462046FFF756FF04F10800C4B242
:10128000782C02DD0024B81CC7B2701CC6B2A85D61
:101290000028ECD1BDE8F0812DE9F04180460E46F2
:1012A0001546002731464046FFF7EEFE00240AE0CF
:1012B000314A02EB8511085D0121FFF725FE781CFC
:1012C000C7B2601CC4B2102CF2DB701CC1B2404625
:1012D000FFF7DAFE00240CE06900491C264A02EB05
:1012E0004111085D0121FFF70FFE781CC7B2601C99
:1012F000C4B2102CF0DBBDE8F0812DE9F05F0646AA
:101300000F4690461C46DDF828A04FF0000BE11771
:1013100004EB5171C910A4EBC10131B92046E117AA
:1013200004EB5171C1F3C70506E02046E11704EB59
:101330005171C910491CCDB23D4615E029463046D1
:10134000FFF7A2FEB1460BE059460BF1010B1AF86C
:1013500001000121FFF7D8FD09F1010000F0FF09AC
:10136000C145F1DB681CC5B2A542E7DBBDE8F09FD3
:10137000485D0008205B00083C00002000B587B0F5
:101380000121084602F07AFA0121480402F0BFFA6E
:1013900007220221954802F05EF8072203219348B4
:1013A00002F059F80C20059002208DF818008DF8F5
:1013B000190000208DF81A0001208DF81B0005A9E6
:1013C0008A4801F0BDFF4FF4E13001900020ADF8F4
:1013D0000800ADF80A00ADF80C00ADF810000C20C4
:1013E000ADF80E0001A9824803F09FFA0121804860
:1013F00003F023FB012240F225517D4803F0D3FB8B
:10140000012240F224417A4803F0CDFB26208DF8DA
:10141000000001208DF801008DF802008DF8030016
:10142000684601F014FE07B000BD70B5002540F21B
:1014300025516F4803F0F2FB60B16D48001D008834
:10144000C4B26C4801780078401C6A4A10706A483F
:10145000445416E040F22441654803F0DFFB80B1BC
:1014600063480088C5B26248001D0088C5B2614863
:101470000078401E6049087001205E49087000F045
:10148000A9FF70BD017E0C2901D0012100E00021DF
:101490005A4A11808178C27841EA0221C1F30A01D7
:1014A000564A5180C178C910027941EA4211C1F30C
:1014B0000A01524A918001798911427941EA8201F7
:1014C000827941EA8221C1F30A014C4AD1808179B3
:1014D0004910C27941EAC211C1F30A01474A118198
:1014E000C1790911027A41EA0211C1F30A01434AA2
:1014F0005181017AC911427A41EA4201827A41EA74
:101500004221C1F30A013D4A9181817A8910C27A50
:1015100041EA8211C1F30A01384AD181C17A4911E5
:10152000027B41EAC201354A1182417B827B41EA5A
:101530000221C1F30A01314A5182817BC910C27B69
:1015400041EA4211C1F30A012C4A9182C17B8911FF
:10155000027C41EA8201427C41EA8221C1F30A0114
:10156000264AD182417C4910827C41EAC211C1F3F2
:101570000A01224A1183817C0911C27C41EA0211CD
:10158000C1F30A011D4A5183C17CC911027D41EAA0
:101590004201427D41EA4221C1F30A01174A918387
:1015A000417D8910827D41EA8211C1F30A01134A0B
:1015B000D183817D4911C27D41EAC2010F4A118464
:1015C0001146098801290CD11146C98849B1114633
:1015D000C98840F2A462914203D00121084A1170E7
:1015E00002E00021064A117070470000000002402E
:1015F00000440040FD000020C00200202403002021
:10160000FC00002000B585B00121084602F036F943
:101610004FF40040009000208DF8040003208DF866
:10162000050000208DF8060001208DF807006946AE
:10163000334801F085FE0121880302F079F90F217A
:10164000002002F080FA4FF40040029000208DF854
:101650000C000C208DF80D0001208DF80E0002A862
:1016600001F06EFD28208DF8100001208DF811008A
:1016700002208DF8120001208DF8130004A801F05B
:10168000E6FC05B000BD10B54FF4004001F0BEFD12
:10169000012833D1C00301F0C4FD1A48D0E900107D
:1016A000194A18CACA1A60EB0400C821511A70F10D
:1016B000000023DB1548006880F4005013490860DF
:1016C0001048D0E90010104AC2E900101048007814
:1016D00008B9012000E000200D4908700D4800788D
:1016E00008B9012000E000200A4908700A48007883
:1016F00008B9012000E000200749087010BD000073
:1017000000000240000000200001002014080240F8
:10171000EC0100201C0200201A02002010B52DED63
:10172000028B62480068A0B360480068A03808EEE9
:10173000100AB8EEC80A5E48D0ED000A20EE200A72
:10174000BDEEC00A5B4880ED000A00680A2802DD91
:101750000020584908605748006810F10A0F03DA62
:101760006FF00900534908605348006851490968FF
:10177000084452490860504800684E490968401AB8
:101780004F490860084601684C48006800F04AFB71
:1017900052E0FFE745480068002849D149480078F1
:1017A000032845DB48480078012809D1C820FEF706
:1017B000C5FE042000F065FE00F0B2F800BFFEE7B1
:1017C000C820FEF7BBFE012000F05BFE00F0A8F889
:1017D0004FF47A70FEF7B2FE0BE03C480068012837
:1017E00004D14FF4FA70FEF7A9FE03E03220FEF7B1
:1017F000A5FEF2E700BF022000F043FE6FF00E01ED
:101800000F2000F00FFB4FF41670FEF797FE00F06C
:1018100087F82D48007818B901202B4908700BE093
:1018200029480078012807D100F07AF800BFFEE7C8
:101830001E21084600F0F6FABDEC028B10BD10B573
:101840000121234802F01DFF01282ED1012120484B
:1018500002F028FF1F480068322808DB00201D49DD
:1018600008601D48006880F400501B490860194852
:101870000068401C174908601848007808B900F053
:1018800031F81648007808B9012000E0002013491B
:10189000087013480068052802DB00201049086022
:1018A0000F480068401C0E49086010BDAC030020C2
:1018B0001C010020180100202C0100203001002014
:1018C000340100204E010020850100201402404216
:1018D000001400403801002014080240400100209C
:1018E0003C0100207D480068A0F5EA4030387C4982
:1018F000086047F23050794908607A48006847F23A
:101900003051081A7849086047F23050754908602C
:1019100070470146002901DD084670474842FCE750
:1019200010B50020714908607149C1F8A0026F49E3
:1019300008310860091D0860091D0860091D08605C
:10194000091D0860091D0860091D0860002169481B
:1019500002F0CDFB0021674802F0CBFB0021654877
:1019600002F0C9FB0021634802F0C7FB10BD012053
:101970005E4908605E49C1F8A00200205B49083159
:1019800008600120091D08600020091D0860012071
:10199000091D08600020091D08600120091D08605C
:1019A0000020091D08607047012050490860002090
:1019B0004F49C1F8A00201204C49083108600020BD
:1019C000091D08600120091D08600020091D08602C
:1019D0000120091D08600020091D08600120091D63
:1019E0000860704701204149086000204049C1F863
:1019F000A00201203D4908310860091D086000204F
:101A0000091D0860091D08600120091D0860091DE5
:101A100008600020091D08607047012033490860F4
:101A20003349C1F8A0020020304908310860091D7F
:101A300008600120091D0860091D08600020091DBB
:101A40000860091D08600120091D0860704770B515
:101A500005460C46002D04DD002C02DDFFF7DDFFFE
:101A600016E0002D04DA002C02DAFFF7BBFF0FE0CE
:101A7000002D04DA002C02DDFFF796FF08E0002DB0
:101A800004DD002C02DAFFF772FF01E0FFF748FFE8
:101A90002846FFF73EFF06463146164802F02BFB6C
:101AA0002046FFF736FF06463146124802F025FB76
:101AB00070BD10B54FF4FA714842FFF7C8FF4FF4FC
:101AC000FA70FEF73BFD10BD10B50B494842FFF719
:101AD000BEFF4FF4FA70FEF731FD10BD2408004040
:101AE00044010020240C0040480100209C02424296
:101AF00000004242000401400CFEFFFF704770B539
:101B0000002540F225516A4803F088F860B1684822
:101B1000001D0088C4B2674801780078401C654AFF
:101B200010706548445416E040F22441604803F0C8
:101B300075F880B15E480088C5B25D48001D008818
:101B4000C5B25C480078401E5B49087001205949C5
:101B50000870FFF7D3FF70BD58480068012803D014
:101B600056480068022806D1012055490870D22045
:101B70005449086005E0012051490870D2205149BC
:101B80000860704770B5002540F225514E4803F0BB
:101B900045F860B14C48001D0088C4B24B4801783C
:101BA0000078401C494A1070494844547EE040F295
:101BB0002441454803F032F8002877D04248008895
:101BC000C5B24148001D0088C5B240480078401E9B
:101BD0003F49087001203D4908703D4800780B28B6
:101BE0005FD13B484078AA285BD139488078FF28EC
:101BF00057D1374800793649C97849B240EA0120BF
:101C000034490860324880793149497949B240EA1B
:101C100001203049C8612E48007A2D49C97949B25E
:101C200040EA01202B4948622948407A2A49087035
:101C300028480068B0F5A07F03DC2648006800282B
:101C400002DAA020234908601D480078A8B923487B
:101C5000006890B91F48C069782805DD20480078E1
:101C6000401C1F49087002E000201D4908701C48F4
:101C70000078082801DBFFF76FFF1648406A7828D4
:101C800005DD18480078401C1649087002E0002065
:101C90001449087013480078082807DBFFF75CFF39
:101CA00004E000200E4908700E49087070BD000065
:101CB000004800404F010020480300200C01002094
:101CC0002001002028010020004C0040500100208D
:101CD000D4030020AC0300204E010020A00100200E
:101CE0004C0100204D010020B0EE401A30EEC10A38
:101CF0008E4880ED020A90ED080AD0ED021A30EE0F
:101D0000210A80ED080A90ED020AD0ED031A30EEA8
:101D1000610A80ED040A90ED050AD0ED021A20EE6A
:101D2000210AD0ED061A90ED082A01EE820AD0EDC4
:101D3000071A90ED042A01EE820A80ED090A90ED5F
:101D4000020A80ED030A90ED090AD0ED0C1AB4EEF8
:101D5000E10AF1EE10FA04DB90ED0C0A80ED090ABD
:101D60000DE0724890ED090AD0ED0D1AB4EEE10ACB
:101D7000F1EE10FA03D890ED0D0A80ED090A6B48D8
:101D800090ED090A7047B0EE401A30EEC10A68487B
:101D900080ED020A90ED080AD0ED021A30EE210A19
:101DA00080ED080A90ED020AD0ED031A30EE610AC8
:101DB00080ED040A90ED050AD0ED021A20EE210A0A
:101DC000D0ED061A90ED082A01EE820AD0ED071A2E
:101DD00090ED042A01EE820A80ED090A90ED020AD4
:101DE00080ED030A90ED090AD0ED0C1AB4EEE10A79
:101DF000F1EE10FA04DB90ED0C0A80ED090A0DE01B
:101E00004B4890ED090AD0ED0D1AB4EEE10AF1EE5F
:101E100010FA03D890ED0D0A80ED090A444890EDC0
:101E2000090A704770B504460D46502C01DD502458
:101E300004E014F1500F01DA6FF04F04502D01DD72
:101E4000502504E015F1500F01DA6FF04F0500EE58
:101E5000104AF8EEC00A374890ED000AB8EEC00A02
:101E6000FFF791FF00EE105AF8EEC00A324890EDED
:101E7000000AB8EEC00AFFF737FF2C4A92ED090AB4
:101E8000BDEEC00A10EE101A294A92ED090ABDEE05
:101E9000C00A10EE100AFFF7DAFD70BDB3EE0A0AB1
:101EA000234880ED050A9FED250A80ED060AB7EE6E
:101EB000000A80ED070A9FED220A80ED0A0A9FEDD5
:101EC000210A80ED0B0A9FED200A80ED0C0A9FEDA0
:101ED0001F0A80ED0D0A90ED050A144880ED050AF1
:101EE000134890ED060A114880ED060A104890ED5F
:101EF000070A0E4880ED070A0D4890ED0A0A0B48C4
:101F000080ED0A0A0A4890ED0B0A084880ED0B0A9A
:101F1000074890ED0C0A054880ED0C0A044890ED46
:101F20000D0A024880ED0D0A704700007004002081
:101F30003804002044010020480100200000000077
:101F400000007A4400007AC400004844000048C4FD
:101F5000F84800780B287DD1F6484078AA28FAD1B5
:101F6000F4488078FF28F6D1F248C07ACC28F2D124
:101F7000F048C078F0494870EE4800798870ED4824
:101F80004079C870EB4880790871EA48C079487197
:101F9000E848007A8871E748407AC871E548807A55
:101FA0000872E6480078012855D1E54908704CE0F0
:101FB000E1484078012804D1E2484068401CE149EA
:101FC0004860DD488078012804D1DE488068401CE4
:101FD000DC498860D848C078012804D1D948C06855
:101FE000401CD849C860D4480079012804D1D5489C
:101FF0000069401CD3490861CF484079012804D1C9
:10200000D0484069401CCF494861CB4880790128BD
:1020100004D1CC488069401CCA498861C648C0794F
:10202000012804D1C748C069401CC649C861C248DC
:10203000007A012804D1C348006A401CC1490862E3
:10204000BF480078401CBE490870BD480078082889
:10205000AEDD1CE013E00120B94908700AE0002061
:10206000B849B74A127841F82200B5480078401CB8
:10207000B3490870B24800780828F0DD07E0002076
:1020800003E00021AC4A1154401C0A28F9DB7047D8
:1020900070B5002540F22551AB4802F0BFFD60B19C
:1020A000A948001D0088C4B2A84801780078401CE7
:1020B000A64A10709F4844541BE040F22441A248B5
:1020C00002F0ACFDA8B1A0480088C5B29E48001D32
:1020D0000088C5B29D480078401E964908700120CE
:1020E0009A4908709A480068401C99490860FFF7AF
:1020F0002FFF70BD974800780B287DD19548407818
:10210000AA28FAD193488078FF28F6D19148C07A5E
:10211000CC28F2D18F48C0788F4948708D4800791B
:1021200088708C484079C8708A48807908718948DD
:10213000C07948718748007A88718648407AC871AA
:102140008448807A08727D480078012855D18349F7
:1021500008704CE080484078012804D180484068ED
:10216000401C7F4948607C488078012804D17C4825
:102170008068401C7A4988607748C078012804D17B
:102180007748C068401C7649C860734800790128C8
:1021900004D173480069401C714908616E48407958
:1021A000012804D16E484069401C6D4948616A4865
:1021B0008079012804D16A488069401C6849886197
:1021C0006548C079012804D16548C069401C64494C
:1021D000C8616148007A012804D16148006A401C46
:1021E0005F4908625D480078401C5C4908705B48A4
:1021F00000780828AEDD1CE013E001205749087084
:102200000AE000205649554A127841F82200534806
:102210000078401C51490870504800780828F0DDCB
:1022200007E0002003E000214B4A1154401C0A281B
:10223000F9DB704770B5002540F22551494802F09E
:10224000EDFC58B147488088C4B24748017800780F
:10225000401C454A10703F4844541AE040F2244163
:10226000404802F0DBFCA0B13E480088C5B23D48C2
:102270008088C5B23C480078401E3649087001206D
:102280003949087039480068401C38490860FFF730
:1022900031FF70BD024600200021012A0CD101212E
:1022A00007E02F4B53F82130834200DD08464B1CDA
:1022B000D9B20829F5DD0DE0022A0BD1012107E092
:1022C000204B53F82130834200DD08464B1CD9B225
:1022D0000829F5DD704770B503460024002500216C
:1022E0000022012B21D100BF14E01D4E56F82060C2
:1022F0008E4205DD0A461A4E56F82010C4B208E098
:10230000174E56F82060964203DD154E56F82020F1
:10231000C5B2401C0828E8DD154E3470154E3570E6
:10232000154E3160154E326049E0022B47D1012035
:102330003BE00000A80400207A0500208001002076
:1023400084010020A8050020001401408101002024
:10235000580100200C05002070050020830100209A
:10236000840500200050004082010020540100201C
:1023700064010020650100206C0100207001002034
:102380000F4E56F820608E4205DD0A460C4E56F878
:102390002010C4B208E00A4E56F82060964203DDD1
:1023A000074E56F82020C5B2401C0828E8DD054E2F
:1023B0003470054E3570054E3160054E326070BD8B
:1023C000A80500206601002067010020740100209C
:1023D00078010020704770B505460E4600240CE0D9
:1023E000295D074802F054FB00BF8021044802F039
:1023F000FFFB0128F9D1601CC4B2B442F0DB70BD10
:10240000004400401CB50121022001F037FA4FF4CE
:102410006040009001208DF8040000208DF8060037
:1024200003208DF8050000208DF8070069464C4810
:1024300000F086FF4FF40051494800F0FDFF4FF4D3
:102440008041474800F0F8FF4FF40041444800F055
:10245000F3FF1CBD1CB50121102001F00FFA0C2068
:10246000009000208DF804008DF8060002208DF801
:10247000050001208DF807006946394800F060FF2B
:102480001CBD09285FD2DFE800F05E051A30241079
:102490003B4753000121334A11600021324AC2F800
:1024A000BC12304A121F116057E001212D4A116001
:1024B0002D4AC2F8BC122B4A121F11604DE00021B8
:1024C000284A1160284AC2F8BC12264A121F11601D
:1024D00043E00021234A11600121234AC2F8BC12C3
:1024E0000021204A121F116037E001211D4A1160AE
:1024F0001D4AC2F8BC1200211A4A121F11602CE0BA
:102500000021184A11600121174AC2F8BC120021AB
:10251000144A121F116020E00121124A11600021AB
:10252000114AC2F8BC1201210E4A121F116014E0B8
:1025300000210C4A116001210B4AC2F8BC12094A61
:10254000121F116009E00021064A1160064AC2F814
:10255000BC12044A121F116000BF00BF7047000088
:1025600000040240B88240420080404270B50546F7
:102570000E4600240CE0295DF94802F089FA00BFFC
:102580008021F74802F034FB0128F9D1601CC4B265
:10259000B442F0DB70BD2DE9FF4106460024002562
:1025A0000027AA222146641CEE484254FF222146FD
:1025B000641C425406F1F000C2B22146641CE94892
:1025C000425400222146641C42549DF804202146B6
:1025D000641C42549DF805202146641C42549DF819
:1025E00006202146641C42549DF807202046611CA9
:1025F000CCB2DC490A549DF808202046611CCCB2BC
:10260000D8490A549DF809202046611CCCB2D5490E
:102610000A549DF80A202046611CCCB2D1490A54C4
:102620009DF80B202146601CC4B2CE4842549DF850
:102630000C202046611CCCB2CA490A549DF80D20DA
:102640002046611CCCB2C7490A549DF80E20204692
:10265000611CCCB2C3490A549DF80F202046611C6E
:10266000CCB2C0490A549DF828202046611CCCB247
:10267000BC490A549DF829202046611CCCB2B949B6
:102680000A549DF82A202046611CCCB2B5490A5450
:102690009DF82B202046611CCCB2B2490A549DF80B
:1026A0002C202146601CC4B2AE4842549DF82D2017
:1026B0002046611CCCB2AB490A549DF82E2020461E
:1026C000611CCCB2A7490A549DF82F202146601CFA
:1026D000C4B2A44842549DF830202046611CCCB2BC
:1026E000A0490A549DF831202046611CCCB29D4976
:1026F0000A549DF832202046611CCCB299490A54F4
:102700009DF833202046611CCCB296490A549DF8AE
:1027100034202046611CCCB292490A549DF83520E1
:102720002046611CCCB28F490A549DF836202146C0
:10273000601CC4B28B4842549DF837202046611C6F
:10274000CCB288490A549DF838202046611CCCB28E
:1027500084490A549DF839202046611CCCB2814935
:102760000A549DF83A202046611CCCB27D490A5497
:102770009DF83B202046611CCCB27A490A549DF852
:102780003C202046611CCCB276490A549DF83D207D
:102790002046611CCCB273490A549DF83E20204665
:1027A000611CCCB26F490A549DF83F202046611C41
:1027B000CCB26C490A549DF840202046611CCCB232
:1027C00068490A549DF841202046611CCCB26549F5
:1027D0000A549DF842202146601CC4B2614842540C
:1027E0009DF843202046611CCCB25E490A54201F4C
:1027F000C870002007E05B49095C2944CDB2791913
:10280000CFB2411CC8B25749C978091D8142F2DCD8
:102810002046611CCCB253490D542046611CCCB2F9
:1028200050490F5421464F48FFF7A0FEBDE8FF81F5
:102830000FB42DE9F04F8BB09DF8500010B19DF80A
:10284000500000E001200446159808B1159800E0FA
:1028500000200546169808B1169800E000200646AC
:10286000179808B1179800E000200A90189808B14E
:10287000189800E000200990199808B1199800E014
:10288000002007461A9808B11A9800E000208046F8
:102890001B9808B11B9800E0002081461C9808B1E5
:1028A0001C9800E0002082461D9808B11D9800E0A9
:1028B000002008901E9808B11E9800E00020834672
:1028C0000898CDE9050BCDE9039A09988DE88101B7
:1028D0003246294620460A9BFFF75DFE0BB0BDE855
:1028E000F00F5DF814FB73B5002400250026AA2222
:1028F0002146641C1B484254AF222146641C4254AA
:10290000E2222146641C425400222146641C4254A7
:102910009DF800202146641C42549DF80120214668
:10292000641C42549DF804202146641C42549DF8C6
:1029300005202146601CC4B20A4842549DF8062076
:102940002146601CC4B2074842549DF80720204627
:10295000611CCCB203490A54201FC87000200BE050
:1029600000100140CC050020F449095C2944CDB297
:102970007119CEB2411CC8B2F049C978091D814213
:10298000F2DC2046611CCCB2EC490D542046611C9F
:10299000CCB2EA490E542146E848FFF7E7FD7CBD7A
:1029A0002DE9F04706460F46904600240025A14633
:1029B000AA222146641CE1484254AF222146641CED
:1029C000425400222146641C42542146641C425455
:1029D0002146641C46542146641C47542146641C0D
:1029E00000F80180201FD549C870002009E0D349B4
:1029F000095C2944CDB209EB050101F0FF09411C36
:102A0000C8B2CE49C978091D8142F0DC2046611C5C
:102A1000CCB2CA490D542046611CCCB2C74901F85A
:102A200000902146C548FFF7A1FDBDE8F0872DE9DC
:102A3000FF410A9F002400250026AA222146641C8B
:102A4000BE484254FF222146641C425404222146BF
:102A5000641C425409222146641C42549DF8002003
:102A60002146641C42549DF801202146641C4254B6
:102A70009DF804202146641C42549DF805202146FF
:102A8000601CC4B2AD4842549DF808202046611C29
:102A9000CCB2AA490A549DF809202046611CCCB248
:102AA000A6490A549DF80C202046611CCCB2A349CB
:102AB0000A549DF80D202046611CCCB29F490A544F
:102AC0002046611CCCB29D490F54002007E09B4971
:102AD000095C2944CDB27119CEB2411CC8B29749E4
:102AE000C978091D8142F2DC2046611CCCB29349B1
:102AF0000D542046611CCCB290490E5421468F489B
:102B0000FFF734FDBDE8FF812DE9FF41DDE90B78DA
:102B1000002400250026AA222146641C874842542E
:102B2000FF222146641C425402222146641C425466
:102B30000E222146641C42549DF800202146641C4C
:102B400042549DF801202146641C42549DF8042003
:102B50002146641C42549DF805202146601CC4B2E5
:102B6000764842549DF808202046611CCCB2734937
:102B70000A549DF809202146601CC4B26F48425493
:102B80009DF80C202046611CCCB26C490A549DF87B
:102B90000D202046611CCCB268490A549DF80E20D5
:102BA0002046611CCCB265490A549DF80F2020468E
:102BB000611CCCB261490A549DF828202046611C52
:102BC000CCB25E490A549DF829202146601CC4B24B
:102BD0005A4842542046611CCCB258490F542046F2
:102BE000611CCCB2554901F80080002007E0534930
:102BF000095C2944CDB27119CEB2411CC8B24F490B
:102C0000C978091D8142F2DC2046611CCCB24B49D7
:102C10000D542046611CCCB248490E542146474809
:102C2000FFF7A4FCBDE8FF812DE9FF410C9F0024C4
:102C300000250026AA222146641C40484254FF2257
:102C40002146641C425401222146641C42540D2238
:102C50002146641C42549DF800202146641C4254C5
:102C60009DF801202146641C42549DF80420214611
:102C7000641C42549DF805202146601CC4B22F48B4
:102C800042549DF808202146601CC4B22B4842548F
:102C90009DF809202046611CCCB228490A549DF8B1
:102CA0000C202146601CC4B2244842549DF80D20DB
:102CB0002046611CCCB221490A549DF828202046A8
:102CC000611CCCB21D490A549DF829202146601C84
:102CD000C4B21A4842549DF82C202046611CCCB244
:102CE00016490A549DF82D202146601CC4B2134891
:102CF00042542046611CCCB210490F54002007E01A
:102D00000E49095C2944CDB27119CEB2411CC8B23A
:102D10000A49C978091D8142F2DC2046611CCCB207
:102D200006490D542046611CCCB204490E5421467C
:102D30000248FFF71BFCBDE8FF810000CC05002026
:102D40002DE9F0412DED028B044600260027B04608
:102D50006078AA2877D1A078FF2802D0A07805282B
:102D6000F8D1012608E0A05D3844C7B208EB07009F
:102D700000F0FF08701CC6B22079401DB042F2DCA2
:102D80002079401D205CB84204D12079801D205C50
:102D9000404503D0BDEC028BBDE8F081E078E1282E
:102DA00047D1B4F805500D2D21D006DC012D0BD0F4
:102DB0000B2D0ED00C2D36D112E00E2D1ED00F2D66
:102DC00023D0102D2FD127E005212846FFF78BFDBA
:102DD0002EE08B48006801682846FFF784FD27E055
:102DE0008848006801682846FFF77DFD20E0864896
:102DF000006801682846FFF776FD19E083480068FF
:102E000001682846FFF76FFD12E0814800680168FD
:102E10002846FFF768FD0BE07E48006801682846F9
:102E2000FFF761FD04E029462846FFF75CFD00BF7F
:102E3000E4E0E078E228FBD1B4F80550A5F10B00FE
:102E400006282AD200E034E0DFE800F003090F157D
:102E50001B21D4F807006A49096808601EE0D4F80D
:102E6000070068490968086018E0D4F80700664957
:102E70000968086012E0D4F807006449096808602E
:102E80000CE0D4F8070062490968086006E0D4F84D
:102E9000070060490968086000E000BF00BF2379AF
:102EA0009B1DE25C23795B1DE15CE078FFF778FD18
:102EB000A4E06078672876D1E0783D2873D1A078C7
:102EC000312816D10021201D02F06EFCB0EE408AA0
:102ED000F0EE608A51EC180B02F060F84E49486041
:102EE0004E48007808B9012000E000204B490870E6
:102EF0007DE0A07832280ED10021201D02F054FC84
:102F0000B0EE408AF0EE608A51EC180B02F046F801
:102F1000414988606BE0A07833280ED10021201D44
:102F200002F042FCB0EE408AF0EE608A51EC180BE1
:102F300002F034F83849C86059E0A07834280ED13E
:102F40000021201D02F030FCB0EE408AF0EE608AD5
:102F500051EC180B02F022F82F49086147E0A078E5
:102F600035280ED10021201D02F01EFCB0EE408A53
:102F7000F0EE608A51EC180B02F010F82649486117
:102F800035E0A07836280FD10021201D02F00CFC7E
:102F9000B0EE408AF0EE608A51EC180B01F0FEFFB3
:102FA0001D49886123E029E0A07837280ED100214F
:102FB000201D02F0F9FBB0EE408AF0EE608A51EC81
:102FC000180B01F0EBFF1449C86110E0A078382815
:102FD0000DD10021201D02F0E7FBB0EE408AF0EE9B
:102FE000608A51EC180B01F0D9FF0B4908620020F0
:102FF00002E000212154401C0F28FADB00BFC9E683
:10300000C4010020C8010020CC010020D001002014
:10301000D4010020D801002064060020EC0100202B
:103020000648804706480047FEE7FEE7FEE7FEE762
:10303000FEE7FEE7FEE7FEE7FEE7FEE745030008E2
:103040008901000832490143324A1160704770B566
:10305000002100230F22C4781CB32E4C246804F4F2
:10306000E064C4F5E064C4F30721C1F10404E3B2F1
:103070000A4144789C40E1B28478144021430C0713
:10308000210E254C05786155047804F01F050124B4
:10309000AC4005786D11AD0005F1E025C5F80041A3
:1030A00009E0047804F01F050124AC401B4D0678AC
:1030B000761145F8264070BD194A0A400243154B67
:1030C0001B1F1A60704739B1124A121D1268024361
:1030D000104B1B1D1A6006E00E4A121D1268824337
:1030E0000C4B1B1D1A607047042808D14FF0E021DB
:1030F000096941F004014FF0E022116107E04FF04F
:10310000E021096921F004014FF0E02211617047CC
:103110000000FA050CED00E000E400E080E100E0D2
:1031200080FFFF1F002041490860091D0860091D3C
:103130000860091D08603E483C491431086070472A
:1031400000213A498279002A3AD00A461268036877
:103150009A430B461A600A1D126803689A430B1DB6
:103160001A60027911440A6803681A430A602F4AF8
:103170000832126803689A432C4B08331A601A1DF0
:10318000126803689A43294B0C331A604279102A5B
:103190000ED11A1F126803681A43244B08331A60B1
:1031A0001A1D126803681A43204B0C331A600DE095
:1031B0001E49427911440A6803681A430A6005E00F
:1031C000027911440A6803689A430A607047002133
:1031D000016001710C214171002181717047134917
:1031E000103109680143114A1032116070470146DD
:1031F00000200E4A143212680A400AB1012000E091
:1032000000207047094914310860704701460020CA
:10321000064A143212680A400AB1012000E0002078
:10322000704702491431086070470000003C0140BB
:10323000FFFF7F0010B504469848844208D1012161
:10324000084600F086FB0021012000F082FB76E0BA
:103250009348844208D10121022000F07AFB00212A
:10326000022000F076FB6AE08E48844208D10121FA
:10327000042000F06EFB0021042000F06AFB5EE0F9
:103280008948844208D10121082000F062FB002116
:10329000082000F05EFB52E08448844208D10121FE
:1032A000102000F056FB0021102000F052FB46E0F9
:1032B0007F48844208D10121202000F04AFB0021F0
:1032C000202000F046FB3AE07A48844208D10121F0
:1032D000402000F03EFB0021402000F03AFB2EE0B1
:1032E0007548844208D10121802000F032FB002182
:1032F000802000F02EFB22E07048844208D101219A
:10330000801500F026FB0021A01500F022FB16E03E
:103310006B48844208D10121401500F01AFB0021BE
:10332000601500F016FB0AE06648844207D10121CF
:10333000001500F00EFB0021201500F00AFB10BD67
:10334000F0B50A4600210023002400BF3DE001251E
:1033500005FA01F3156805EA03049C4234D10568B7
:103360004F000326BE40B543056015794E00B540B9
:103370000668354305601579012D02D01579022DB7
:1033800016D185684F000326BE40B5438560557948
:103390004E00B540866835438560456801268E40FD
:1033A000B5434560456896798E40B6B23543456071
:1033B000C5684F000326BE40B543C560D5794E00B1
:1033C000B540C6683543C560491C1029BFD3F0BD60
:1033D0004FF6FF7101600021017141718171C1716E
:1033E000704708B54FF480320092009A0A43009269
:1033F000009AC261C161009AC261C2690092C26949
:10340000009208BD0246002013690B400BB1012059
:1034100000E0002070470146086980B2704702460C
:10342000002053690B400BB1012000E000207047E1
:103430000146486980B270470183704741837047F5
:103440000AB1018300E041837047416170474269DE
:103450004A4042617047F0B5002300244D07ED0E4D
:1034600002FA05F3CE1000F1200555F826504E075C
:10347000F70E0F26BE40B543CF1000F1200646F8E8
:103480002750CE1000F1200555F8265045EA0304D8
:10349000CE1000F1200545F82640F0BD00000240A6
:1034A0000004024000080240000C024000100240EC
:1034B0000014024000180240001C0240002002409C
:1034C0000024024000280240F948006840F0010052
:1034D000F74908600020F64908310860F4480068A0
:1034E000F4490840F2490860F348091D0860F348B0
:1034F000EF4984310860F0481038091D0860EC4835
:10350000006820F48020EA4908600020E8490C3176
:103510000860E7498C31086070470021E44A921C3A
:10352000117011460870704710B501460022002343
:1035300000204A11012A02D1DD4C236808E0022A4A
:1035400003D1DB4C7034236802E0D94C7434236817
:1035500001F01F02012494401C400CB1012000E046
:10356000002010BD38B5002000900024002500BFC9
:103570003120FFF7D9FF05460098401C00900098C5
:10358000B0F5A04F01D0002DF2D03120FFF7CCFFD5
:1035900008B1012400E00024204638BD0146002087
:1035A000C34A106820F0F80040EAC100106070477C
:1035B000C349086070470021BD4A70321170117014
:1035C000012802D004280AD104E00121B84A70324F
:1035D000117005E00521B64A7032117000E000BF9D
:1035E00000BF7047B7490860704770B5049C41EA56
:1035F00082150126C6EB530645EA0645054345EA12
:103600000465AB4E361D356070BDAD490866704728
:10361000820142EA0172A64B84331A607047A849BE
:103620008866704710B5830143EA016343EA027379
:103630009F4C8834236010BDA14908677047A0499A
:10364000C864704702460020994B0833186820F080
:10365000EC6042EA01031843954B08331860704749
:1036600002460020924B0833186820F0784042EA66
:10367000010318438E4B0833186070470146002041
:103680008B4A0832106820F003000843106070472E
:1036900087480830006800F00C00704701460020A1
:1036A000834A0832106820F0F00008431060704729
:1036B000014600207E4A0832106820F4E05008439A
:1036C0001060704701460020794A0832106820F4E3
:1036D000604040EAC10010607047F0B50021002250
:1036E0000024022500260223714F08373F6807F0A7
:1036F0000C0121B1042905D0082937D105E0724F0A
:10370000076036E0714F076033E0694F3F1D3F6847
:10371000C7F38056664F3F1D3F6807F03F036EB109
:103720006A4FB7FBF3F7DFF888C10CF1040CDCF843
:1037300000C0CCF3881C07FB0CF40CE0624FB7FB15
:10374000F3F7DFF86CC10CF1040CDCF800C0CCF32B
:10375000881C07FB0CF4564F3F1D3F68C7F3014719
:103760007F1C7D00B4FBF5F7076002E0564F076051
:1037700000BF00BF4E4F08373F6807F0F00109094E
:10378000534F7A5C0768D7404760494F08373F6816
:1037900007F4E051890A4E4F7A5C4768D74087604A
:1037A000434F08373F6807F46041490B484F7A5C44
:1037B0004768D740C760F0BD002100F44072B2F501
:1037C000407F0AD13A4A0832116821F4F811414A7F
:1037D00002401143364A08321160354A703212688D
:1037E000C0F30B031A43324B70331A6070473549EC
:1037F000443908607047334940390860704736499A
:103800000860704701460020294A8C32106820F079
:103810001F004A1E1043264A8C3210607047014632
:103820000020234A8C32106820F4F8504A1E40EAE7
:1038300002201F4A8C3210607047014600201C4A4B
:103840008C32106820F44010084310607047014625
:103850000020174A8C32106820F4400008431060A2
:10386000704701460020124A8C32106820F4403024
:1038700008431060704719490860704739B10C4A15
:103880003032126802430A4B30331A6006E0084AAD
:10389000303212688243064B30331A607047F9B1F8
:1038A000034A343212680243014B34331A601CE07D
:1038B00000380240FFFFF6EA1030002400300020FC
:1038C00000004742800E47420024F40000127A00B4
:1038D000DC010020FFFCFF0F5C014742E011474282
:1038E0008F4A126882438E4B1A60704739B18C4AF6
:1038F000121D126802438A4B1B1D1A6006E0884A9B
:10390000121D12688243864B1B1D1A60704739B125
:10391000834A0C3212680243814B0C331A6006E072
:103920007F4A0C32126882437D4B0C331A60704719
:1039300039B17B4A103212680243794B10331A6056
:1039400006E0774A103212688243754B10331A60D2
:10395000704739B1724A243A12680243704B243BD3
:103960001A6006E06E4A243A126882436C4B243B8C
:103970001A60704739B16A4A203A12680243684BAC
:10398000203B1A6006E0664A203A12688243644B84
:10399000203B1A60704739B1614A1C3A12680243F1
:1039A0005F4B1C3B1A6006E05D4A1C3A126882437A
:1039B0005B4B1C3B1A60704739B1594A143A126884
:1039C0000243574B143B1A6006E0554A143A1268FA
:1039D0008243534B143B1A60704739B1504A103A36
:1039E000126802434E4B103B1A6006E04C4A103AF4
:1039F000126882434A4B103B1A60704739B1484AFB
:103A00001C3212680243464B1C331A6006E0444ADB
:103A10001C3212688243424B1C331A60704739B122
:103A20003F4A2032126802433D4B20331A6006E0C1
:103A30003B4A203212688243394B20331A60704768
:103A400039B1374A243212680243354B24331A60A5
:103A500006E0334A243212688243314B24331A6021
:103A6000704739B12E4A2C32126802432C4B2C334A
:103A70001A6006E02A4A2C3212688243284B2C3303
:103A80001A60704739B1264A303212680243244B1B
:103A900030331A6006E0224A303212688243204BEB
:103AA00030331A607047012808D11D493C3109683C
:103AB00041F008011A4A3C32116007E018493C31D4
:103AC000096821F00801164A3C321160704739B18B
:103AD000134A273A12780243114B273B1A7006E02B
:103AE0000F4A273A127882430D4B273B1A707047D2
:103AF0000B484030006840F0807009494031086050
:103B0000704701460020064A283A12680A400AB166
:103B1000012000E0002070470149263908707047F5
:103B20003438024010B501218803FFF756FF002109
:103B30004FF48040FFF751FF10BD1C4908607047EB
:103B40001B490862704730B500228B071C0F0F23FA
:103B500003FA04F2154B08338C1053F824309343C6
:103B6000124C08348D1044F8253023468C1053F83D
:103B700024308C07240F00FA04F423430B4C083440
:103B80008D1044F8253030BD0949DC31086070479C
:103B9000084908607047002004492031096801F491
:103BA000807109B1012000E0002070470038014019
:103BB000000027420004274210B50446FE48844214
:103BC00008D101210846FFF708FF00210120FFF777
:103BD00004FF9DE0B4F1804F08D101210846FFF7B2
:103BE000EBFE00210120FFF7E7FE91E0F34884425D
:103BF00008D101210220FFF7DFFE00210220FFF79C
:103C0000DBFE85E0EE48844208D101210420FFF765
:103C1000D3FE00210420FFF7CFFE79E0E94884427B
:103C200008D101210820FFF7C7FE00210820FFF777
:103C3000C3FE6DE0E448844208D101211020FFF763
:103C4000BBFE00211020FFF7B7FE61E0DF48844291
:103C500008D101212020FFF7AFFE00212020FFF72F
:103C6000ABFE55E0DA48844208D101210220FFF77B
:103C7000B4FE00210220FFF7B0FE49E0D54884429F
:103C800009D101210804FFF7A8FE00214FF480307C
:103C9000FFF7A3FE3CE0D048844209D1012148044B
:103CA000FFF79BFE00214FF40030FFF796FE2FE058
:103CB000CA48844209D101218804FFF78EFE002101
:103CC0004FF48020FFF789FE22E0C548844208D1E6
:103CD00001214020FFF770FE00214020FFF76CFE1D
:103CE00016E0C048844208D101218020FFF764FE1D
:103CF00000218020FFF760FE0AE0BB48844207D124
:103D000001218015FFF758FE0021A015FFF754FE92
:103D100010BD00220288A84B98420ED0AC4B9842AE
:103D20000BD0B0F1804F08D0A44B984205D0A44BE3
:103D3000984202D0A34B984204D14FF68F731A4099
:103D40004B881A43A04B984207D0A04B984204D00E
:103D50004FF6FF431A400B891A4302804B68C36237
:103D60000B880385944B984202D0994B984201D11D
:103D70008B7A03860123838270474FF0FF314160C5
:103D8000002101800181418081727047018582821A
:103D900070470A46002101884FF68F73194011437E
:103DA0000180704741627047C16270470146486AAE
:103DB00070470146088D704721B1028842F0020227
:103DC000028004E002884FF6FD731A4002807047BB
:103DD00021B1028842F00402028004E002884FF61A
:103DE000FB731A400280704721B1028842F08002C2
:103DF000028004E002884FF67F731A400280704709
:103E000002884FF6F7731A40028002880A43028044
:103E1000704702884FF6FF431A40028002880A4327
:103E20000280704721B1028842F00102028004E062
:103E300002884FF6FE731A400280704770B5002466
:103E400000220023058C4FF6FE7635400584028C57
:103E50008388048B4FF68F752C40B51E2C400D883F
:103E60002C43751E2A408D892A434D882A43524D82
:103E7000A84202D0564DA84213D14FF6F7752A40FA
:103E8000CD892A434FF6FB752A408D882A434FF689
:103E9000FF652B404FF6FF552B400D8A2B434D8A73
:103EA0002B43838004838D684563028470BD70B5A5
:103EB000002400220023058C4FF6EF763540058460
:103EC000028C8388048B48F6FF752C404FF6FF4523
:103ED0002C400D884FF6FF7606EA05252C434FF659
:103EE000DF752A408D8906EA05152A434D8806EAC2
:103EF00005152A43304DA84202D0354DA8421DD1A8
:103F00004FF67F752A40CD894FF6FF7606EA0515F4
:103F10002A434FF6BF752A408D8806EA05152A43C5
:103F20004FF6FF352B404FF2FF752B400D8A06EA06
:103F300085052B434D8A06EA85052B438380048340
:103F40008D688563028470BD70B500240022002353
:103F5000058C4FF6FF6635400584028C8388848B80
:103F60004FF68F752C404FF6FC752C400D882C4376
:103F70004FF6FF552A408D894FF6FF7606EA052554
:103F80002A434D8806EA05252A430B4DA84202D054
:103F90000F4DA84238D14FF2FF752A40CD894FF618
:103FA000FF7606EA05252A434FF6FF352A408D881D
:103FB00006EA05252A4319E00000014000040040FC
:103FC00000080040000C00400010004000140040B9
:103FD000000401400040014000440140004801400D
:103FE00000180040001C0040002000404EF6FF7505
:103FF0002B404DF6FF752B400D8A06EA05152B4325
:104000004D8A06EA05152B43838084838D68C5633A
:10401000028470BD70B5002200230024058C4EF68A
:10402000FF7635400584038C8488828B48F6FF75C3
:104030002A404FF6FF452A400D884FF6FF7606EAE4
:1040400005252A434DF6FF752B408D8906EA053577
:104050002B434D8806EA05352B43FE4DA84202D07E
:10406000FD4DA84208D14BF6FF752C400D8A4FF646
:10407000FF7606EA85152C43848082838D6805646B
:10408000038470BD00210180418081808160818135
:10409000C18101824182704770B50346002000242F
:1040A0001846183001258D40ACB21D8CA5431D84E7
:1040B00009B108290AD100EB610005684FF68F7637
:1040C000354005600568154305600FE00D1FC5F319
:1040D0004E052844056848F6FF76354005600568BA
:1040E0004FF6FF7606EA02263543056070BD416350
:1040F000704781637047C1637047016470470A4627
:104100000021018B4FF68F731940114301837047D3
:104110000A460021018B48F6FF7319404FF6FF73E2
:1041200003EA02231943018370470A460021818B69
:104130004FF68F7319401143818370470A4600215F
:10414000818B48F6FF7319404FF6FF7303EA022391
:104150001943818370470A460021018B4FF6F7739C
:1041600019401143018370470A460021018B4FF229
:10417000FF7319404FF6FF7303EA022319430183CB
:1041800070470A460021818B4FF6F773194011439F
:10419000818370470A460021818B4FF2FF731940DB
:1041A0004FF6FF7303EA02231943818370470A46DF
:1041B0000021018B4FF6FB731940114301837047B7
:1041C0000A460021018B4FF6FF3319404FF6FF736B
:1041D00003EA02231943018370470A460021818BB9
:1041E0004FF6FB7319401143818370470A46002143
:1041F000818B4FF6FF3319404FF6FF7303EA02231A
:104200001943818370470A460021018B4FF67F7363
:1042100019401143018370470A460021018BC1F305
:104220000E014FF6FF7303EA02231943018370471F
:104230000A460021818B4FF67F7319401143818319
:1042400070470A460021818BC1F30E014FF6FF73C0
:1042500003EA02231943818370470A460021018C37
:104260004FF6FD7319401143018470470A4600213F
:10427000018C4FF6F77319401143018470470A46C9
:104280000021018C4FF6DF7319404FF6FF7303EAEC
:1042900002131943018470470A460021018C4FF62E
:1042A0007F7319404FF6FF7303EA02131943018429
:1042B00070470A460021018C4FF6FF5319404FF614
:1042C000FF7303EA02231943018470470A46002161
:1042D000018C4FF2FF7319404FF6FF7303EA02237C
:1042E0001943018470470A460021018C4DF6FF7383
:1042F00019404FF6FF7303EA0233194301847047F4
:1043000030B5002301248C40A3B2048C9C43048468
:10431000048C02FA01F5ADB22C43048430BD30B5F3
:10432000002304248C40A3B2048C9C430484048C9A
:1043300002FA01F5ADB22C43048430BD828B4FF2FA
:10434000FF331A408283828B4FF6FF7303EA012307
:104350001A4382837047F0B50C46154600210022AF
:104360000026078C4EF6FF7C07EA0C070784818B3A
:10437000028C4FF6FF7707EA043640F6FF473940D4
:104380004FF6FF7707EA052739434FF6FF7707EA2D
:104390000337394345F6FF773A4046F480573A43AE
:1043A00081830284F0BD828B4FF6F3731A408283BF
:1043B000828B0A4382837047F0B50C461546002174
:1043C00000220026078C4FF6FF6C07EA0C070784D3
:1043D000818B028C4FF6FF7707EA04264FF60C77A5
:1043E00039404FF6FF7707EA03172F4339434FF25F
:1043F000FF573A4046F480773A4381830284F0BD08
:10440000028B4FF2FF331A400283028B4FF6FF7389
:1044100003EA01231A4302837047F0B50C461546A0
:10442000002100220026078C4FF6EF7C07EA0C07DC
:104430000784018B028C4FF6FF7707EA041640F6DB
:10444000FF4739404FF6FF7707EA033739434FF606
:10445000FF7703E0000001400004014007EA052760
:1044600039434FF65F773A4046F010073A430183ED
:104470000284F0BD028B4FF6F3731A400283028B65
:104480000A4302837047F0B50C461546002100220E
:10449000068C4FF6FE773E400684018B028C4FF669
:1044A0000C7631407E1C06EA03162E4331434FF64C
:1044B000F576324044F00106324301830284F0BDB8
:1044C00070B505460C46208850B92389A2886188BA
:1044D0002846FFF7D8FFE1882846FFF7CBFF25E005
:1044E000208804280AD12389A28861882846FFF7FA
:1044F00094FFE1882846FFF783FF17E0208808280B
:104500000AD12389A28861882846FFF755FFE188F0
:104510002846FFF748FF09E02389A28861882846DA
:10452000FFF719FFE1882846FFF708FF70BD00215B
:1045300001804180012181800021C180018170477B
:104540002DE9F04105460C4600260127608808B990
:10455000022600E00026A088012801D1022700E001
:1045600001272088A0B92389A28861882846FFF7FF
:104570008AFFE1882846FFF77DFF23893A463146C6
:104580002846FFF74AFFE1882846FFF739FF13E086
:104590002389A28861882846FFF73FFFE1882846E3
:1045A000FFF72EFF23893A4631462846FFF76BFF77
:1045B000E1882846FFF75EFFBDE8F0810146486BC1
:1045C00070470146886B70470146C86B70470146CB
:1045D000086C70470A884B881A438B881A43CB882B
:1045E0001A430B891A434B891A438B891A43A0F843
:1045F000442070470021018041808180C180018179
:1046000041818181704731B1B0F8442042F40042C9
:10461000A0F8442005E0B0F84420C2F30E02A0F850
:104620004420704721B1828842F00402828004E075
:1046300082884FF6FB731A408280704721B18288CE
:1046400042F00102828004E082884FF6FE731A4035
:10465000828070471AB183890B43838102E083898A
:104660008B43838170478182704702460020138A02
:104670000B400BB1012000E000207047CA430282CA
:10468000704730B50246002000230024158A05EA51
:104690000103958905EA010413B10CB1012000E082
:1046A000002030BDCA430282704741EA0203A0F8ED
:1046B000483070471AB183890B43838102E08389B4
:1046C0008B438381704721B1828842F00802828047
:1046D00004E082884FF6F7731A40828070470189A0
:1046E0004FF6F8721140018170470A460021018996
:1046F0004FF68F73194011430181704730B504465E
:104700000D4629462046FFF7F0FF208940F00700BC
:10471000208130BD2DE9F04104460D4616461F4666
:10472000602D06D13B46012231462046FFF775FE3B
:1047300005E03B46012231462046FFF7A4FE29460C
:104740002046FFF7D2FF208940F007002081BDE816
:10475000F08130B50C4600210189C9B24FF6FF75D2
:1047600005EA0325154325432943018130BD2DE981
:10477000F04105460E4617469846002443463A4601
:1047800031462846FFF7E5FF2C894FF6F8700440C4
:1047900044F007044FF68F70044044F070042C81FD
:1047A000BDE8F081F0B504460D4616461F463B466F
:1047B000324629462046FFF7CCFF208940F480404E
:1047C0002081F0BD82884FF68F731A4082808288E4
:1047D0000A438280704702894FF6F8731A400281BB
:1047E00002890A430281704702894FF67F731A409B
:1047F000028102890A4302817047F0B50C461546D2
:104800001E460021002200230189028B038C4FF6F3
:10481000F877394021434FF6FC473A4040F2011700
:104820003A434FF6DD773B404FF6FF7707EA06172E
:104830002F433B43018102830384F0BD21B1828871
:1048400042F08002828004E082884FF67F731A4033
:1048500082807047A0F850107047000010B50446E1
:10486000FA48844208D101211020FFF7B6F8002150
:104870001020FFF7B2F857E0F548844209D1012132
:104880004804FFF799F800214FF40030FFF794F83F
:104890004AE0F048844209D101218804FFF78CF8EE
:1048A00000214FF48020FFF787F83DE0EA4884427A
:1048B00009D10121C804FFF77FF800214FF400203F
:1048C000FFF77AF830E0E548844209D10121080574
:1048D000FFF772F800214FF48010FFF76DF823E026
:1048E000DF48844208D101212020FFF776F800211B
:1048F0002020FFF772F817E0DA48844209D101213D
:104900008807FFF759F800214FF08040FFF754F86F
:104910000AE0D548844207D101214005FFF74CF851
:1049200000216005FFF748F810BD2DE9FF47054657
:104930000E460024A14600BFA046B08900B100BFCA
:104940002C8A24F44054F08804432C82AC8941F230
:104950000C608443B088318908437189084304435B
:10496000AC81AC8A24F44074B0890443AC826846BC
:10497000FEF7B3FEB548854202D0B948854202D160
:10498000DDF80C9001E0DDF80890A88900F4004003
:1049900040B109EBC90000EB091031684900B0FBD8
:1049A000F1F707E009EBC90000EB09103168890055
:1049B000B0FBF1F76420B7FBF0F00401200964219B
:1049C00001FB1078A88900F4004040B1322000EBD0
:1049D000C800B0FBF1F000F00700044308E032200B
:1049E00000EB08106421B0FBF1F000F00F0004436D
:1049F0002C81BDE8FF874FF41651016000218180B2
:104A0000C18001810C21418100218181704710B555
:104A100002460020108A20F470600B884C882343E3
:104A20008C882343CC8823431843108210BD002177
:104A3000018041808180C180704721B1828942F428
:104A40000052828104E082894DF6FF731A40828110
:104A50007047028B02F47F420283028B0A43028377
:104A6000704721B1828942F40042828103E0828949
:104A7000C2F30E028281704721B1828A42F4006241
:104A8000828204E0828A4FF2FF731A40828270476A
:104A9000C1F308028280704701468888C0F308008D
:104AA0007047028A4FF6F0731A400282028A0A4364
:104AB0000282704721B1828942F00202828104E0C1
:104AC00082894FF6FD731A408281704782894FF2C6
:104AD000FF731A40828182890A4382817047028A69
:104AE0004FF6DF731A400282028A0A43028270473D
:104AF00021B1028A42F48042028204E0028A4BF62B
:104B0000FF731A4002827047818941F0010181815F
:104B1000704721B1828A42F00802828204E0828AD0
:104B20004FF6F7731A4082827047028BD2B202832B
:104B3000028B42EA01220283704721B1828A42F04D
:104B40002002828204E0828A4FF6DF731A4082825A
:104B5000704721B1828A42F01002828204E0828A88
:104B60004FF6EF731A4082827047828A4FF6FB73CA
:104B70001A408282828A0A438282704721B1828AE5
:104B800042F00202828204E0828A4FF6FD731A40EC
:104B9000828270471AB1838A0B43838202E0838A40
:104BA0008B4383827047F0B503460024002600251E
:104BB000002040F66A17B94200D100BF1846C1F381
:104BC000421401F01F06012707FA06F5012C01D156
:104BD0000C3004E0022C01D1103000E014301AB186
:104BE00007682F43076002E00768AF430760F0BD26
:104BF00002460020B1F5007F00D100BF13880B40B2
:104C00000BB1012000E00020704701F40072B2F502
:104C1000007F00D100BFCA430280704770B50246D2
:104C2000002400230025002040F66A16B14200D17E
:104C300000BFC1F3421501F01F03012606FA03F37A
:104C4000012D13D19689334017E000000010014078
:104C50000044004000480040004C0040005000402C
:104C60000014014000780040007C0040022D02D179
:104C7000168A334001E0968A33400C12012606FA68
:104C800004F41688344013B10CB1012000E0002078
:104C900070BD10B50022002340F66A14A14200D175
:104CA00000BF0A1201249440A3B2DC43048010BD6B
:104CB00000B58BB001210220FEF73AFE012104204D
:104CC000FEF7DCFD01210220FEF7D8FD03220721BB
:104CD0006948FEF7C0FB032209216748FEF7BBFBCA
:104CE0004FF42070099002208DF8280003208DF8E1
:104CF000290000208DF82A0002208DF82B0009A938
:104D00005D48FEF71DFB0C20ADF818000020ADF843
:104D10001A004FF6FF7007900020ADF8200006A99A
:104D20005648FEF7F6FF3020ADF804000120ADF83C
:104D3000060000200390ADF8100001A94F48FFF7CE
:104D4000B6F801A94D48FFF765F900214B48FFF778
:104D50000BFA00214948FFF71DFA01214748FFF7E8
:104D600061F8012214214548FFF774FC01214348F2
:104D7000FFF73AF801214148FFF745FC2E208DF856
:104D8000000000208DF8010001208DF802008DF850
:104D900003006846FEF75BF94FF4A070099001200C
:104DA0008DF8280003208DF8290000208DF82A00B6
:104DB00002208DF82B0009A92F48FEF7C1FA4FF405
:104DC0004060099001208DF8280003208DF829000B
:104DD00000208DF82A0001208DF82B0009A9284811
:104DE000FEF7AEFA0120274908602749C1F8AC0256
:104DF0000BB000BD10B52DED028B04211F48FFF74D
:104E000040FCC0B104211D48FFF74CFC1B48FFF7D4
:104E1000D8FB00EE100AB8EE408A1C4890ED000A5C
:104E2000B8EEC00A38EE000ABCEEC00A10EE101A46
:104E30001248FFF75EF910211048FFF722FCC0B1BD
:104E400010210E48FFF72EFC0C48FFF7C0FB00EEC8
:104E5000100AF8EE408A0E4890ED000AB8EEC00A3B
:104E600038EE800ABCEEC00A10EE101A0348FFF7B5
:104E700044F9BDEC028B10BD000802400004014063
:104E800000040240A88240420080404210020020FC
:104E90001402002040EA01039B0703D009E008C97F
:104EA000121F08C0042AFAD203E011F8013B00F8EF
:104EB000013B521EF9D270472DE9FE4F81EA0304EF
:104EC00004F0004421F0004100944FF0000B23F067
:104ED000004350EA01045ED052EA03045BD0C3F3FE
:104EE0000A54C1F30A552C44A4F2F3340194A0FBF4
:104EF0000254C1F3130141F48011C3F3130343F4CB
:104F0000801301FB024400FB034E840A970A44EA23
:104F1000815447EA8357A4FB076802958D0A05FB75
:104F200007854FEA932C04FB0C542705029D4FEA9A
:104F3000065847EA1637B5EB08056EEB070C870EE7
:104F4000920E47EA811742EA8312A7FB0201B6EBF1
:104F50000B0164EB00042B0D43EA0C335E1844EBA9
:104F60001C50DA465146E7FB0201C5F313044FEA31
:104F70000B3343EA14534FEA0432019C43EA06031D
:104F8000A4F10C040294009CCDE900B400F006F9F1
:104F900003B0BDE8F08F00200146F9E701F00043BF
:104FA00030B421F0004150EA010206D00A0DA2F50A
:104FB0006072C1F31301002A02DC30BC002070478C
:104FC000440F44EAC104C100E01830BC00EBC250F9
:104FD00000F09EB82DE9F05F0546002092469B4602
:104FE00088460646814640241BE0284641464746FF
:104FF000224600F02FF853465A46C01A914110D36A
:1050000011461846224600F016F82D1A67EB0108E3
:105010004F4622460120002100F00DF817EB000951
:105020004E41201EA4F10104DFDC484631462A46E9
:105030004346BDE8F09F202A04DB203A00FA02F143
:10504000002070479140C2F1200320FA03F3194376
:1050500090407047202A04DB203A21FA02F0002118
:10506000704721FA02F3D040C2F120029140084378
:10507000194670470FB4002300B589B00CA9009100
:105080000B996FF00042CB601E4B06931E4B0793AB
:105090000423CDE901321D4A089202466B460020E6
:1050A00000F0E6F909B05DF814FB70B586B006466D
:1050B0004FF0FF300091CDE90101002015460C466C
:1050C00004903246694604A8FFF7D4FF02460498CC
:1050D000211825B108B1084600E020462860049850
:1050E00000280DD0002A02DD0098884208D0081B55
:1050F0000094CDE901043246694604A8FFF7BAFFDF
:1051000006B070BDA9560008C75600083D530008F8
:105110000029A8BF7047401C490008BF20F00100CB
:10512000704710B4B0FA80FC00FA0CF050EA0104A9
:1051300004BF10BC704749B1CCF1200421FA04F43B
:1051400011FA0CF118BF012121430843A3EB0C0114
:10515000CB1D4FEA00614FEA102042BF002010BC77
:10516000704700EBC35010440029A4BF10BC704727
:10517000401C490008BF20F0010010BC704710B56A
:10518000141E73F1000408DA401C41F1000192186A
:105190005B411A4301D120F0010010BD2DE9F04D13
:1051A00092469B4611B1B1FA81F202E0B0FA80F268
:1051B00020329046FFF73FFF04460F4640EA0A00C0
:1051C00041EA0B0153465A46084313D0114653EAAD
:1051D000010019D0C8F140025046FFF73BFF0546D9
:1051E0000E46504659464246FFF725FF084305D074
:1051F000012004E020463946BDE8F08D002005433B
:1052000046EAE0762C4337430A986305E40AA0EBAC
:1052100008000022FD0A44EA47540A3002D5002063
:105220000146E9E7010510196941DDE90845001962
:105230006941BDE8F04DA2E72DE9F04D81EA030494
:1052400004F0004B21F0004514464FF0000A23F013
:10525000004150EA050220D054EA01021DD0C5F3F6
:105260000A570246C5F31303C1F31300C1F30A56EC
:1052700040F4801543F48013A7EB0608101BD646B4
:1052800008F2FD3873EB050002D308F1010801E0D4
:1052900092185B41B8F1000F03DA00200146BDE827
:1052A000F08D00204FF48011064684460EE0171B57
:1052B00073EB050705D3121B63EB050306434CEAAA
:1052C000010C49084FEA300092185B4150EA01078F
:1052D000EDD152EA030012D082EA040083EA05010C
:1052E000084305D0101BAB4106D20122002306E083
:1052F00000224FF0004302E06FF0010253101AEB5E
:1053000006004CEB085110EB0A0041EB0B01BDE825
:10531000F04DFFF734BF0000064C074D06E0E06893
:1053200040F0010394E8070098471034AC42F6D3EC
:10533000FAF72EFF7863000898630008C0B24FF4B4
:10534000F05100F0D1B900002DE9FF4F087883B08B
:105350009946FF2805D0491C2D2804D000240020A0
:1053600008E000200BE00124F9E700EB800003EBEC
:105370004000491C0B78FF2BF7D104B140420023B9
:105380000293147819461D462D2C01D02B2C04D1E4
:10539000521C2D2C13D000240294AA461478FF2C02
:1053A0000FD00A25A3FB057801FB05814FF0000C07
:1053B00003FB0C11521CE3194AEB0101EEE7012437
:1053C000EAE7814453EA010002D019F5C87F06DA02
:1053D00003980021C0E9001107B0BDE8F08F002557
:1053E000AE4E2F46DFF8B882184600F091F9CDE9AD
:1053F0000001B9F1000002DAC9F1000400E004463E
:105400000023A74A1AEB030B42EB045A12E0E00711
:1054100007D02A46334638464146FFF74DFD07463A
:1054200088462A46334610461946FFF745FD05468D
:105430000E466410002CEAD1DDE90001B9F1000F3D
:105440005A46534606DAFFF7F7FE3A464346FFF759
:10545000F3FE05E0FFF730FD3A464346FFF72CFD2B
:10546000029A0AB181F00041039AC2E90001B3E750
:105470002DE9FF4F1F468DB0D7E901464FF0FF38A9
:105480002E2045464FF000090B90B9696D1C0E980F
:105490008847396A824688470028F6D1BAF1FF3F2B
:1054A0000AD024F4D064002E11DDBAF12B0F08D0FD
:1054B000BAF12D0F0BD102E0404611B08DE744F454
:1054C0008064B9696D1C0E9888478246761E6946CD
:1054D000600501D52D2000E02B208DF8000001F1A2
:1054E000010B0DF1200809E0B9696D1C0E98884781
:1054F00082460F9844F40074761E0560002E02DD8B
:10550000BAF1300FF0D00B998A453ED144F08004B7
:1055100006E00F99681CA9F1010944F400740860C1
:10552000B9696D1C761E0E98884782463028F0D0E7
:105530002BE00B998A4505D1200603D444F0800462
:10554000761E18E0504600F052F908B30DF1130131
:10555000761E44F400748B4508D2AAF130000BF893
:10556000010B200607D5A9F1010003E0200602D4B3
:1055700009F101008146A00502D50F99681C086059
:10558000B9696D1C0E9888478246002ED1DC53E025
:10559000002E51DDBAF1650F02D0BAF1450F4BD1A3
:1055A000A00549D5B9696D1C24F44074761E0E9887
:1055B00088478246002E0CDD2B2804D0BAF12D0F2F
:1055C00007D144F48074B9696D1C0E9888478246EF
:1055D000761EE00501D52D2100E02B2108F8011BE6
:1055E000CDF82C8021E00DF12901761E44F40074E1
:1055F00088450CD2AAF1300010F0FF0088F80000B6
:1056000002D10B99884509D908F1010806E0E005A7
:1056100001D5244801E042F20F708146B9696D1C42
:105620000E98884782460F980560002E04DD50468C
:1056300000F0DDF80028D6D1F9690E988847FF20E0
:105640008BF8000088F800000020069007904B4679
:105650006A4608A906A8FFF777FEA00502D46FF0F6
:1056600001002AE714F0240F0AD0E00714D1DDE985
:1056700006123868031D3B600068C0E900120BE0A9
:10568000DDE90601FFF78AFC0146E00704D138682E
:10569000021D3A600068016028460EE700001440D1
:1056A0000000F03FF1D8FFFF426842B1016811F8F5
:1056B000013B23B1521EC0E9001218467047012178
:1056C000C160881E704742685AB1C368016843B917
:1056D00083688B4205D0491E521CC0E9001200208D
:1056E00070474FF0FF3070477F2801D9002208E053
:1056F000064A02EB5002C007127800D1120902F0EC
:105700000F020120904008407047000038630008F5
:105710000EB540F2334202920022CDE90022134638
:10572000FFF73CFD03B000BD70B58C1810F8015BAD
:1057300015F0070301D110F8013B2A1106D110F82A
:10574000012B03E010F8016B01F8016B5B1EF9D12E
:105750002B0705D40023521E0DD401F8013BFAE7B4
:1057600010F8013BCB1A921C03E013F8015B01F81F
:10577000015B521EF9D5A142D8D3002070BD0000B4
:105780000FB4084B10B504A902AA039800F036F82C
:10579000044602A9002000F091F9204610BC5DF8F3
:1057A00014FB0000BD5A000800B583B09FED060B46
:1057B0000A4601468DED000B6846FFF776FC9DED2D
:1057C000000B03B000BD000000000000000000005E
:1057D00002E008C8121F08C1002AFAD170477047BA
:1057E000002001E001C1121F002AFBD170473038B0
:1057F0000A2801D201207047002070472DE9FF4F91
:105800008DB09B460F460446002606E025280BD0A7
:105810005A460F999047641C761C20780028F5D1D1
:1058200011B03046BDE8F08F0025A8460122984906
:1058300000E0054314F8013F203B02FA03F0084260
:10584000F7D120782E2817D114F8010F45F0040560
:105850002A280ED06FF02F022078A0F130010929FC
:105860000AD808EB880102EB410100EB0108641C37
:10587000F2E757F8048B641C20786C280DD004DC08
:105880004C2812D06A2811D104E074280DD07A284F
:105890000CD10AE045F4001507E0617845F4801565
:1058A000814202D1641C05F58015641C20786928AA
:1058B00044D008DC0028B3D0582867D063280FD024
:1058C000642808D13AE0702865D0732812D0752872
:1058D0005AD078285AD05A460F999047761CD5E06E
:1058E00017F8040B8DF8000000208DF80100E94640
:1058F000012003E057F8049B4FF0FF3069074FF099
:10590000000501D40AE06D1C45450DDA8542FADB3D
:1059100019F805100029F6D106E06D1C8542FCDB64
:1059200019F805100029F8D12E4404E019F8010BEC
:105930005A460F9990476D1EF8D2A7E00A20002121
:10594000CDE90801C5F3025002280CD001CFC117E0
:10595000021E71F100020CDA0023D0EB030063EBAE
:1059600001012D2208E0FF1D27F00707F7E80201DB
:10597000EEE72A0504D52B228DF8282001223CE0F1
:10598000EA073AD02022F7E70A2000E010200021A1
:10599000CDE9080107E01020002145F00405CDE91C
:1059A00008014FF00808C5F30250022810D001CFBB
:1059B00000214FF0000A2A0720D52278702A0DD046
:1059C000DDE908C38CF0100C5CEA030C0CD015E088
:1059D000FF1D27F00707F7E80201EAE740228DF8EC
:1059E00028204FF0010A0CE050EA010306D03023D2
:1059F0008DF828308DF82920022292462278582AE4
:105A000004D024A20DF120090B9209E026A2F9E7A7
:105A1000DDE90823FFF7DEFA0B9B9B5C09F8013DEB
:105A200050EA0102F4D1ADEB09002030089068077C
:105A300001D44FF001080899884503DD0898A8EBC8
:105A4000000000E000208046002506E00AA85A4633
:105A5000405D0F9990476D1C761C5545F6DB04E0C0
:105A600030205A460F999047761CB8F10001A8F1F2
:105A70000108F5DC05E019F8010B5A460F9990472B
:105A8000761C0899481E08900029F4DC641CC4E6C2
:105A90000928010030313233343536373839616204
:105AA00063646566000000003031323334353637C8
:105AB0003839414243444546000000000A68531CFF
:105AC0000B60107070470000010000000000000033
:105AD00000000000000000000000000000000000C6
