S31508000000A00800209D0100081511000883100008AB
S31508000010111100085B0C00081924000800000000F4
S31508000020000000000000000000000000B5130008F2
S315080000305F0C000800000000A51100087D160008E6
S31508000040B7010008B7010008B7010008B7010008A2
S31508000050B7010008B7010008B7010008B701000892
S31508000060F10C00080D0D0008B7010008B7010008DB
S31508000070B7010008B7010008B7010008B701000872
S31508000080B7010008B7010008B7010008B701000862
S31508000090B7010008B7010008B7010008B701000852
S315080000A0B7010008B7010008B7010008B701000842
S315080000B0B7010008B7010008B7010008B701000832
S315080000C0B7010008B7010008B7010008B701000822
S315080000D0B70100080921000889210008F121000854
S315080000E0610C0008B7010008B7010008B70100084D
S315080000F0B7010008B701000869190008B701000828
S31508000100B7010008B7010008E9160008B70100089A
S31508000110B7010008B7010008D9180008B701000898
S31508000120B7010008B7010008B7010008B7010008C1
S31508000130B7010008B7010008B7010008B7010008B1
S31508000140B7010008B7010008B7010008B7010008A1
S31508000150B7010008B7010008B7010008B701000891
S31508000160B7010008B7010008B7010008B701000881
S31508000170B7010008B7010008B7010008B701000871
S31508000180B7010008B7010008DFF80CD000F038FB0B
S3150800019000480047E5390008A008002006488047BF
S315080001A006480047FEE7FEE7FEE7FEE7FEE7FEE74E
S315080001B0FEE7FEE7FEE7FEE781160008890100086C
S315080001C040EA01039B0703D009E008C9121F08C0CB
S315080001D0042AFAD203E011F8013B00F8013B521E4B
S315080001E0F9D270472DE9FE4F804681EA0300C00F19
S315080001F00C46009021F0004123F00045B8EB0200C0
S31508000200A94105D24046214690461C460B46024661
S3150800021023F00040104347D0270DC7F30A00C3F365
S315080002200A510290401A019040286BDAC3F3130072
S3150800023040F4801B0098924620B10023D2EB030AB3
S3150800024063EB0B0B01985946C0F14002504600F08B
S31508000250C4F906460D4650465946019A00F0DCF99F
S3150800026010EB08006141002487EA115284EAE7731B
S315080002701A4340D0009A62B3019A012A4FEA0752FC
S3150800028015DC001B61EB02014FF0004202EA07523F
S31508000290CDE90042001C41F5801132462B4600F09C
S315080002A061FA03B0BDE8F08F40462146F9E7001B26
S315080002B061EB0201001C41F5801300185B41201810
S315080002C0A2F5001747EB030140EAD570B6196D4150
S315080002D011E06D084FEA360645EAC0754FEA07523F
S315080002E0001B61EB0201001C41F5801149084FEA29
S315080002F030000019514132462B4603B0BDE8F04F95
S3150800030000F021BA0098012240000023D0EB020237
S3150800031063EBE073009821464FEAE074B8EB0000FF
S3150800032061EB0401E9E783F000435BE781F00041F4
S3150800033058E72DE9FE4F81EA030404F0004421F052
S31508000340004100944FF0000B23F0004350EA0104EB
S315080003505ED052EA03045BD0C3F30A54C1F30A55CC
S315080003602C44A4F2F3340194A0FB0254C1F3130104
S3150800037041F48011C3F3130343F4801301FB0244D1
S3150800038000FB034E840A970A44EA815447EA8357D6
S31508000390A4FB076802958D0A05FB07854FEA932C8F
S315080003A004FB0C542705029D4FEA065847EA163700
S315080003B0B5EB08056EEB070C870E920E47EA811718
S315080003C042EA8312A7FB0201B6EB0B0164EB0004B9
S315080003D02B0D43EA0C335E1844EB1C50DA465146A3
S315080003E0E7FB0201C5F313044FEA0B3343EA145340
S315080003F04FEA0432019C43EA0603A4F10C04029472
S31508000400009CCDE900B400F0ADF903B0BDE8F08F6B
S3150800041000200146F9E72DE9F04D81EA030404F0CE
S31508000420004B21F0004514464FF0000A23F0004126
S3150800043050EA050220D054EA01021DD0C5F30A5736
S315080004400246C5F31303C1F31300C1F30A5640F479
S31508000450801543F48013A7EB0608101BD64608F24E
S31508000460FD3873EB050002D308F1010801E0921884
S315080004705B41B8F1000F03DA00200146BDE8F08DB4
S3150800048000204FF48011064684460EE0171B73EBD6
S31508000490050705D3121B63EB050306434CEA010C5B
S315080004A049084FEA300092185B4150EA0107EDD13E
S315080004B052EA030012D082EA040083EA05010843DF
S315080004C005D0101BAB4106D20122002306E000220C
S315080004D04FF0004302E06FF0010253101AEB0600DA
S315080004E04CEB085110EB0A0041EB0B01BDE8F04D4F
S315080004F000F029B90EB5C10F80EAE0700844CA07B2
S31508000500002140F233438DE80E000A460B4600F000
S3150800051029F903B000BD3EB5CA17CB0F00245040D9
S315080005205140C0186141DA0740F233430094CDE9DF
S3150800053001232246234600F015F903B030BD70B5F5
S31508000540C1F30A5201F000450024C1F3130140F239
S31508000550FF3341F480119A4201DA002070BD40F25F
S3150800056033439A42A2F2334203DC524200F044F883
S3150800057000E090402C43F1D0404270BD00F00042AC
S3150800058030F000400AD0C10D01F56071C0F31600C5
S3150800059042EA0151C208400711437047002001464C
S315080005A0704701F0004330B421F0004150EA0102DF
S315080005B006D00A0DA2F56072C1F31301002A02DC07
S315080005C030BC00207047440F44EAC104C100E0185B
S315080005D030BC00EBC25000F07FB8202A04DB203A7A
S315080005E000FA02F1002070479140C2F1200320FA78
S315080005F003F3194390407047202A04DB203A21FA76
S3150800060002F00021704721FA02F3D040C2F120021D
S315080006109140084319467047202A06DBCB17203A33
S3150800062041FA02F043EAE07306E041FA02F3D040E9
S31508000630C2F1200291400843194670470FB40023BF
S3150800064000B589B00CA900910B996FF00042CB60F8
S315080006501E4B06931E4B07930423CDE901321D4A10
S31508000660089202466B46002000F062F909B05DF870
S3150800067014FB70B586B006464FF0FF300091CDE901
S315080006800101002015460C4604903246694604A826
S31508000690FFF7D4FF03460498211825B108B10A4686
S315080006A000E022462A6000280DD0002B02DD0098C3
S315080006B0884208D0081B0094CDE9010432466946F1
S315080006C004A8FFF7BBFF06B070BD0000690B000861
S315080006D0870B0008250800080029A8BF7047401C9A
S315080006E0490008BF20F00100704710B4B0FA80FC3A
S315080006F000FA0CF050EA010404BF10BC704749B177
S31508000700CCF1200421FA04F411FA0CF118BF0121E6
S3150800071021430843A3EB0C01CB1D4FEA00614FEAC6
S31508000720102042BF002010BC704700EBC350104495
S315080007300029A4BF10BC7047401C490008BF20F020
S31508000740010010BC704710B5141E73F1000408DAD6
S31508000750401C41F1000192185B411A4301D120F077
S31508000760010010BD2DE9F04D92469B4611B1B1FA34
S3150800077081F202E0B0FA80F220329046FFF72DFFB0
S3150800078004460F4640EA0A0041EA0B0153465A4618
S31508000790084313D0114653EA010019D0C8F14002A4
S315080007A05046FFF729FF05460E465046594642462B
S315080007B0FFF713FF084305D0012004E02046394619
S315080007C0BDE8F08D0020054346EAE0762C43374322
S315080007D00A986305E40AA0EB08000022FD0A44EA29
S315080007E047540A3002D500200146E9E701051019E9
S315080007F06941DDE9084500196941BDE8F04DA2E700
S31508000800064C074D06E0E06840F0010394E807004F
S3150800081098471034AC42F6D3FFF7BAFCD045000827
S31508000820F0450008C0B24FF4F05100F0CBB9000013
S315080008302DE9FF4F087881B09946FF2805D0491C55
S315080008402D2804D00024002308E000230BE001240F
S31508000850F9E703EB830300EB4303491C0878FF28F9
S31508000860F7D104B15B4200200090147801462D2C84
S3150800087001D02B2C04D1521C2D2C12D0002400940C
S3150800088000251678FF2E0ED00A24A0FB04C801FB0B
S315080008900481002700FB0711521C16EB0C00694166
S315080008A0EFE70124EBE7994450EA01020ED0002451
S315080008B0AA4D2646DFF8A88200F098F982468B46AC
S315080008C0B9F1000009DAC9F100071BE00198002117
S315080008D0C0E9001105B0BDE8F08F074612E0F80739
S315080008E007D022462B4630464146FFF722FD0646EC
S315080008F0884622462B4610461946FFF71AFD044637
S315080009000D467F10002FEAD1B9F1000F3246434653
S315080009105046594602DAFFF77EFD01E0FFF709FD6A
S31508000920009A0AB181F00041019AC2E90001D1E7B3
S315080009302DE9FF4F1F468DB0D7E901464FF0FF3826
S315080009402E2045464FF000090B90B9696D1C0E988C
S315080009508847396A824688470028F6D1BAF1FF3FA8
S315080009600AD024F4D064002E11DDBAF12B0F08D07A
S31508000970BAF12D0F0BD102E0404611B0ABE744F4B3
S315080009808064B9696D1C0E9888478246761E69464A
S31508000990600501D52D2000E02B208DF8000001F11F
S315080009A0010B0DF1200809E0B9696D1C0E988847FE
S315080009B082460F9844F40074761E0560002E02DD08
S315080009C0BAF1300FF0D00B998A453ED144F0800435
S315080009D006E00F99681CA9F1010944F4007408603F
S315080009E0B9696D1C761E0E98884782463028F0D065
S315080009F02BE00B998A4505D1200603D444F08004E0
S31508000A00761E18E0504602F011FC08B30DF11301EA
S31508000A10761E44F400748B4508D2AAF130000BF810
S31508000A20010B200607D5A9F1010003E0200602D430
S31508000A3009F101008146A00502D50F99681C0860D6
S31508000A40B9696D1C0E9888478246002ED1DC53E0A2
S31508000A50002E51DDBAF1650F02D0BAF1450F4BD120
S31508000A60A00549D5B9696D1C24F44074761E0E9804
S31508000A7088478246002E0CDD2B2804D0BAF12D0FAC
S31508000A8007D144F48074B9696D1C0E98884782466C
S31508000A90761EE00501D52D2100E02B2108F8011B63
S31508000AA0CDF82C8021E00DF12901761E44F400745E
S31508000AB088450CD2AAF1300010F0FF0088F8000033
S31508000AC002D10B99884509D908F1010806E0E00525
S31508000AD001D5244801E042F20F708146B9696D1CC0
S31508000AE00E98884782460F980560002E04DD50460A
S31508000AF002F09CFB0028D6D1F9690E988847FF209A
S31508000B008BF8000088F800000020069007904B46F6
S31508000B106A4608A906A8FFF78BFEA00502D46FF05F
S31508000B2001002AE714F0240F0AD0E00714D1DDE902
S31508000B3006123868031D3B600068C0E900120BE026
S31508000B40DDE90601FFF72DFD0146E00704D1386807
S31508000B50021D3A600068016028460EE7000024403E
S31508000B600000F03FF1D8FFFF426842B1016811F872
S31508000B70013B23B1521EC0E90012184670470121F5
S31508000B80C160881E704742685AB1C368016843B994
S31508000B9083688B4205D0491E521CC0E9001200200A
S31508000BA070474FF0FF3070470EB540F2334102915F
S31508000BB00021CDE900110A460B46FFF7D3FD03B025
S31508000BC000BD00007F2801D9002208E0064A02EB92
S31508000BD05002C007127800D1120902F00F02012054
S31508000BE09040084070470000904500080EB540F256
S31508000BF0334202920022CDE900221346FFF7B2FDE6
S31508000C0003B000BD70B58C1810F8015B15F007032A
S31508000C1001D110F8013B2A1106D110F8012B03E087
S31508000C2010F8016B01F8016B5B1EF9D12B0705D48F
S31508000C300023521E0DD401F8013BFAE710F8013BD8
S31508000C40CB1A921C03E013F8015B01F8015B521EF4
S31508000C50F9D5A142D8D3002070BD00BFFEE7704782
S31508000C6010B54FF4004000F06DF8012833D1C003E9
S31508000C7000F062F81848D0E90010184A18CACA1ACB
S31508000C8060EB0400C821511A70F1000023DB1448F8
S31508000C90006880F40050124908600F48D0E9001037
S31508000CA00E4AC2E900100F48007808B9012000E092
S31508000CB000200C4908700C48007808B9012000E0AB
S31508000CC00020094908700948007808B9012000E0A1
S31508000CD000200649087010BD28010020A800002041
S31508000CE0140802404400002078000020D0000020AC
S31508000CF010B5042000F026F8012805D1042000F0DC
S31508000D001BF8C82002F0B8FA10BD000010B508207C
S31508000D1000F018F801280BD1082000F00DF8054856
S31508000D20006880F4806003490860C82002F0A4FACD
S31508000D3010BD000014140240014908607047000005
S31508000D40143C014001460020034A12680A400AB1D1
S31508000D50012000E000207047143C0140002123498F
S31508000D608279002A3AD00A46126803689A430B46E3
S31508000D701A600A1D126803689A430B1D1A600279E5
S31508000D8011440A6803681A430A60184A0832126846
S31508000D9003689A43154B08331A601A1D12680368CC
S31508000DA09A43124B0C331A604279102A0ED11A1F35
S31508000DB0126803681A430D4B08331A601A1D126825
S31508000DC003681A43094B0C331A600DE00749427948
S31508000DD011440A6803681A430A6005E00279114457
S31508000DE00A6803689A430A6070470000003C01409D
S31508000DF0F0B50A4600210023002400BF3DE0012586
S31508000E0005FA01F3156805EA03049C4234D105681E
S31508000E104F000326BE40B543056015794E00B54020
S31508000E200668354305601579012D02D01579022D1E
S31508000E3016D185684F000326BE40B54385605579AF
S31508000E404E00B540866835438560456801268E4064
S31508000E50B5434560456896798E40B6B235434560D8
S31508000E60C5684F000326BE40B543C560D5794E0018
S31508000E70B540C6683543C560491C1029BFD3F0BDC7
S31508000E80F0B5002300244D07ED0E02FA05F3CE1047
S31508000E9000F1200555F826504E07F70E0F26BE40DE
S31508000EA0B543CF1000F1200646F82750CE1000F1C2
S31508000EB0200555F8265045EA0304CE1000F1200512
S31508000EC045F82640F0BD418370470183704700000E
S31508000ED070B52DED048B0025172457480078212876
S31508000EE07DD15548C07D5528FAD15348007E5328F0
S31508000EF0F6D105E05048005D2844C5B2601CC4B26E
S31508000F00212CF7DB4C48005DA84268D14B480068A5
S31508000F10401C4A4908604848807E000200B246499B
S31508000F20497E084300EE100AB8EEC00A9FED441A3F
S31508000F30C0EE010A9FED430A20EE800A10EE106A01
S31508000F403046FFF71BFB41EC190B9FED3F0B53ECAB
S31508000F50102BFFF747F941EC180BFFF722FB3C492A
S31508000F6008603548007F000200B23349C97E08434D
S31508000F7000EE100AB8EEC00A9FED311AC0EE010A5B
S31508000F809FED300A20EE800A10EE106A3046FFF711
S31508000F90F5FA41EC190B9FED2F0B53EC102BFFF7CD
S31508000FA0C2F941EC180BFFF7FCFA2C4908602248F5
S31508000FB0807F000200B22049497F084300EE100AEC
S31508000FC0F8EEC00A9FED1E1A80EE810ADFED1D0AB3
S31508000FD020EE200A224880ED000A1D4800E028E09D
S31508000FE0D0ED000A1F4890ED001A70EEC10AB0EE67
S31508000FF0600A03F051F91C4880ED000A144890ED88
S31508001000000A184880ED000A1448D0ED000A17486F
S3150800101090ED001A70EEC10AB0EE600A03F06EF9A0
S31508001020134880ED000A0D4890ED000A0F4880ED40
S31508001030000ABDEC048B70BD2C04002008010020BA
S3150800104000000047000034439A9999999999E13F1D
S31508001050FC000020333333333333E33F00010020F1
S3150800106004010020100100209C000020140100202B
S31508001070A00000200146002901DD084670474842C5
S31508001080FCE700BFFEE7000000B585B00121084671
S3150800109000F08AF84FF40040009000208DF8040014
S315080010A003208DF8050000208DF8060001208DF834
S315080010B0070069461548FFF79BFE0121880300F0E3
S315080010C093F80F21002000F077F94FF400400290C2
S315080010D000208DF80C000C208DF80D0001208DF8ED
S315080010E00E0002A8FFF73AFE28208DF8100001200E
S315080010F08DF8110002208DF8120001208DF81300DA
S3150800110004A800F009F805B000BD00000000024080
S3150800111000BFFEE77047000070B5002100230F22CC
S31508001120C4781CB3174C246804F4E064C4F5E0647E
S31508001130C4F30721C1F10404E3B20A4144789C4090
S31508001140E1B28478144021430C07210E0E4C057831
S315080011506155047804F01F050124AC4005786D112B
S31508001160AD0005F1E025C5F8004109E0047804F072
S315080011701F050124AC40054D0678761145F8264032
S3150800118070BD00000CED00E000E400E080E100E046
S3150800119002490143024A1160704700000000FA053F
S315080011A00CED00E07047000029B1064A12680243B8
S315080011B0044B1A6004E0034A12688243014B1A6022
S315080011C0704700003038024029B1064A12680243C7
S315080011D0044B1A6004E0034A12688243014B1A6002
S315080011E0704700004038024029B1064A1268024397
S315080011F0044B1A6004E0034A12688243014B1A60E2
S315080012007047000044380240F0B50021002200244F
S31508001210022500260223324F3F6807F00C0121B150
S31508001220042905D0082937D105E02E4F076036E096
S315080012302D4F076033E02A4F3F1F3F68C7F380569C
S31508001240274F3F1F3F6807F03F036EB1264FB7FB96
S31508001250F3F7DFF88CC0ACF1040CDCF800C0CCF373
S31508001260881C07FB0CF40CE01E4FB7FBF3F7DFF8FE
S3150800127070C0ACF1040CDCF800C0CCF3881C07FB8A
S315080012800CF4174F3F1F3F68C7F301477F1C7D00CB
S31508001290B4FBF5F7076002E0124F076000BF00BF16
S315080012A00F4F3F6807F0F0010909104F7A5C07688D
S315080012B0D74047600A4F3F6807F4E051890A0B4F49
S315080012C07A5C4768D7408760054F3F6807F46041F6
S315080012D0490B064F7A5C4768D740C760F0BD0000E7
S315080012E0083802400024F40000127A0000000020AA
S315080012F000B587B001210846FFF766FF01214804BB
S31508001300FFF762FF072202212748FFF7B9FD0722E8
S3150800131003212548FFF7B4FD0C20059002208DF81F
S3150800132018008DF8190000208DF81A0001208DF894
S315080013301B0005A91C48FFF75BFD1C4801904FF4EC
S315080013408050ADF808004000ADF80A00C010ADF8AE
S315080013500C000020ADF810000C20ADF80E0001A915
S31508001360134800F0EBFF0121114800F07EFF01222F
S3150800137040F225510E4800F0BBFF012240F22441FD
S315080013800B4800F0B5FF26208DF8000001208DF8E7
S31508001390010002208DF8020001208DF8030068463E
S315080013A0FFF7BAFE07B000BD00000240A0860100A4
S315080013B0004400407047000030B500228B071C0F20
S315080013C00F2303FA04F20B4B8C1053F82430934383
S315080013D0084C8D1044F8253023468C1053F82430D9
S315080013E08C07240F00FA04F42343024C8D1044F8AA
S315080013F0253030BD08380140017E0C2901D0012175
S3150800140000E00021564A11808178C27841EA02211B
S31508001410C1F30A01524A5180C178C910027941EADA
S315080014204211C1F30A014E4A918001798911427924
S3150800143041EA8201827941EA8221C1F30A01484AD6
S31508001440D18081794910C27941EAC211C1F30A01F2
S31508001450434A1181C1790911027A41EA0211C1F39D
S315080014600A013F4A5181017AC911427A41EA420189
S31508001470827A41EA4221C1F30A01394A9181817A85
S315080014808910C27A41EA8211C1F30A01344AD1812C
S31508001490C17A4911027B41EAC201314A1182417B74
S315080014A0827B41EA0221C1F30A012D4A5182817BDE
S315080014B0C910C27B41EA4211C1F30A01284A918246
S315080014C0C17B8911027C41EA8201427C41EA822180
S315080014D0C1F30A01224AD182417C4910827C41EA41
S315080014E0C211C1F30A011E4A1183817C0911C27C0B
S315080014F041EA0211C1F30A01194A5183C17CC91193
S31508001500027D41EA4201427D41EA4221C1F30A01D4
S31508001510134A9183417D8910827D41EA8211C1F384
S315080015200A010F4AD183817D4911C27D41EAC20170
S315080015300B4A11841146098801290CD11146C9881C
S3150800154049B11146C98840F2A462914203D00121EB
S31508001550044A117002E00021024A11707047000027
S31508001560E0030020D10000200CB500200190009077
S315080015703448006840F480303249086000BF31487A
S31508001580006800F4003000900198401C0190009813
S3150800159018B90198B0F5A04FF1D12A48006800F4AF
S315080015A0003010B10120009001E000200090009862
S315080015B0012846D123484030006840F08050214930
S315080015C0403108602048006840F440401E490860E1
S315080015D01C48083000681B4908310860084600683E
S315080015E040F4004008600846006840F4A0500860CF
S315080015F01648091F0860081F006840F08070091F18
S31508001600086000BF0F48006800F000700028F9D095
S3150800161040F205700E4908600A480830006820F054
S3150800162003000849083108600846006840F00200CF
S31508001630086000BF03480830006800F00C0008285E
S31508001640F8D10CBD0038024000700040085440072D
S31508001650003C0240042808D14FF0E021096941F016
S3150800166004014FF0E022116107E04FF0E02109691B
S3150800167021F004014FF0E022116170477047000025
S3150800168010B51548006840F47000134908601348FF
S31508001690006840F001001149086000200F49083130
S315080016A008600E4800680E4908400C4908600D4855
S315080016B0091D0860081F006820F48020091F0860BB
S315080016C0002006490C310860FFF74EFF4FF0006016
S315080016D001498039086010BD88ED00E000380240F5
S315080016E0FFFFF6FE1030002400B593B001216F48C5
S315080016F000F0B8F9012828D101216C4800F08BF9CF
S315080017006B480068401C6A490860084600686949D1
S31508001710884202D10020664908606748007818B9EF
S3150800172000206649086004E064480068401C634974
S3150800173008606348007818B900206249086004E028
S3150800174060480068401C5F4908600221574800F05D
S3150800175089F9012858D10221544800F059F9022183
S31508001760524800F058F95448007898B95648006825
S3150800177080F400705449086001204F4908704B48AE
S3150800178000F067F940B2514908700221474800F055
S31508001790C1F939E04C48006880F400704A4908608D
S315080017A0002045490870414800F053F9474909782F
S315080017B0401A40B2454908702C22454908A8FEF748
S315080017C0FFFC3E48006800EB8000404991F9001094
S315080017D001EB40004FF4AA71484342F21071B0FB86
S315080017E0F1F00990394890F900001C220CA90A90DA
S315080017F06846FEF7E5FC08A80FC802F0F1FC0021D0
S315080018002A4800F087F900BF0421284800F02AF981
S31508001810012849D10421254800F0FAF8284800781B
S3150800182068B9012026490870204800F015F940B229
S315080018302849087002211D4800F0D0F934E000203C
S315080018401F490870194800F007F922490978401A13
S3150800185040B2204908702C221D492C3108A8FEF7F1
S31508001860AFFC1848006800EB80001A4991F900108F
S3150800187001EB40004FF4AA71484342F21071B0FBE5
S31508001880F1F00990134890F900001C220CA90A905F
S315080018906846FEF795FC08A80FC802F0A1FC0021CF
S315080018A0024800F09BF900BF13B000BD000C0040D1
S315080018B0D4000020A0860100D9000020DC0000200A
S315080018C0E1000020E400002014140240D8000020A3
S315080018D0B8430008E000002010B50121094800F0CF
S315080018E0C1F801280CD10121064800F094F80648F1
S315080018F0D0E90020521C40F100000349C1E900204C
S3150800190010BD000000100040280100207FB50446E5
S315080019100D4601211020FFF757FCA8B2ADF80400C8
S315080019200020ADF806000294ADF80C0001A90D4898
S3150800193000F01AFA012211460A4800F0A4F801211B
S31508001940084800F06BF836208DF8000000208DF866
S3150800195001008DF8020001208DF803006846FFF7A4
S31508001960DBFB7FBD0010004010B52DED028B042176
S315080019701E4800F077F8C0B104211C4800F04BF867
S315080019801A4800F069F800EE100AB8EE408A1848BE
S3150800199090ED000AB8EEC00A38EE000ABCEEC00A9E
S315080019A010EE101A114800F0D8F910210F4800F06F
S315080019B059F8C0B110210D4800F02DF80B4800F079
S315080019C04EF800EE100AF8EE408A0A4890ED000A32
S315080019D0B8EEC00A38EE800ABCEEC00A10EE101A3D
S315080019E0024800F0BEF9BDEC028B10BD00040140B0
S315080019F0680000206C00002021B1028842F08002B5
S31508001A00028004E002884FF67F731A40028070470E
S31508001A10CA4302827047CA430282704721B10288CC
S31508001A2042F00102028004E002884FF6FE731A4073
S31508001A300280704731B1B0F8442042F40042A0F861
S31508001A40442005E0B0F84420C2F30E02A0F8442072
S31508001A5070470146486B70470146886B70470146D8
S31508001A60086C704730B50246002000230024158A0A
S31508001A7005EA0103958905EA010413B10CB10120B1
S31508001A8000E0002030BD1AB183890B43838102E050
S31508001A9083898B438381704770B500240022002315
S31508001AA0058C4FF6FE7635400584028C8388048BB8
S31508001AB04FF68F752C40B51E2C400D882C43751E8D
S31508001AC02A408D892A434D882A43104DA84202D0C0
S31508001AD00F4DA84213D14FF6F7752A40CD892A43F0
S31508001AE04FF6FB752A408D882A434FF6FF652B4033
S31508001AF04FF6FF552B400D8A2B434D8A2B43838087
S31508001B0004838D684563028470BD000000000140AF
S31508001B10000401400A460021018C4FF6FD73194066
S31508001B201143018470470A460021018B4FF6F7736B
S31508001B30194011430183704770B500240022002321
S31508001B40058C4FF6EF7635400584028C8388048B26
S31508001B5048F6FF752C404FF6FF452C400D884FF68A
S31508001B60FF7606EA05252C434FF6DF752A408D8950
S31508001B7006EA05152A434D8806EA05152A43154D32
S31508001B80A84202D0144DA8421DD14FF67F752A40AF
S31508001B90CD894FF6FF7606EA05152A434FF6BF7537
S31508001BA02A408D8806EA05152A434FF6FF352B404D
S31508001BB04FF2FF752B400D8A06EA85052B434D8AA1
S31508001BC006EA85052B43838004838D688563028432
S31508001BD070BD000000000140000401400A460021D3
S31508001BE0018C4FF6DF7319404FF6FF7303EA0213B1
S31508001BF01943018470470A460021018B4FF2FF738F
S31508001C0019404FF6FF7303EA02231943018370470D
S31508001C1070B5002400220023058C4FF6FF66354078
S31508001C200584028C8388848B4FF68F752C404FF67B
S31508001C30FC752C400D882C434FF6FF552A408D899C
S31508001C404FF6FF7606EA05252A434D8806EA052556
S31508001C502A43154DA84202D0144DA8421DD14FF271
S31508001C60FF752A40CD894FF6FF7606EA05252A43F1
S31508001C704FF6FF352A408D8806EA05252A434EF693
S31508001C80FF752B404DF6FF752B400D8A06EA0515A4
S31508001C902B434D8A06EA05152B43838084838D687A
S31508001CA0C563028470BD00000000014000040140C5
S31508001CB00A460021818B4FF6F77319401143818339
S31508001CC07047000070B5002200230024058C4EF6EC
S31508001CD0FF7635400584038C8488828B48F6FF7529
S31508001CE02A404FF6FF452A400D884FF6FF7606EA4A
S31508001CF005252A434DF6FF752B408D8906EA0535DD
S31508001D002B434D8806EA05352B430A4DA84202D0D7
S31508001D10094DA84208D14BF6FF752C400D8A4FF69F
S31508001D20FF7606EA85152C43848082838D680564D0
S31508001D30038470BD00000140000401400A460021EA
S31508001D40818B4FF2FF7319404FF6FF7303EA0223A4
S31508001D501943818370474163704781637047C16344
S31508001D60704701647047000000220288184B9842A9
S31508001D700ED0184B98420BD0B0F1804F08D0164BB6
S31508001D80984205D0154B984202D0154B984204D17B
S31508001D904FF68F731A404B881A43124B984207D056
S31508001DA0114B984204D04FF6FF431A400B891A4349
S31508001DB002804B68C3620B880385054B984202D0A4
S31508001DC0044B984201D18B7A03860123838270479C
S31508001DD000000140000401400004004000080040E3
S31508001DE0000C0040001000400014004070B5054685
S31508001DF00E4600240CE0295D074800F009FB00BFE9
S31508001E008021054800F03DFA0128F9D1601CC4B2CA
S31508001E10B442F0DB70BD0000001001402DE9F0412E
S31508001E202DED028B044600260027B0466078AA28C6
S31508001E3077D1A078FF2802D0A0780528F8D1012606
S31508001E4008E0A05D3844C7B208EB070000F0FF08B9
S31508001E50701CC6B22079401DB042F2DC2079401DC4
S31508001E60205CB84204D12079801D205C404503D00F
S31508001E70BDEC028BBDE8F081E078E12847D1B4F8E3
S31508001E8005500D2D21D006DC012D0BD00B2D0ED0C3
S31508001E900C2D36D112E00E2D1ED00F2D23D0102D6D
S31508001EA02FD127E00521284601F0B0FC2EE08D4809
S31508001EB000680168284601F0A9FC27E08A480068FE
S31508001EC00168284601F0A2FC20E0884800680168FD
S31508001ED0284601F09BFC19E08548006801682846F9
S31508001EE001F094FC12E0834800680168284601F076
S31508001EF08DFC0BE0804800680168284601F086FCE6
S31508001F0004E02946284601F081FC00BFE8E0E078B5
S31508001F10E228FBD1B4F80550A5F10B0006282AD211
S31508001F2000E034E0DFE800F003090F151B21D4F8C0
S31508001F3007006C49096808601EE0D4F807006A497A
S31508001F400968086018E0D4F8070068490968086055
S31508001F5012E0D4F807006649096808600CE0D4F86E
S31508001F60070064490968086006E0D4F80700624972
S31508001F700968086000E000BF00BF23799B1DE25C8A
S31508001F8023795B1DE15CE07801F09CFCA8E06078B1
S31508001F9067286ED1E0783D286BD1A07831280ED11C
S31508001FA00021201D00F01CFBB0EE408AF0EE608A8E
S31508001FB051EC180BFEF7F5FA504948607DE0A07819
S31508001FC032280ED10021201D00F00AFBB0EE408A0F
S31508001FD0F0EE608A51EC180BFEF7E3FA4749886081
S31508001FE06BE0A07833280ED10021201D00F0F8FA06
S31508001FF0B0EE408AF0EE608A51EC180BFEF7D1FA83
S315080020003E49C86059E0A07834280ED10021201D29
S3150800201000F0E6FAB0EE408AF0EE608A51EC180B52
S31508002020FEF7BFFA3549086147E0A07835280ED192
S315080020300021201D00F0D4FAB0EE408AF0EE608A46
S3150800204051EC180BFEF7ADFA2C49486135E0A0783B
S3150800205036280FD10021201D00F0C2FAB0EE408AC2
S31508002060F0EE608A51EC180BFEF79BFA234988615B
S3150800207023E035E0A07837280ED10021201D00F096
S31508002080AFFAB0EE408AF0EE608A51EC180BFEF714
S3150800209088FA1A49C86110E0A07838280DD10021BD
S315080020A0201D00F09DFAB0EE408AF0EE608A51ECF1
S315080020B0180BFEF776FA11490862002002E00021A3
S315080020C02154401C0F28FADB0C4890ED010A0C48F5
S315080020D080ED000A094890ED020A0A4880ED000AD8
S315080020E000BFC5E62C000020300000203400002088
S315080020F0380000203C000020400000203401002069
S31508002100940000209800002070B5002540F2255163
S315080021101A4800F0C3F870B118488088C4B2184845
S3150800212001780078401C164A107016484454214617
S31508002130124800F06DF940F22531104800F0AEF86B
S3150800214020B140F225310D4800F086F840F22441CE
S315080021500A4800F0A3F880B108480088C5B20748C5
S315080021608088C5B206480078401E064908700120D6
S31508002170034908700348FFF751FE70BD001001407F
S31508002180EC0000200404002070B5002540F225511B
S31508002190144800F083F860B11248001D0088C4B2E4
S315080021A0114801780078401C0F4A10700F484454B3
S315080021B017E040F224410B4800F070F888B109484E
S315080021C00088C5B20748001D0088C5B206480078D1
S315080021D0401E064908700120034908700348FFF7A6
S315080021E00BF970BD00440040D2000020C603002051
S315080021F070B5002540F22551144800F04FF860B13B
S315080022001248001D0088C4B2114801780078401CA5
S315080022100F4A10700F48445416E040F224410B4808
S3150800222000F03CF880B109480088C5B20748001D8F
S315080022300088C5B206480078401E06490870012085
S3150800224003490870FEF744FE70BD000000480040D0
S315080022500C0100202C04002001F40072B2F5007F66
S3150800226000D100BFCA430280704721B1828942F477
S315080022700052828104E082894DF6FF731A408281FA
S31508002280704702460020B1F5007F00D100BF1388D1
S315080022900B400BB1012000E00020704770B50246E4
S315080022A0002400230025002040F66A16B14200D11A
S315080022B000BFC1F3421501F01F03012606FA03F316
S315080022C0012D02D19689334006E0022D02D1168AE5
S315080022D0334001E0968A33400C12012606FA04F4CC
S315080022E01688344013B10CB1012000E0002070BDFF
S315080022F0F0B50346002400260025002040F66A179C
S31508002300B94200D100BF1846C1F3421401F01F06B6
S31508002310012707FA06F5012C01D10C3004E0022C3E
S3150800232001D1103000E014301AB107682F43076056
S3150800233002E00768AF430760F0BD00002DE9FF47DC
S3150800234005460E460024A14600BFA046B08900B146
S3150800235000BF2C8A24F44054F08804432C82AC89AC
S3150800236041F20C608443B088318908437189084377
S315080023700443AC81AC8A24F44074B0890443AC822B
S315080023806846FEF741FF2048854202D01F4885422D
S3150800239002D1DDF80C9001E0DDF80890A88900F478
S315080023A0004040B109EBC90000EB0910316849004B
S315080023B0B0FBF1F707E009EBC90000EB091031683B
S315080023C08900B0FBF1F76420B7FBF0F0040120099F
S315080023D0642101FB1078A88900F4004040B132203E
S315080023E000EBC800B0FBF1F000F00700044308E07A
S315080023F0322000EB08106421B0FBF1F000F00F006A
S3150800240004432C81BDE8FF870010014000140140F9
S31508002410C1F308028280704700BFFEE703B4019843
S315080024204100009850EAC12018BF04204A0D18BF81
S3150800243040F0010040F2FF72B2EB515F08BF40F076
S315080024400200012808BF052002B0704700000000FE
S3150800245010B52F499FED2C1B2DED020B84B0059866
S3150800246020F000408842D8BF9DED040B2DDD294998
S31508002470884209D1049840B94FF0010000F0D0FE17
S3150800248000F09EFE06B010BD05DB9DED040B00F0C6
S315080024908BFE06B010BD68469DED040B00F0F4F8FF
S315080024A010F0030004BF9DED021B9DED000B0CD040
S315080024B001280ED09DED021B9DED000B022817D0BA
S315080024C0012000F031FC06B010BD00F0F9FA06B0A4
S315080024D010BD9DED021B9DED000B012000F024FCB4
S315080024E051EC100B81F0004106B041EC100B10BD09
S315080024F000F0E6FA51EC100B81F0004106B041EC11
S31508002500100B10BD000000000000000000000000D5
S31508002510FB21E93F0000F07F10B52F499FED2C1BEA
S315080025202DED020B84B0059820F000408842DCBFF0
S3150800253000209DED040B32DD2849884209D1049814
S3150800254040B94FF0010000F06BFE00F039FE06B00E
S3150800255010BD05DB9DED040B00F026FE06B010BD90
S3150800256068469DED040B00F08FF810F0030011D0BB
S31508002570012818D09DED021B9DED000B02281AD0EC
S3150800258000F09EFA51EC100B81F0004106B041ECC8
S31508002590100B10BD9DED021B9DED000B012000F0F8
S315080025A0C3FB06B010BD9DED021B9DED000B00F0B0
S315080025B087FA06B010BD012000F0B6FB51EC100BEF
S315080025C081F0004106B041EC100B10BD0000000080
S315080025D00000000000000000FB21E93F0000F07F3A
S315080025E000B583B09FED060B0A4601468DED000B3C
S315080025F06846FEF73EF89DED000B03B000BD0000EF
S31508002600000000000000000010B51D499FED1A1BD0
S315080026102DED020B84B0059820F000408842DCBFFF
S3150800262001209DED040B21DD1649884209D1049845
S3150800263040B94FF0010000F0F3FD00F0C1FD06B00F
S3150800264010BD05DB9DED040B00F0AEFD06B010BD18
S3150800265068469DED040B00F017F800F00100012113
S31508002660A1EB40009DED021B9DED000B00F0F4FB75
S3150800267006B010BD000000000000000000000000C9
S31508002680FB21E93F0000F07F2DE9F14F04462DEDCF
S31508002690020B2DED088B8AB09FEDE70B80ED020B40
S315080026A0139EE74826F0004585420ADC9DED120B8D
S315080026B0002084ED000B0AB0BDEC088B03B0BDE822
S315080026C0F08FE0489FEDE0AB9FEDE1BBA84247DD08
S315080026D0E14F9FEDE39B9FEDE48B9DED120B53ECD1
S315080026E01A2B51EC100B002E1CDDFDF71CFE41ECDD
S315080026F0100BBD4208D053EC1B2B51EC100BFDF709
S3150800270012FEC4E900010BE053EC192B51EC100B37
S31508002710FDF709FE53EC182BFDF705FEC4E9000189
S315080027200120C8E7FDF75EFD41EC100BBD4208D05D
S3150800273053EC1B2B51EC100BFDF754FDC4E90001BB
S315080027400BE053EC192B51EC100BFDF74BFD53EC3A
S31508002750182BFDF747FDC4E900014FF0FF30AAE743
S31508002760C348A84279DB9DED120B51EC100B00F023
S31508002770C5FD41EC180B9FEDC00B53EC102BFDF774
S31508002780D8FD9FEDBF1B53EC112BFDF72BFDFDF775
S31508002790D6FE0746FDF7AEFE41EC190B53EC1A2B95
S315080027A0FDF7C7FD53EC182BFDF7C0FD41EC180BE0
S315080027B053EC1B2B51EC190BFDF7BBFDDFF8C8A238
S315080027C041EC100B4FEA15580125FA4453EC102B2F
S315080027D051EC180BFDF7A7FD032DC4E900013DD008
S315080027E0C1F30A5005EB4511A8EB000011398142E7
S315080027F034DA0AEB051BB0EE48AA9BED000BF0EEA7
S3150800280068AA53EC102B51EC190BFDF792FD41EC1D
S315080028101B0B51EC1A0B53EC1B2BFDF784FD41ECFB
S31508002820180B51EC1A0B53EC182BFDF77CFD53ECE7
S315080028301B2BFDF778FD9BED020B41EC1A0B53ECB5
S31508002840102B51EC190BFDF774FD53EC1A2BFDF701
S315080028506AFD41EC100B6D1CB8E70EE0002EA8BF10
S315080028603846BFF628AF94ED000B51EC100B81F0FB
S315080028700041C4E9000178421DE7C6F3130040F49D
S31508002880801EC6F30A50A0F2F530471100F01F0566
S31508002890C5F12000DDF848B00890002006900790A2
S315080028A00520EC467949002D07EB0002794408BF5C
S315080028B051F8221009D051F8223001EB8201AB40C1
S315080028C04A68089922FA01F11943A1FB0E26A1FBD1
S315080028D00B131A449A4234BF0123002303EB06085C
S315080028E00CEB8003D3E901A60E448E4234BF0121C6
S315080028F0002192448A4411B1924502D903E09245D7
S3150800290001D2012100E00021C3E901A641444CF8A7
S315080029102010011EA0F10100C4DC029800F100504D
S31508002920850F0298DDE903678000DDF81480FDF75E
S31508002930E1FD41EC1A0B3046FEF736F99FED541BC4
S3150800294053EC112BFDF7F5FC41EC1B0B3846FEF753
S315080029502BF99FED511B53EC112BFDF7EAFC41ECCB
S31508002960180B4046FEF720F99FED4D1B53EC112B33
S31508002970FDF7DFFC41EC190B51EC180B53EC192B46
S31508002980FDF730FC53EC1B2BFDF72CFC53EC1A2BF4
S31508002990FDF728FCCDE90801002008909DED080BFD
S315080029A053EC1A2B51EC100BFDF7BDFC53EC1B2B0B
S315080029B0FDF7B9FC53EC182BFDF7B5FC53EC192BB6
S315080029C0FDF7B4FC9FED381B53EC112BFDF7B1FC5A
S315080029D09FED370B41EC180B53EC102B9DED080BB4
S315080029E051EC100BFDF7A5FC53EC182BFDF7FAFB81
S315080029F09FED310B41EC180B53EC102B9DED080B9A
S31508002A0051EC100BFDF795FC53EC182BFDF7EAFB80
S31508002A1041EC100B139810F0004F06D06D4251ECA4
S31508002A20100B81F0004141EC100B284684ED000B99
S31508002A3041E6000000000000000000000000000061
S31508002A40FB21E93F7CD9024000004054FB21F93FB5
S31508002A503163621A61B4D03DFB21F93F00000000E2
S31508002A600000601A61B4D03D7370032E8A19A33B27
S31508002A70FB2139410000000083C8C96D305FE43F7F
S31508002A80000000000000E03F721C0000C01B0000B0
S31508002A90000000000000103E000000000000103C8E
S31508002AA0000000000000103A182D4454FB21F93D9F
S31508002AB03326A611460B113C00000054FB21F93DB4
S31508002AC010B52DED040B2DED088B82B0B0EE419AB2
S31508002AD0F0EE619A0B9820F000449FED4BABB4F1F1
S31508002AE0795F11DA9DED0A0B51EC100BFDF727FD06
S31508002AF0002801BFB0EE4A0AF0EE6A0A02B0BDEC41
S31508002B00088B04BF04B010BD9DED0A0B53EC102BC7
S31508002B1051EC100BFDF70DFC41EC180B3C48062157
S31508002B20B0EE480AF0EE680A784400F081F853ECF3
S31508002B30182B51EC100BFDF7FCFB9DED0A0B41EC35
S31508002B401B0B53EC192B51EC100BFDF7F2FB41EC68
S31508002B50190B53EC1B2B51EC180BFDF7EAFB53EC46
S31508002B60192BFDF7E0FB9FED2C0B41EC190B53ECF1
S31508002B70102B51EC180BFDF7DCFB41EC100B284829
S31508002B80844210DA53EC192B51EC100BFDF7CBFBF2
S31508002B9053EC1A2BFDF7CAFB41EC100B02B0BDEC47
S31508002BA0088B04B010BD1F48A042BCBF9FED1E1B7A
S31508002BB08DED001B06DBA4F50010019000200090A7
S31508002BC09DED001B51EC100B53EC112BFDF7ABFBE5
S31508002BD09DED000B41EC180B53EC102B51EC1A0B26
S31508002BE0FDF7A1FB41EC1A0B53EC192B51EC180B12
S31508002BF0FDF799FB53EC1A2BFDF798FB41EC100BEC
S31508002C00CCE7000000000000000000000000F03FD4
S31508002C10E418000000000000000000000000E03F8B
S31508002C203333D33F0000E93F000000000000D23FE5
S31508002C3070B504462DED028B4D1E00EBC500B0EEB7
S31508002C40408AF0EE608A90ED000B35F0060017D04A
S31508002C5053EC182B51EC100BFDF76BFB41EC100BEA
S31508002C606D1E04EBC50090ED001B51EC100B53ECE8
S31508002C70112BFDF7B7FA41EC100B35F00600E7D13A
S31508002C80022D36D0042D1CD0062D1CBFBDEC028BA0
S31508002C9070BD53EC182B51EC100BFDF74AFB94ED65
S31508002CA00A1B53EC112BFDF79DFA53EC182BFDF775
S31508002CB040FB94ED081B53EC112BFDF793FA41ECFE
S31508002CC0100B53EC182B51EC100BFDF732FB94ED5F
S31508002CD0061B53EC112BFDF785FA53EC182BFDF761
S31508002CE028FB94ED040B53EC102BFDF77BFA41EC13
S31508002CF0100B53EC182B51EC100BFDF71AFB94ED47
S31508002D00021B53EC112BFDF76DFA53EC182BFDF74C
S31508002D1010FB94ED001B53EC112BFDF763FABDEC89
S31508002D20028B41EC100B70BD31B504462DED040B3A
S31508002D302DED0A8BB0EE41BAF0EE61BA0B989DED17
S31508002D400A0B20F00040B0F1795F0DDA51EC100B58
S31508002D50FFF764FB042808BF00F042FA9DED0A0B52
S31508002D60BDEC0A8B05B030BD53EC102B51EC100BA3
S31508002D70FDF7DFFA41EC180B9DED0A0B53EC182B07
S31508002D8051EC100BFDF7D5FA41EC190B2C48B0EEB7
S31508002D90480AF0EE680A05217844FFF749FF9FEDD7
S31508002DA02ACBB0EE40AAF0EE60AA9CB353EC1C2BDB
S31508002DB051EC190BFDF7BDFA41EC1C0B53EC1A2B21
S31508002DC051EC190BFDF7B5FA9FED210B41EC190BE8
S31508002DD053EC102B51EC1B0BFDF7ABFA53EC192BEC
S31508002DE0FDF7A1FA53EC182BFDF7A3FA53EC1B2BAE
S31508002DF0FDF799FA53EC1C2BFDF795FA9DED0A1B86
S31508002E0053EC112BFDF792FABDEC0A8B05B041EC99
S31508002E10100B30BDFFE753EC1A2B51EC180BFDF7DE
S31508002E2088FA53EC1C2BFDF7DDF953EC192BFDF74B
S31508002E3080FA9DED0A1B53EC112BFDF7D3F9E3E756
S31508002E406C17000000000000495555555555C5BF7B
S31508002E50000000000000E03FF1B506462DED040B2A
S31508002E60BD482DED0C8B8AB0B0EE418AF0EE618A32
S31508002E70179D25F000449FEDBABB9FEDBBCB84425E
S31508002E8008DA9DED160B51EC100BFDF758FB0028E0
S31508002E9000F0E980B64FA74231DC002D0DDA9DED32
S31508002EA0160B51EC100B81F00041CDE9160151ECDF
S31508002EB0180B81F0004141EC180B9FEDAF0B53EC5A
S31508002EC0102B9DED160B51EC100BFDF72FFA53EC5A
S31508002ED0182B9FEDAB0BCDE9040151EC100BFDF758
S31508002EE022FA41EC100B53EC102B9DED040B51EC20
S31508002EF0100BFDF777F99FEDA48BCDE916019DED33
S31508002F00160B53EC102B51EC100BFDF712FACDE90A
S31508002F1004019DED040B53EC102B51EC100BFDF73F
S31508002F2008FA41EC190B9A480621B0EE490AF0EE68
S31508002F30690A7844FFF77CFE9648B0EE40DAF0EE70
S31508002F4060DAB0EE490AF0EE690A06217844FFF71E
S31508002F506FFE9DED041B51EC100B53EC112BFDF786
S31508002F60E8F99DED040B41EC1A0B53EC102B9DED83
S31508002F70160B51EC100BFDF7DCF941EC190B53EC71
S31508002F801A2B51EC1D0BFDF72DF953EC192BFDF7F8
S31508002F90D0F953EC182BFDF725F99DED041B53ECDE
S31508002FA0112BFDF7C6F953EC182BFDF71BF941EC6D
S31508002FB0180B9FED790B51EC190B53EC102BFDF701
S31508002FC0B8F953EC182BFDF70DF941EC190B9DEDEB
S31508002FD0160B53EC192B51EC100BFDF703F941ECCA
S31508002FE0180BA74269DC3046FDF784FA41EC1A0B48
S31508002FF051EC180B53EC1A2BFDF7F4F841EC1B0BAC
S3150800300053EC182B51EC180BFDF793F953EC1B2BCB
S31508003010FDF701FA53EC192BFDF785F99DED161B03
S3150800302053EC112BFDF782F99FED5D1B53EC112B29
S31508003030FDF77FF953EC1A2BFDF778F941EC180BDD
S31508003040022000EAA570C0F10100FDF753FA53EC1F
S31508003050182BFDF76EF900BF41EC100B0AB0BDEC5A
S315080030600C8B05B0F0BD711C1698214308430CD093
S315080030709DED160B012E1CBF53EC102B51EC1C0BAF
S3150800308010D000BFFDF7C7F9E6E79DED160B51EC2A
S31508003090100B00F033F941EC100B51EC1B0B53EC01
S315080030A0102BEFE751EC100BFFF7B8F9042808BF0F
S315080030B000F096F89DED160BD0E7012E04BFB0EE92
S315080030C0480AF0EE680AC9D08DED048B00240494F2
S315080030D09DED040B53EC102B9DED160B51EC100BCC
S315080030E0FDF724F953EC192BFDF720F941EC190BE0
S315080030F053EC182B51EC1C0BFDF78DF941EC180B12
S315080031008DED008B00949DED040B53EC102B9DED7B
S31508003110000B51EC100BFDF70CF953EC1B2BFDF7CC
S3150800312061F89DED000B41EC1A0B53EC192B51EC91
S31508003130100BFDF7FEF853EC1A2BFDF753F853EC7A
S31508003140182BFDF7F6F89DED001B53EC112BFDF738
S3150800315049F881E7000000000000303E000000004A
S31508003160000000000000F03F000000000000F0BF73
S315080031702894E53F00000000182D4454FB21E93F40
S31508003180075C143326A6813C0000000000000000FE
S31508003190FA15000010160000635555555555D53FCC
S315080031A0000000000000004010B553EC102B51EC55
S315080031B0100BFDF717F841EC100B10BD00000000CE
S315080031C09FED050B10B553EC102B51EC100BFDF7CA
S315080031D022F941EC100B10BD0000000000000000B1
S315080031E09FED050B10B553EC102B51EC100BFDF7AA
S315080031F0A0F841EC100B10BD000000000000001004
S3150800320002E008C8121F08C1002AFAD170477047A1
S31508003210002001E001C1121F002AFBD170470000FF
S3150800322001490860704700003001002030380A283C
S3150800323001D20120704700207047000010B50446EF
S315080032406FF00400FEF706FAE11704EB5171C1F3BB
S31508003250C701074A11701046007800EB4001C1EB20
S31508003260C0104FF6FF7101EAC0000249088010BD80
S31508003270720000207400002070B504464FF40770F1
S3150800328094FBF0F0C6B24FF4077094FBF0F100FB24
S31508003290114085B205E04FF4077000F009F8701E7A
S315080032A0C6B2002EF7D115B1284600F001F870BD58
S315080032B00146114A12884A434FF0E0235A61002218
S315080032C09A611A46126942F001021A6100BF4FF06C
S315080032D0E022106900F001021AB100F48032002AD7
S315080032E0F5D04FF0E022126922F001024FF0E023F8
S315080032F01A6100229A6170477400002082B0CDE9F5
S31508003300000121F0004001909DED000B02B051EC48
S31508003310100B7047B8EE000A1D4880ED050A9FEDB0
S315080033201D0A80ED060A9FED1B0A80ED070A9FED30
S31508003330190A80ED0A0A9FED170A80ED0B0A9FED20
S31508003340150A80ED0C0A9FED130A80ED0D0A90ED23
S31508003350050A114880ED050A9FED0E0A80ED060A5A
S315080033600B4890ED070A0C4880ED070A9FED090AFD
S3150800337080ED0A0A9FED070A80ED0B0A9FED050A04
S3150800338080ED0C0A9FED030A80ED0D0A70470000D8
S31508003390F4010020000000002C02002010B52DEDDD
S315080033A0028BB0EE408AF0EE608A9FED3B0AB4EEDF
S315080033B0C08AF1EE10FA03DD9FED370AB0EE408AB7
S315080033C09FED360AB4EEC08AF1EE10FA03D29FEDED
S315080033D0330AB0EE408A9FED300AF4EEC08AF1EE69
S315080033E010FA03DD9FED2C0AF0EE408A9FED2B0ABA
S315080033F0F4EEC08AF1EE10FA03D29FED280AF0EE39
S31508003400408AB5EEC08AF1EE10FA0FDDBDEEC80AA5
S3150800341010EE100AFDF72EFE044621462048FEF758
S315080034209AFC00211E48FEF798FC0EE000211C4875
S31508003430FEF791FCBDEEC80A10EE100AFDF71AFE5B
S31508003440044621461648FEF788FCF5EEC08AF1EEDA
S3150800345010FA0FDD00211248FEF781FCBDEEE80ADE
S3150800346010EE100AFDF706FE044621460C48FEF744
S3150800347078FC0EE0BDEEE80A10EE100AFDF7FAFD3C
S31508003480044621460648FEF76AFC00210448FEF772
S3150800349068FCBDEC028B10BD00007A4400007AC4BB
S315080034A000040140B0EE401A30EEC10A144880ED1F
S315080034B0020A9FED140A80ED080A90ED020AD0ED83
S315080034C0031A30EE610A80ED040A90ED050AD0ED84
S315080034D0021A20EE210AD0ED061A90ED082A01EE0E
S315080034E0820AD0ED071A90ED042A01EE820A80EDD1
S315080034F0090A90ED020A80ED030A90ED090A704761
S31508003500F401002000000000B0EE401A30EEC10AB7
S31508003510144880ED020A9FED140A80ED080A90ED22
S31508003520020AD0ED031A30EE610A80ED040A90ED26
S31508003530050AD0ED021A20EE210AD0ED061A90ED02
S31508003540082A01EE820AD0ED071A90ED042A01EE48
S31508003550820A80ED090A90ED020A80ED030A90EDD1
S31508003560090A70472C020020000000002DE9FF41DF
S315080035700646002400250027AA222146641CA248E4
S315080035804254FF222146641C425406F1F000C2B29E
S315080035902146641C9C48425400222146641C42541D
S315080035A09DF804202146641C42549DF805202146B6
S315080035B0641C42549DF806202146641C42549DF81A
S315080035C007202046611CCCB28F490A549DF8082072
S315080035D02046611CCCB28C490A549DF80920204625
S315080035E0611CCCB288490A549DF80A202046611C01
S315080035F0CCB285490A549DF80B202146601CC4B2FA
S31508003600814842549DF80C202046611CCCB27E4964
S315080036100A549DF80D202046611CCCB27A490A54FA
S315080036209DF80E202046611CCCB277490A549DF8B5
S315080036300F202046611CCCB273490A549DF82820F5
S315080036402046611CCCB270490A549DF829202046B0
S31508003650611CCCB26C490A549DF82A202046611C8C
S31508003660CCB269490A549DF82B202046611CCCB27D
S3150800367065490A549DF82C202146601CC4B262484C
S3150800368042549DF82D202046611CCCB25E490A544E
S315080036909DF82E202046611CCCB25B490A549DF841
S315080036A02F202146601CC4B2574842549DF830204A
S315080036B02046611CCCB254490A549DF83120204654
S315080036C0611CCCB250490A549DF832202046611C30
S315080036D0CCB24D490A549DF833202046611CCCB221
S315080036E049490A549DF834202046611CCCB2464903
S315080036F00A549DF835202046611CCCB242490A542A
S315080037009DF836202146601CC4B23F4842549DF8B5
S3150800371037202046611CCCB23B490A549DF8382014
S315080037202046611CCCB238490A549DF839202046F7
S31508003730611CCCB234490A549DF83A202046611CD3
S31508003740CCB231490A549DF83B202046611CCCB2C4
S315080037502D490A549DF83C202046611CCCB22A49C2
S315080037600A549DF83D202046611CCCB226490A54CD
S315080037709DF83E202046611CCCB223490A549DF888
S315080037803F202046611CCCB21F490A549DF84020B0
S315080037902046611CCCB21C490A549DF8412020469B
S315080037A0611CCCB218490A549DF842202146601C77
S315080037B0C4B2154842549DF843202046611CCCB239
S315080037C011490A54201FC870002007E00E49095CF9
S315080037D02944CDB27919CFB2411CC8B20A49C97871
S315080037E0091D8142F2DC2046611CCCB206490D5403
S315080037F02046611CCCB204490F5421460248FEF704
S31508003800F5FABDE8FF8100005C01002073B50024CD
S3150800381000250026AA222146641C29484254AF22C4
S315080038202146641C4254E2222146641C425400226A
S315080038302146641C42549DF800202146641C4254CB
S315080038409DF801202146641C42549DF80420214617
S31508003850641C42549DF805202146601CC4B21848D1
S3150800386042549DF806202146601CC4B214484254AE
S315080038709DF807202046611CCCB211490A54201F26
S31508003880C870002007E00E49095C2944CDB27119B9
S31508003890CEB2411CC8B20A49C978091D8142F2DC78
S315080038A02046611CCCB206490D542046611CCCB298
S315080038B003490E5421460248FEF798FA7CBD0000DB
S315080038C05C0100202DE9F04706460F469046002485
S315080038D00025A146AA222146641C1E484254AF224E
S315080038E02146641C425400222146641C4254214647
S315080038F0641C42542146641C46542146641C4754A1
S315080039002146641C00F80180201F1249C870002057
S3150800391009E01049095C2944CDB209EB050101F01B
S31508003920FF09411CC8B20B49C978091D8142F0DC60
S315080039302046611CCCB207490D542046611CCCB206
S31508003940044901F8009021460248FEF74FFABDE8FF
S31508003950F08700005C0100201CB501211020FDF74E
S3150800396023FC0720009001208DF8040000208DF824
S31508003970060003208DF8050000208DF8070069462B
S315080039800748FDF735FA01210548FDF79CFA02219B
S315080039900348FDF798FA04210148FDF794FA1CBD7F
S315080039A0001002401CB501210420FDF7FDFB4FF471
S315080039B00050009001208DF8040000208DF80600C4
S315080039C003208DF8050000208DF807006946044895
S315080039D0FDF70EFA4FF400510148FDF776FA1CBDC3
S315080039E0000802401FB50220FDF7D2FBA820FFF70A
S315080039F025FC6846FDF708FC532140F2E730FDF741
S31508003A0085FFFDF741FBFFF7CDFFFFF7A5FF532124
S31508003A1040F2E73000F09EFAFFF77CFC4FF4E13005
S31508003A2000F024FBFDF764FC4FF4E13000F07CFB6A
S31508003A3001E000F0FDF9FCE77047704700B59DB05E
S31508003A402C222F4912A8FCF7BBFB2E4800781390AE
S31508003A502D4890ED000ADFED2D0A20EE200ABDEE76
S31508003A60C00A8DED140A2A4890ED000ADFED270AF0
S31508003A7020EE200ABDEEC00A8DED150A254890ED08
S31508003A80000ADFED250A20EE200ABDEEC00A8DEDFC
S31508003A90160A1C2216A96846FCF792FB12A80FC83C
S31508003AA000F09EFB2C2216492C3107A8FCF788FB50
S31508003AB01A4890ED020ABDEEC00A8DED080A1848AC
S31508003AC090ED020ABDEEC00A8DED090A134890ED85
S31508003AD0090ABDEEC00A8DED0A0A114890ED090AD9
S31508003AE0BDEEC00A8DED0B0A1C220BA96846FCF731
S31508003AF067FB07A80FC800F073FB1DB000BD0000E8
S31508003B006043000878000020FC0000200000C8423E
S31508003B10000100209C00002000007A44F4010020E7
S31508003B202C0200207047000010B52DED0C8B9D4827
S31508003B3090ED000AF3EE090AB4EEE00AF1EE10FA87
S31508003B401BDC90ED000AFBEE090AB4EEE00AF1EE82
S31508003B5010FA12D3944890ED000AF3EE090AB4EE6F
S31508003B60E00AF1EE10FA08DC90ED000AFBEE090A0D
S31508003B70B4EEE00AF1EE10FA02D200208B49087082
S31508003B808B48D0E90020521D40F100008849C1E960
S31508003B9000209FED880BFEF7BFFCB0EE409AF0EED2
S31508003BA0609A9FED860B53EC102B51EC190BFCF722
S31508003BB0C0FBFCF7F6FC834908609FED7E0BFEF719
S31508003BC047FCB0EE409AF0EE609A9FED7C0B53EC02
S31508003BD0102B51EC190BFCF7ACFBFCF7E2FC7A490D
S31508003BE00860734903C9FCF796FC9FED780B53EC04
S31508003BF0102BFCF79EFB9FED770B53EC102BFCF775
S31508003C000AFC41EC1B0BB0EE4B0AF0EE6B0AFEF712
S31508003C1083FCB0EE409AF0EE609A6A480068FCF7BA
S31508003C20ADFC53EC192BFCF784FBFCF7BAFC6B498B
S31508003C3008605F4903C9FCF76EFC9FED640B53EC03
S31508003C40102BFCF776FB9FED630B53EC102BFCF760
S31508003C50E2FB41EC1B0BB0EE4B0AF0EE6B0AFEF7EB
S31508003C605BFCB0EE409AF0EE609A57480068FCF7A5
S31508003C7085FC53EC192BFCF75CFBFCF792FC5849C6
S31508003C800860484890ED000ADFED560A30EE600AF3
S31508003C90DFED550A80EE201A11EE104A2046FCF791
S31508003CA06DFC9FED520B53EC102BFCF742FB41ECDD
S31508003CB01A0BB0EE4A0AF0EE6A0AFEF7A5FCB0EE59
S31508003CC0409AF0EE609A9FED4B0B53EC102B51EC9B
S31508003CD0190BFCF72EFBFCF764FC484908603248D0
S31508003CE090ED000ADFED3F0A30EE600ADFED3E0A8E
S31508003CF080EE201A11EE104A2046FCF73FFC9FED95
S31508003D003B0B53EC102BFCF714FB41EC1A0BB0EEF3
S31508003D104A0AF0EE6A0AFEF777FCB0EE409AF0EE31
S31508003D20609A9FED340B53EC102B51EC190BFCF7F2
S31508003D3000FBFCF736FC324908602848D0ED000A3B
S31508003D402E4890ED000AFFF7ADFB2548D0ED000A96
S31508003D502B4890ED000AFFF7D7FB14480078012896
S31508003D600CD1284890ED091AF0EE410A264890ED44
S31508003D70091AB0EE410AFFF711FB0FE000212348AC
S31508003D80FDF7E9FF00212148FDF7E7FF00211F485D
S31508003D90FDF7E5FF00211D48FDF7E3FFBDEC0C8BA1
S31508003DA010BD0000FC000020000100207800002063
S31508003DB0C00000206E861BF0F921E93F00000000D4
S31508003DC0001866407C000020800000206E861BF0EC
S31508003DD0F921194000000000008096408400002068
S31508003DE08800002000000000000034436E861BF0A7
S31508003DF0F921094000000000008888408C00002056
S31508003E00900000202C020020F4010020000401404C
S31508003E10704700000348006880F4005001490860B4
S31508003E20704700001408024070477047704700004A
S31508003E3010B5FFF701FE00BF4348D0E90010434B19
S31508003E400CCB514058400143F6D03F48D0E900100A
S31508003E503E4AC2E900103E484088401C3C4948801A
S31508003E6008468088401C88800846C088401CC88050
S31508003E7008460089401C088108464089401C48813C
S31508003E8008468089401C88810846C089401CC8812C
S31508003E900846008A401C08820846408A401C488218
S31508003EA008464088022803D100204880FFF7BCFF57
S31508003EB027488088052804D1002025498880FFF7EF
S31508003EC033FE2348C0880A2804D100202049C88028
S31508003ED0FFF7B3FD1E480089142804D100201C49A9
S31508003EE00881FFF7A2FF1A484089322804D100202A
S31508003EF017494881FFF78CFF15488089642804D143
S31508003F00002013498881FFF799FD1148C089C82800
S31508003F1004D100200E49C881FFF788FF0C48008AA3
S31508003F20B0F5FA7F04D1002009490882FFF772FF2D
S31508003F300748408AB0F57A7F04D1002004494882B0
S31508003F40FFF7F0FD10BD000028010020C800002082
S31508003F50B203002030B58BB004460D46012102207D
S31508003F60FDF742F901210420FDF71EF90322062177
S31508003F703C48FCF785FF032207213A48FCF780FFF7
S31508003F80032208213748FCF77BFF0322092135481D
S31508003F90FCF776FF4FF47070099002208DF8280020
S31508003FA003208DF8290000208DF82A0002208DF8BC
S31508003FB02B0009A92B48FCF71BFFA8B2ADF818007F
S31508003FC00020ADF81A000794ADF8200006A9264887
S31508003FD0FDF7CAFE7020ADF804000120ADF8060012
S31508003FE00220ADF8100001A91F48FDF755FD01A9EB
S31508003FF01D48FDF7A1FD01A91B48FDF709FE01A90A
S315080040001948FDF75FFE08211748FDF78CFD0821C2
S315080040101548FDF7F0FD08211348FDF749FE08216C
S315080040201148FDF78BFE01210F48FDF7E5FC01213C
S315080040300D48FDF7FFFC01210B48FDF7EFFC0021B9
S315080040400948FDF788FE00210748FDF786FE00218E
S315080040500548FDF784FE00210348FDF782FE0BB0F4
S3150800406030BD0000000802400004014010B588B0C9
S31508004070044601210846FDF797F801211020FDF7AF
S31508004080B3F8072209212648FCF7FAFE07220A2177
S315080040902348FCF7F5FE4FF4C060069002208DF821
S315080040A01C008DF81D0000208DF81E0001208DF8DB
S315080040B01F0006A91A48FCF79BFE02940020ADF8DB
S315080040C00C00ADF80E00ADF81000ADF814000C2089
S315080040D0ADF8120002A91348FEF730F9012111487C
S315080040E0FEF7C3F8012240F225510E48FEF700F903
S315080040F0012240F224410B48FEF7FAF825208DF8F4
S31508004100040001208DF8050000208DF80600012026
S315080041108DF8070001A8FCF7FFFF08B010BD0000E6
S31508004120000002400010014010B588B00446012185
S315080041300420FDF739F801218804FDF745F8072220
S315080041400A212548FCF79CFE07220B212248FCF78A
S3150800415097FE4FF44060069002208DF81C008DF8FB
S315080041601D0000208DF81E0001208DF81F0006A9ED
S315080041701948FCF73DFE02940020ADF80C00ADF896
S315080041800E00ADF81000ADF814000C20ADF81200C2
S3150800419002A91248FEF7D2F801211048FEF765F881
S315080041A027208DF8040001208DF805008DF80600FB
S315080041B08DF8070001A8FCF7AFFF012240F2255150
S315080041C00648FEF795F8012240F224410348FEF717
S315080041D08FF808B010BD00000008024000480040F3
S315080041E00FB42DE9F04F8BB09DF8500010B19DF833
S315080041F0500000E001200446159808B1159800E023
S3150800420000200546169808B1169800E000200646D4
S31508004210179808B1179800E000200A90189808B176
S31508004220189800E000200990199808B1199800E03C
S31508004230002007461A9808B11A9800E00020804620
S315080042401B9808B11B9800E0002081461C9808B10D
S315080042501C9800E0002082461D9808B11D9800E0D1
S31508004260002008901E9808B11E9800E0002083469A
S315080042700898CDE9050BCDE9039A09988DE88101DF
S315080042803246294620460A9BFFF770F90BB0BDE86F
S31508004290F00F5DF814FB0000F0EE400A00209FEDD9
S315080042A0150AB0EE401A0BE0134A411C02EB8101D5
S315080042B091ED000A114601EB800181ED000A401CD0
S315080042C00928F1DB0C4901EB8001C1ED000A002049
S315080042D009E0094901EB800191ED000A30EE010A77
S315080042E0B0EE401A401C0A28F3DBF2EE041A81EEFF
S315080042F0210A70470000000044030020F0EE400A3F
S3150800430000209FED150AB0EE401A0BE0134A411C37
S3150800431002EB810191ED000A114601EB800181ED66
S31508004320000A401C0928F1DB0C4901EB8001C1EDAC
S31508004330000A002009E0094901EB800191ED000A15
S3150800434030EE010AB0EE401A401C0A28F3DBF2EE02
S31508004350041A81EE210A7047000000006C03002051
S31508004360010000000000000000000000000000003E
S31508004370000000000000000000000000000000002F
S31508004380000000000000000000000000020000001D
S31508004390000000000000000000000000000000000F
S315080043A000000000000000000000000000000000FF
S315080043B000000000000000000100000000000000EE
S315080043C000000000000000000000000000000000DF
S315080043D000000000000000000000000000000000CF
S315080043E000000000020000000000000000000000BD
S315080043F000000000000000000000000000000000AF
S31508004400000000000000000000000000000000009E
S315080044104C5555555555A53F7751C1166CC156BFD4
S315080044209015CB19A001FA3EAD529C804F7E92BEE4
S31508004430C4B1B4BD9EEE213ED43888BEE9FAA8BD03
S3150800444000004054FB21F93F3163621A61B4D03D44
S315080044500000601A61B4D03D7370032E8A19A33B1D
S315080044600000002E8A19A33BC14920259A837B396F
S3150800447000000000000000006E83F9A22915444ED2
S31508004480D15727FCC0DD34F5999562DB4190433C52
S31508004490AB6351FE61C5BBDE3A6E24B7E0D24D422E
S315080044A0EA2E49061C92D1091CEB1DFE3EA729B12E
S315080044B0F53582E88444BB2E26709CE9417E5FB4BC
S315080044C039D69139F43953838B5F849C3B28F9BDDF
S315080044D0FF97F81F0F9805DE8B112FEF1F6D0A5AED
S315080044E0CF7E366DB709CB27663F464F2DEA5F9ECE
S315080044F0C7BA27757BF1E5EBF739073DEA92528A89
S31508004500B15FFB6B085D8D1FA6F810111111813F75
S31508004510D561C119A0012ABF7DFEB157E31DC73E6B
S31508004520EB9C2B8AE6E55ABE7CD5CF5A3AD9E53DAF
S315080045307AFE10111111C13F37D60684F464963FEE
S31508004540280356C9226D6D3F0165F2F2D844433FF0
S31508004550A69237A0887E143F735360DBCB75F3BEF3
S31508004560FE41B31BBAA1AB3F93846EE9E326823FB3
S315080045701583E0FEC8DB573F68108D1AF726303FD3
S31508004580E9A7F0320FB8123FD47ABF74702AFB3EFF
S31508004590DDDDDDDDDCBBBBDDDDDDDDDDDDDDDDDD82
S315080045A098888888888888887777777777888888C2
S315080045B0855555566666666666666666666888885A
S315080045C08333333222222222222222222228888D53
S315080045D0F04500080000002034010000040C000823
S315080045E014460008340100206C0700001032000849
S315080045F0412D0102030404051C0607080922240BA1
S315080046001120280401160376F0420A31011A0924FA
S3090800461020810000F7
S7050800018968
