:020000040800F2
:10000000480A00206D480008210300082303000867
:10001000270300082B0300082F030008000000003E
:100020000000000000000000000000003303000892
:1000300035030008000000003703000839030008FA
:100040008748000887480008874800088748000854
:100050008748000887480008874800088748000844
:1000600087080008A108000887480008874800089A
:100070008748000887480008874800088748000824
:100080008748000887480008874800088748000814
:100090008748000887480008874800088748000804
:1000A00087480008874800088748000887480008F4
:1000B00087480008874800088748000887480008E4
:1000C00087480008874800088748000887480008D4
:1000D0008748000803070008831600083F2400082B
:1000E000031D000887480008874800088748000863
:1000F00087480008874800084166000887480008CC
:100100008748000887480008BD0C00088748000899
:10011000C9240008812B0008EF0A0008BB1E000854
:100120008748000887480008874800088748000873
:100130008748000887480008874800088748000863
:100140008748000887480008874800088748000853
:10015000874800088748000887480008DD2900080C
:100160008748000887480008874800088748000833
:100170008748000887480008874800088748000823
:100180008748000887480008DFF80CD006F00AFB13
:10019000004800479D010008480A00201FB50220C2
:1001A00004F076FBA82000F0D1F9684604F0BBFE0D
:1001B00001F001F851A15248009A06F023FB0823F0
:1001C0004F4A0021084601F076F94FF4FA7000F02A
:1001D0001FFA532140F2E73000F05DFC532142F258
:1001E0000F7000F0ABFC01F04BFD02F0D9FD00F008
:1001F00096FB02F0ADFD002042490860642000F04B
:1002000007FA01204049C1F8900202F0EDFA01F02E
:1002100077FB01F0C7FB01F0E6FC032002F0D7FDFD
:100220004FF4967000F0F4F9062002F0D0FD4FF480
:10023000967000F0EDF9022002F0C9FD532140F262
:10024000E73001F06BFC4FF4E13000F001FA4FF4BD
:10025000E13001F091FF4FF4E13001F0E4FF4FF4A1
:10026000E13002F039F84FF4E13002F088F8002470
:10027000002526480068C4B22548D0F80C02C5B253
:1002800024B91DB901202349087014E0012C04D1C0
:100290001DB902201F4908700DE02CB9012D03D1B2
:1002A00003201C49087006E0012C04D1012D02D165
:1002B0000420184908701748027817A1104806F062
:1002C000A1FA08230E4A0021502001F0F4F8114849
:1002D0000078012802D102F0EFFD0CE00D48007813
:1002E000022802D103F067F905E00A4800780328E4
:1002F00001D103F0FFFB00BFFEE700002564000012
:100300002402002090024042000040420802424283
:100310000000424286010020542D256400000000A8
:10032000704700BFFEE700BFFEE700BFFEE700BF6B
:10033000FEE7704770477047704700000CB500201B
:10034000019000907648006840F48030744908605D
:1003500000BF7348006800F4003000900198401C12
:100360000190009818B90198B0F5A04FF1D16C48F0
:10037000006800F4003010B10120009001E000207E
:1003800000900098012846D165484030006840F050
:1003900080506349403108606248006840F4404042
:1003A000604908605E48083000685D4908310860AF
:1003B0000846006840F4004008600846006840F4C1
:1003C000A05008605848091F0860081F006840F0E6
:1003D0008070091F086000BF5148006800F000707D
:1003E0000028F9D040F20570504908604C480830A8
:1003F000006820F003004A49083108600846006898
:1004000040F00200086000BF45480830006800F076
:100410000C000828F8D10CBD10B54548006840F420
:100420007000434908603E48006840F001003C49C4
:10043000086000203A4908310860394800683D49A1
:100440000840374908603C48091D0860081F0068DB
:1004500020F48020091F0860002031490C31086019
:10046000FFF76CFF4FF0006031498039086010BD24
:1004700070B500200022022300240221284D0835F7
:100480002D6805F00C0020B1042806D0082834D1CE
:1004900007E02A4D2A4E356033E02A4D284E35605C
:1004A0002FE01F4D2D1D2D68C5F380541C4D2D1DB3
:1004B0002D6805F03F0154B1224DB5FBF1F5184E02
:1004C000361D3668C6F3881605FB06F209E01B4D9B
:1004D000B5FBF1F5124E361D3668C6F3881605FBDE
:1004E00006F20F4D2D1D2D68C5F301456D1C6B00E7
:1004F000B2FBF3F5124E356003E0104D104E35603F
:1005000000BF00BF064D08352D68C5F303150E4E1C
:10051000705D0B4D2D68C540094E356070BD000003
:10052000003802400070004008544007003C024080
:1005300088ED00E0FFFFF6FE103000240024F400F8
:100540000800002000127A000C00002010B50446BC
:100550006FF0040004F0EEF9E11704EB5171C1F300
:10056000C701394A11701046007800EB4001C1EB19
:10057000C0104FF6FF7101EAC0003449088010BD79
:100580000146314A12784A434FF0E0235A61002273
:100590009A611A46126942F001021A6100BF4FF0D7
:1005A000E022106900F001021AB100F48032002A42
:1005B000F5D04FF0E022126922F001024FF0E02363
:1005C0001A6100229A6170470146204A12884A4304
:1005D0004FF0E0235A6100229A611A46126942F0F4
:1005E00001021A6100BF4FF0E022106900F0010221
:1005F0001AB100F48032002AF5D04FF0E0221269DF
:1006000022F001024FF0E0231A6100229A61704744
:1006100070B504464FF4077094FBF0F0C6B24FF487
:10062000077094FBF0F100FB114085B205E04FF438
:100630000770FFF7C9FF701EC6B2002EF7D115B1C3
:100640002846FFF7C1FF70BD1C0000201E000020DF
:1006500010B588B004460121084604F035FD01219B
:10066000102004F08BFD07220921584804F019FBE3
:1006700007220A21554804F014FB4FF4C06006908D
:1006800002208DF81C008DF81D0000208DF81E0042
:1006900001208DF81F0006A94C4804F077FA029457
:1006A0000020ADF80C00ADF80E00ADF81000ADF86C
:1006B00014000C20ADF8120002A9454805F05BFDBE
:1006C0000121434805F0DFFD012240F22551404859
:1006D00005F08FFE012240F224413D4805F089FEDD
:1006E00025208DF8040001208DF8050000208DF8EC
:1006F000060001208DF8070001A804F0CEF808B02C
:1007000010BD70B5002540F22551314805F0ACFE12
:1007100050B12F488088C4B22E4801780078401C20
:100720002C4A10702C48445440F22531284805F0DA
:100730009BFE20B140F22531254805F08CFE40F2A9
:100740002441234805F090FE08B321480088C5B233
:100750001F488088C5B21F480078401E1E49087097
:1007600001201C4908701C484078AA281FD11A484B
:1007700000780B281BD11848C078012808D11748E9
:100780000078022813D114480079154908600EE05A
:100790001148C078022803D101201249087006E0F0
:1007A0000D48C078032802D101200F49087070BDA0
:1007B00000BF704700BF064A128802F04002002ABC
:1007C000F9D0C2B2024B9A8070470000000002408C
:1007D0000010014024000020380200208601002083
:1007E0000C010020A2010020B001002000B585B05E
:1007F0000121112004F068FC0121880304F0BEFCF3
:100800000C20009000208DF8040003208DF80500D6
:1008100001208DF8070069462B4804F0B7F9022142
:10082000042004F0B6FD0321042004F0B2FD0C20E6
:10083000029000208DF80C000C208DF80D00012096
:100840008DF80E0002A804F0A1F808208DF8100021
:1008500001208DF8110002208DF8120001208DF882
:10086000130004A804F019F809208DF810000120E5
:100870008DF811008DF812008DF8130004A804F013
:100880000CF805B000BD10B5042004F0E5F801280F
:1008900005D1042004F0EBF8C820FFF7B9FE10BD25
:1008A00010B5082004F0D8F801280BD1082004F076
:1008B000DEF80648006880F4806004490860C820BB
:1008C000FFF7A6FE10BD0000001002401414024005
:1008D0001CB50121202004F0F7FB0121102004F0B9
:1008E000F3FB4FF4C060009001208DF8040000205D
:1008F0008DF8060003208DF8050000208DF8070014
:1009000069463B4804F042F94FF40071384804F05E
:10091000B9F94FF48061364804F0B6F91CBD1CB536
:100920000121042004F0D0FB0121084604F0CCFB97
:100930004FF40050009001208DF8040000208DF845
:10094000060003208DF8050000208DF80700694699
:10095000284804F01BF91020009001208DF80400B5
:1009600000208DF8060002208DF8050000208DF88B
:1009700007006946204804F009F920200090002073
:100980008DF804008DF8060002208DF80500012086
:100990008DF807006946184804F0F8F84FF4005144
:1009A000144804F06FF91CBD1CB50121102004F09F
:1009B0008BFB0720009001208DF8040000208DF8AB
:1009C000060003208DF8050000208DF80700694619
:1009D0000A4804F0DBF80121084804F055F9022127
:1009E000064804F051F90421044804F04DF91CBDF7
:1009F00000140240000802400000024000100240C3
:100A000030B58BB004460D460121080404F0B6FB56
:100A10000121102004F058FB032205215D4804F059
:100A200040F92020099002208DF8280003208DF83D
:100A3000290000208DF82A0002208DF82B0009A93A
:100A4000544804F0A3F8A8B2ADF818000020ADF89F
:100A50001A000794ADF8200006A94F4804F07FFD66
:100A60007020ADF804000120ADF806000220ADF8BA
:100A7000100001A9484804F007FE0821464804F088
:100A800090FF0121444804F0D5FD0121424804F0C3
:100A9000EFFD0BB030BD7FB504460D46012110209F
:100AA00004F05BFBA8B2ADF804000020ADF806002E
:100AB0000294ADF80C0001A9384804F050FD012261
:100AC0001146364805F0ECF90121344804F0D0FD18
:100AD00036208DF8000000208DF801008DF802000E
:100AE00001208DF80300684603F0D7FE7FBD10B5E6
:100AF00001212A4805F0EBF901281ED101212748E0
:100B000005F0F6F92648D0E90020521C40F100001B
:100B10002349C1E9002023480068002804DD21485A
:100B20000068401E1F4908601F480068002804DD57
:100B30001D480068401E1C49086010BD7FB5044672
:100B40000D460121202004F008FBA8B2ADF80400F6
:100B50000020ADF806000294ADF80C0001A913487E
:100B600004F0FDFC01221146104805F099F901211D
:100B70000E4804F07DFD37208DF8000002208DF82E
:100B8000010001208DF802008DF80300684603F093
:100B900084FE7FBD00100240004001400010004074
:100BA0000000002028010020A401002000140040C3
:100BB00030B589B004460D460121082004F0CDFA75
:100BC0000121084604F080FA0320079002208DF8E6
:100BD000200003208DF8210000208DF82200022043
:100BE0008DF8230007A9A64803F0D0FFC020079086
:100BF00001208DF8200003208DF8210000208DF8C1
:100C000022008DF8230007A99D4803F0BFFF0222B0
:100C100000219B4804F045F802220121984804F085
:100C200040F8ADF810500020ADF812000594ADF872
:100C3000180004A9934804F092FC0020ADF80000CD
:100C4000ADF802000120ADF804000020ADF8060068
:100C5000ADF8080069468B4805F058F80420ADF857
:100C600000000020ADF802000120ADF804000020D3
:100C7000ADF80600ADF808006946824805F046F870
:100C8000012203217F4805F00BF9012204217D4850
:100C900005F006F901217B4804F0EAFC32208DF8CA
:100CA0000C0000208DF80D008DF80E0001208DF84D
:100CB0000F0003A803F0F1FD09B030BD00B593B0FB
:100CC0000121704805F003F9012828D101216D4860
:100CD00005F00EF96C480068401C6B490860084636
:100CE00000686A49884202D1002067490860684864
:100CF000007818B900206749086004E0654800687A
:100D0000401C644908606448007818B900206349B1
:100D1000086004E061480068401C604908600221E6
:100D2000584805F0D4F8012858D10221554805F05B
:100D3000CBF80221534805F0DBF85548007898B904
:100D40005748006880F400705549086001205049F8
:100D500008704C4805F058F840B25249087002211A
:100D6000484804F0A0FE39E04D48006880F4007067
:100D70004B490860002046490870424805F044F895
:100D800048490978401A40B2464908702C22464921
:100D900008A805F0A5FC3F48006800EB8000414929
:100DA00091F9001001EB40004FF4AA71484342F260
:100DB0001071B0FBF1F009903A4890F900001C2244
:100DC0000CA90A90684605F08BFC08A80FC803F030
:100DD000C5FA00212B4804F066FE00BF0421294813
:100DE00005F075F8012849D10421264805F06CF872
:100DF0002948007868B9012027490870214805F082
:100E000006F840B22949087002211E4804F05DFE30
:100E100034E00020204908701A4804F0F8FF234904
:100E20000978401A40B2214908702C221E492C3101
:100E300008A805F055FC1948006800EB80001B4924
:100E400091F9001001EB40004FF4AA71484342F2BF
:100E50001071B0FBF1F00990144890F900001C22C9
:100E60000CA90A90684605F03BFC08A80FC803F0DF
:100E700075FA0021034804F028FE00BF13B000BD3E
:100E800000000240000C004028000020A086010065
:100E90002D00002030000020350000203800002008
:100EA000141402402C000020186B000834000020AD
:100EB0001CB50121102004F007F903200090012047
:100EC0008DF8040003208DF8050000208DF8060041
:100ED0008DF807006946894803F058FE1CBD10B51F
:100EE0008648006820F00C008449086008460068C5
:100EF00040F0040008600120814908608149C1F880
:100F000080020420FFF73CFB00207D49086004209C
:100F1000FFF736FB00207B49C1F8800210BD10B5F9
:100F20007648006820F00C007449086008460068A4
:100F300040F00400086000207149091F08607149F1
:100F4000C1F884020420FFF71BFB01206C49091F34
:100F500008606C49C1F884020420FFF711FB10BD42
:100F600010B500246548006820F00C006349086053
:100F7000084600680860012061490860FFF700FB2F
:100F800001206049C1F88002FFF7FAFA07E0601C0F
:100F9000C4B2FA2C03DDFFF7C2FF012010BD584890
:100FA000803800680028F2D15549091F086000BF49
:100FB000F4E710B500205249091F08604F48006847
:100FC00020F00C004D4908600846006840F004001D
:100FD000086000204B49C1F884020220FFF7D0FAD4
:100FE00001204749091F08600220FFF7C9FA0020C5
:100FF0004449C1F8800210BD10B500204049091FC6
:1010000008603E48006820F00C003C490860084633
:10101000006840F00400086001203A49C1F88402E9
:101020000220FFF7ADFA01203549091F08600220B0
:10103000FFF7A6FA00203349C1F8800210BD70B551
:1010400004462E48006820F00C002C490860084631
:10105000006840F00400086000202949091F08606A
:10106000002517E0E009264908606006040E02200A
:10107000FFF786FA01202349C1F880020220FFF71A
:101080007FFA00201E49091F08600220FFF778FA46
:10109000681CC5B2082DE5DB70BD70B5054600249F
:1010A0001648006820F00C001449086008460068E3
:1010B0000860002617E000201149091F086002207F
:1010C000FFF75EFA01200F49C1F880026006040EA6
:1010D0000B488038006808B1601CC4B20120FFF7DB
:1010E0004FFA701CC6B2082EE5DB15B9FFF784FF76
:1010F00001E0FFF75EFF204670BD000000100240D7
:10110000840242420000424210B50446FFF7E7FE67
:101110007820FFF794FFFFF723FF0020FFF78FFFF2
:10112000FFF71EFF2046FFF78AFFFFF719FFFFF7C3
:10113000F6FE10BD10B50446FFF7D1FE7820FFF78C
:101140007EFFFFF70DFF4020FFF779FFFFF708FF55
:101150002046FFF774FFFFF703FFFFF7E0FE10BD27
:1011600070B504460D461DB1E0B2FFF7E3FF02E0A3
:10117000E0B2FFF7C9FF70BD70B5002418E004F1BC
:10118000B0000021FFF7ECFF00210846FFF7E8FF61
:1011900000211020FFF7E4FF002505E001210020D9
:1011A000FFF7DEFF681CC5B2802DF7DB601CC4B200
:1011B000082CE4DB70BD10B5FFF77AFEC820FFF7FE
:1011C00027FA0021AE20FFF7CBFF00210846FFF7EA
:1011D000C7FF00211020FFF7C3FF00214020FFF7C9
:1011E000BFFF0021B020FFF7BBFF00218120FFF7E8
:1011F000B7FF00210820FFF7B3FF0021A120FFF770
:10120000AFFF0021A620FFF7ABFF0021A820FFF7CA
:10121000A7FF00213F20FFF7A3FF0021C820FFF711
:101220009FFF0021D320FFF79BFF00210846FFF717
:1012300097FF0021D520FFF793FF00218020FFF7C3
:101240008FFF0021D820FFF78BFF00210520FFF73B
:1012500087FF0021D920FFF783FF0021F120FFF74E
:101260007FFF0021DA20FFF77BFF00211220FFF72C
:1012700077FF0021DB20FFF773FF00213020FFF70D
:101280006FFF00218D20FFF76BFF00211420FFF777
:1012900067FF0021AF20FFF763FFFFF76DFF10BD71
:1012A00070B50646002418E004F1B0000021FFF7F5
:1012B00057FF00210846FFF753FF00211020FFF7DA
:1012C0004FFF002505E001213046FFF749FF681C6C
:1012D000C5B2802DF7DB601CC4B2082CE4DB70BD06
:1012E00070B504460D4605F1B0000021FFF738FF48
:1012F000102141EA14100021FFF732FF04F00F0023
:101300000021FFF72DFF70BD10B500218D20FFF7E4
:1013100027FF00211420FFF723FF0021AF20FFF754
:101320001FFF10BD10B500218D20FFF719FF002110
:101330001020FFF715FF0021AE20FFF711FF10BDB1
:1013400070B5002418E004F1B0000021FFF708FF99
:1013500000210846FFF704FF00211020FFF700FFDF
:10136000002505E001210846FFF7FAFE681CC5B21A
:10137000802DF7DB601CC4B2082CE4DB70BD2DE9C6
:10138000F04707460E469046994600250024A8F1EE
:101390002000C5B27F2F02DD0027B01CC6B2B9F114
:1013A000100F24D131463846FFF79AFF002408E099
:1013B00004EB0511844A505C0121FFF7D1FE601C4B
:1013C000C4B2082CF4DB701CC1B23846FFF788FFAA
:1013D000002409E004EB051108317B4A505C01212F
:1013E000FFF7BEFE601CC4B2082CF3DB12E03146EE
:1013F0003846FFF775FF00240AE005EB4501734A04
:1014000002EB4101085D0121FFF7AAFE601CC4B296
:10141000062CF2DBBDE8F08710B50246012000E0A3
:1014200050430B1EA1F10104E1B2F9D110BD2DE929
:10143000FF5F074691461E460E9D4FF0000A0024AE
:1014400035E0301B401EC1B20A20FFF7E5FFB9FBB3
:10145000F0F00A21B0FBF1F201FB1208BAF1000F23
:1014600014D1701EA04211DDB8F1000F0CD1AB46B3
:1014700005EBDB71491001FB0471C8B22B46202239
:101480000199FFF77CFF10E04FF0010AAB4605EB36
:10149000DB71491001FB0471C8B208F13001CAB216
:1014A0002B460199FFF76BFF00BF601CC4B2B4422A
:1014B000C7DBBDE8FF9F2DE9F04104460F46154606
:1014C000984600260FE0AA5D434639462046FFF7BE
:1014D00056FF04F10800C4B2782C02DD0024B81CC9
:1014E000C7B2701CC6B2A85D0028ECD1BDE8F0817F
:1014F0002DE9F04180460E4615460027314640460C
:10150000FFF7EEFE00240AE0314A02EB8511085D88
:101510000121FFF725FE781CC7B2601CC4B2102C55
:10152000F2DB701CC1B24046FFF7DAFE00240CE08B
:101530006900491C264A02EB4111085D0121FFF7B1
:101540000FFE781CC7B2601CC4B2102CF0DBBDE8E3
:10155000F0812DE9F05F06460F4690461C46DDF807
:1015600028A04FF0000BE11704EB5171C910A4EB58
:10157000C10131B92046E11704EB5171C1F3C70530
:1015800006E02046E11704EB5171C910491CCDB2A9
:101590003D4615E029463046FFF7A2FEB1460BE076
:1015A00059460BF1010B1AF801000121FFF7D8FD94
:1015B00009F1010000F0FF09C145F1DB681CC5B26B
:1015C000A542E7DBBDE8F09F986D0008706B00084E
:1015D0003C00002000B587B00121084603F074FDEF
:1015E0000121480403F0B9FD07220221954803F0C8
:1015F00058FB07220321934803F053FB0C2005906E
:1016000002208DF818008DF8190000208DF81A00BE
:1016100001208DF81B0005A98A4803F0B7FA4FF4A2
:10162000E13001900020ADF80800ADF80A00ADF8F7
:101630000C00ADF810000C20ADF80E0001A9824896
:1016400004F099FD0121804804F01DFE012240F2C2
:1016500025517D4804F0CDFE012240F224417A4814
:1016600004F0C7FE26208DF8000001208DF801004F
:101670008DF802008DF80300684603F00EF907B0FC
:1016800000BD70B5002540F225516F4804F0ECFE16
:1016900060B16D48001D0088C4B26C4801780078C4
:1016A000401C6A4A10706A48445416E040F22441D3
:1016B000654804F0D9FE80B163480088C5B262482D
:1016C000001D0088C5B261480078401E604908705E
:1016D00001205E49087001F023FB70BD017E0C29DA
:1016E00001D0012100E000215A4A11808178C2789E
:1016F00041EA0221C1F30A01564A5180C178C9105A
:10170000027941EA4211C1F30A01524A91800179FA
:101710008911427941EA8201827941EA8221C1F349
:101720000A014C4AD18081794910C27941EAC2113B
:10173000C1F30A01474A1181C1790911027A41EACC
:101740000211C1F30A01434A5181017AC911427A57
:1017500041EA4201827A41EA4221C1F30A013D4A4B
:101760009181817A8910C27A41EA8211C1F30A011A
:10177000384AD181C17A4911027B41EAC201354A16
:101780001182417B827B41EA0221C1F30A01314A85
:101790005182817BC910C27B41EA4211C1F30A0127
:1017A0002C4A9182C17B8911027C41EA8201427CF0
:1017B00041EA8221C1F30A01264AD182417C4910C3
:1017C000827C41EAC211C1F30A01224A1183817C61
:1017D0000911C27C41EA0211C1F30A011D4A518379
:1017E000C17CC911027D41EA4201427D41EA4221A8
:1017F000C1F30A01174A9183417D8910827D41EA34
:101800008211C1F30A01134AD183817D4911C27D3E
:1018100041EAC2010F4A11841146098801290CD1FD
:101820001146C98849B11146C98840F2A462914263
:1018300003D00121084A117002E00021064A11700C
:10184000704700000000024000440040FD000020FE
:101850009C02002000030020FC00002000B589B09D
:101860000121022003F079FC0121084603F02CFC41
:1018700002220621A44803F014FA02220721A248FA
:1018800003F00FFAC020079002208DF820000320FB
:101890008DF8210001208DF822008DF8230007A982
:1018A000994803F073F94FF6FF7005900020ADF8EA
:1018B0001000ADF81800ADF8120004A9934803F029
:1018C0004EFE0A231A460321904804F0BCFB01A8EF
:1018D00004F053FA0020ADF80C0001A98B4804F085
:1018E00015FA0121894804F0EFFA47F23050874990
:1018F000243108600121854803F0BAFE09B000BD1B
:1019000000B589B00121042003F027FC0121022049
:1019100003F0DAFB022206217D4803F0C2F902221D
:1019200007217B4803F0BDF9C020079002208DF805
:10193000200003208DF8210001208DF822008DF871
:10194000230007A9724803F021F94FF6FF700590B4
:101950000020ADF81000ADF81800ADF8120004A991
:101960006C4803F0FCFD0A231A460321694804F081
:101970006AFB01A804F001FA0020ADF80C0001A9EF
:10198000644804F0C3F90121624804F09DFA47F26B
:10199000305060492431086001215E4803F068FE40
:1019A00009B000BD00B589B00121082003F0D5FBC6
:1019B0000121084603F088FB02220021524803F06F
:1019C00070F902220121504803F06BF903200790BF
:1019D00002208DF8200003208DF8210001208DF8D1
:1019E00022008DF8230007A9474803F0CFF84FF6EF
:1019F000FF7005900020ADF81000ADF81800ADF8AC
:101A0000120004A9444803F0AAFD0A231A46032140
:101A1000414804F018FB01A804F0AFF90020ADF82C
:101A20000C0001A93C4804F071F901213A4804F086
:101A30004BFA47F2305038492431086001213648CA
:101A400003F016FE09B000BD00B589B001210846BB
:101A500003F083FB0121084603F036FB012102203D
:101A600003F032FB01220F21274803F01AF901226B
:101A70000321274803F015F94FF400400790022096
:101A80008DF8200003208DF8210001208DF8220020
:101A90008DF8230007A91C4803F078F80820079068
:101AA00007A91B4803F072F84FF6FF70059000205D
:101AB000ADF81000ADF81800ADF8120004A94FF011
:101AC000804003F04CFD0A231A460321580704F016
:101AD000BAFA01A804F051F90020ADF80C0001A9F0
:101AE0004FF0804004F012F90121880704F0ECF96E
:101AF00047F230504FF0804148620121880703F0DF
:101B0000B7FD09B000BD0000000002400004004025
:101B10000004024000080040000C004030B58BB0CB
:101B200004460D460121022003F028FB0121042078
:101B300003F0CAFA032208214C4803F0B2F803224A
:101B400009214A4803F0ADF84FF440700990022093
:101B50008DF8280003208DF8290000208DF82A0038
:101B600002208DF82B0009A9404803F00FF8A8B215
:101B7000ADF818000020ADF81A000794ADF8200069
:101B800006A93B4803F0EBFC7020ADF804000120EF
:101B9000ADF806000220ADF8100001A9344803F0AA
:101BA000F9FD01A9324803F05BFE0821304803F03B
:101BB0000EFF08212E4803F013FF01212C4803F0EB
:101BC00039FD01212A4804F044F90121284803F095
:101BD0004FFD0021264803F0B4FE0021244803F005
:101BE000B2FE0BB030BD1CB50121102003F06CFA21
:101BF0004FF47860009001208DF8040003208DF8E8
:101C0000050000208DF8060002208DF807006946C7
:101C1000184802F0BBFF0020174908601749C1F8B7
:101C2000A002154908310860091D0860091D0860F7
:101C30004FF47040009001208DF8040003208DF8CF
:101C4000050000208DF8060002208DF80700694687
:101C5000084802F09BFF0020074914310860091D65
:101C60000860091D0860091D08601CBD00080240CD
:101C700000040140001002409C0242420000424227
:101C800000B585B00121084603F01EFA4FF400406C
:101C9000009000208DF8040003208DF8050000203E
:101CA0008DF8060001208DF807006946334802F0E0
:101CB0006DFF0121880303F061FA0F21002003F07A
:101CC00068FB4FF40040029000208DF80C000C20BF
:101CD0008DF80D0001208DF80E0002A802F056FECE
:101CE00028208DF8100001208DF8110002208DF8B9
:101CF000120001208DF8130004A802F0CEFD05B0FB
:101D000000BD10B54FF4004002F0A6FE012833D10B
:101D1000C00302F0ACFE1A48D0E90010194A18CAF4
:101D2000CA1A60EB0400C821511A70F1000023DBCD
:101D30001548006880F40050134908601048D0E945
:101D40000010104AC2E900101048007808B90120BC
:101D500000E000200D4908700D48007808B9012006
:101D600000E000200A4908700A48007808B90120FC
:101D700000E000200749087010BD0000000002408C
:101D8000000000200001002014080240C8010020CB
:101D9000F8010020F601002010B52DED028B6248FD
:101DA0000068A0B360480068A03808EE100AB8EEDA
:101DB000C80A5E48D0ED000A20EE200ABDEEC00A37
:101DC0005B4880ED000A00680A2802DD00205849BF
:101DD00008605748006810F10A0F03DA6FF0090035
:101DE00053490860534800685149096808445249FA
:101DF0000860504800684E490968401A4F49086019
:101E0000084601684C48006800F0AEFC52E0FFE76D
:101E100045480068002849D149480078032845DB37
:101E200048480078012809D1C820FEF7F1FB0420BA
:101E300000F0CDFF00F0B2F800BFFEE7C820FEF7CB
:101E4000E7FB012000F0C3FF00F0A8F84FF47A7020
:101E5000FEF7DEFB0BE03C480068012804D14FF49C
:101E6000FA70FEF7D5FB03E03220FEF7D1FBF2E774
:101E700000BF022000F0ABFF6FF00E010F2000F05A
:101E800073FC40F22620FEF7C3FB00F087F82D48D4
:101E9000007818B901202B4908700BE02948007818
:101EA000012807D100F07AF800BFFEE71E2108469E
:101EB00000F05AFCBDEC028B10BD10B50121234887
:101EC00004F005F801282ED10121204804F010F873
:101ED0001F480068322808DB00201D4908601D48A3
:101EE000006880F400501B49086019480068401CD5
:101EF000174908601848007808B900F031F816480A
:101F0000007808B9012000E0002013490870134848
:101F10000068052802DB0020104908600F480068AF
:101F2000401C0E49086010BD880300201C010020E1
:101F3000180100202C010020300100203401002075
:101F40004E01002085010020140240420014004090
:101F50003801002014080240400100203C0100200C
:101F60007D480068A0F5EA4030387C49086047F2B7
:101F70003050794908607A48006847F23051081AB1
:101F80007849086047F2305075490860704701464B
:101F9000002901DD084670474842FCE710B50020E3
:101FA000714908607149C1F8A0026F4908310860A1
:101FB000091D0860091D0860091D0860091D0860E9
:101FC000091D0860091D08600021694803F0B5FC7F
:101FD0000021674803F0B3FC0021654803F0B1FC21
:101FE0000021634803F0AFFC10BD01205E4908608A
:101FF0005E49C1F8A00200205B4908310860012059
:10200000091D08600020091D08600120091D0860E5
:102010000020091D08600120091D08600020091D1D
:102020000860704701205049086000204F49C1F8FE
:10203000A00201204C49083108600020091D0860F9
:102040000120091D08600020091D08600120091DEC
:1020500008600020091D08600120091D0860704704
:1020600001204149086000204049C1F8A002012038
:102070003D4908310860091D08600020091D0860FD
:10208000091D08600120091D0860091D0860002065
:10209000091D086070470120334908603349C1F8C1
:1020A000A0020020304908310860091D08600120A5
:1020B000091D0860091D08600020091D0860091D30
:1020C00008600120091D0860704770B505460C4680
:1020D000002D04DD002C02DDFFF7DDFF16E0002DF2
:1020E00004DA002C02DAFFF7BBFF0FE0002D04DA60
:1020F000002C02DDFFF796FF08E0002D04DD002C28
:1021000002DAFFF772FF01E0FFF748FF2846FFF70A
:102110003EFF06463146164803F013FC2046FFF703
:1021200036FF06463146124803F00DFC70BD10B56F
:102130004FF4FA714842FFF7C8FF4FF4FA70FEF708
:1021400067FA10BD10B50B494842FFF7BEFF4FF4C8
:10215000FA70FEF75DFA10BD24080040440100202B
:10216000240C0040480100209C02424200004242F0
:10217000000401400CFEFFFF10B588B004460121A9
:10218000082002F0A1FF0121880402F0E6FF0722E7
:102190000821A44802F085FD07220921A14802F088
:1021A00080FD4FF44070069002208DF81C008DF8E1
:1021B0001D0000208DF81E0001208DF81F0006A9CB
:1021C000984802F0E3FC02940020ADF80C00ADF852
:1021D0000E00ADF81000ADF814000C20ADF81200A0
:1021E00002A9914803F0C7FF01218F4804F04BF882
:1021F00027208DF8040001208DF805008DF80600D9
:102200008DF8070001A802F048FB012240F2255199
:10221000854804F0EEF8012240F22441824804F09F
:10222000E8F808B010BD10B588B0044601210420BC
:1022300002F04AFF0121C80402F08FFF08220A21A0
:102240007A4802F02EFD08220B21784802F029FD81
:102250004FF44060069002208DF81C008DF81D00A0
:1022600000208DF81E0001208DF81F0006A96F4880
:1022700002F08CFC02940020ADF80C00ADF80E00CA
:10228000ADF81000ADF814000C20ADF8120002A952
:10229000674803F070FF0121654803F0F4FF342024
:1022A0008DF8040001208DF8050000208DF806004F
:1022B00001208DF8070001A802F0EFFA012240F298
:1022C00025515B4804F095F8012240F2244158481A
:1022D00004F08FF808B010BD10B588B00446012195
:1022E000082002F0F1FE0121080502F036FF082265
:1022F00002214C4802F0D5FC0420069002208DF803
:102300001C008DF81D0000208DF81E0001208DF8A6
:102310001F0006A9434802F039FC02940020ADF8E2
:102320000C00ADF80E00ADF81000ADF814000C2054
:10233000ADF8120002A93F4803F01DFF01213D48FE
:1023400003F0A1FF35208DF8040002208DF8050070
:1023500000208DF8060001208DF8070001A802F08A
:102360009CFA012240F22551324804F042F8012241
:1023700040F224412F4804F03CF808B010BD10B5DD
:1023800088B004460121042002F09EFE0121202095
:1023900002F0F4FE08220721244802F082FC80208B
:1023A000069002208DF81C008DF81D0000208DF88D
:1023B0001E0001208DF81F0006A91C4802F0E6FB54
:1023C00002940020ADF80C00ADF80E00ADF810003E
:1023D000ADF814000C20ADF8120002A9164803F065
:1023E000CAFE0121144803F04EFF47208DF8040077
:1023F00002208DF8050001208DF806008DF80700F9
:1024000001A802F04AFA012240F225510A4803F0DD
:10241000F0FF012240F22441074803F0EAFF08B030
:1024200010BD0000000C02400048004000080240BF
:10243000004C00400050004000140140704770B54F
:10244000002540F225516B4804F00EF860B1694850
:10245000001D0088C4B2684801780078401C664AB4
:1024600010706648445416E040F22441614803F07D
:10247000FBFF80B15F480088C5B25E48001D008840
:10248000C5B25D480078401E5C49087001205A4979
:102490000870FFF7D3FF70BD59480068012803D0CA
:1024A00057480068022807D10120564908704FF4A8
:1024B00096705549086006E00120524908704FF4B3
:1024C000967051490860704770B5002540F225515B
:1024D0004E4803F0C9FF60B14C48001D0088C4B2EB
:1024E0004B4801780078401C494A107049484454D0
:1024F0007EE040F22441454803F0B6FF002877D043
:1025000042480088C5B24148001D0088C5B2404815
:102510000078401E3F49087001203D4908703D4841
:1025200000780B2864D13B484078AA2860D139480C
:102530008078FF285CD1374800793649C97849B29C
:1025400040EA0120344908603248807931494979AC
:1025500049B240EA01203049C8612E48007A2D492D
:10256000C97949B240EA01202B4948622948407A9A
:102570002A49087028480068B0F5A07F03DC264887
:102580000068002802DAA020234908601D4800786E
:1025900048BB2348006830BB1F48C069782805DD68
:1025A00020480078401C1F49087002E000201D49A7
:1025B00008701C480078082801DBFFF76DFF1648FB
:1025C000406A782805DD18480078401C16490870D4
:1025D00002E000201449087013480078082807DB3F
:1025E000FFF75AFF04E000200E4908700E490870FA
:1025F00070BD0000004800404F010020240300206F
:102600000C0100202001002028010020004C004087
:1026100050010020B0030020880300204E0100205C
:10262000A40100204C0100204D010020B0EE401A12
:1026300030EEC10A904880ED020A90ED080AD0ED14
:10264000021A30EE210A80ED080A90ED020AD0ED60
:10265000031A30EE610A80ED040A90ED050AD0ED10
:10266000021A20EE210AD0ED061A90ED082A01EE9A
:10267000820AD0ED071A90ED042A01EE820A80ED5D
:10268000090A90ED020A80ED030A90ED090AD0EDE7
:102690000C1AB4EEE10AF1EE10FA04DB90ED0C0A2C
:1026A00080ED090A0DE0744890ED090AD0ED0D1A8D
:1026B000B4EEE10AF1EE10FA03D890ED0D0A80EDC8
:1026C000090A6D4890ED090A7047B0EE401A30EEE5
:1026D000C10A6A4880ED020A90ED080AD0ED021A9C
:1026E00030EE210A80ED080A90ED020AD0ED031ABF
:1026F00030EE610A80ED040A90ED050AD0ED021A71
:1027000020EE210AD0ED061A90ED082A01EE820A89
:10271000D0ED071A90ED042A01EE820A80ED090A35
:1027200090ED020A80ED030A90ED090AD0ED0C1A33
:10273000B4EEE10AF1EE10FA04DB90ED0C0A80ED44
:10274000090A0DE04D4890ED090AD0ED0D1AB4EEDE
:10275000E10AF1EE10FA03D890ED0D0A80ED090AB6
:10276000464890ED090A704770B504460D4604B915
:10277000012405B90125502C01DD502404E014F199
:10278000500F01DA6FF04F04502D01DD502504E0A9
:1027900015F1500F01DA6FF04F0500EE104AF8EE18
:1027A000C00A374890ED000AB8EEC00AFFF78DFF67
:1027B00000EE105AF8EEC00A324890ED000AB8EE6A
:1027C000C00AFFF733FF2C4A92ED090ABDEEC00A9A
:1027D00010EE101A294A92ED090ABDEEC00A10EE59
:1027E000100AFFF772FC70BDB3EE0A0A234880EDB1
:1027F000050A9FED250A80ED060AB7EE000A80ED76
:10280000070A9FED220A80ED0A0A9FED210A80ED5A
:102810000B0A9FED200A80ED0C0A9FED1F0A80ED48
:102820000D0A90ED050A144880ED050A134890ED55
:10283000060A114880ED060A104890ED070A0E4876
:1028400080ED070A0D4890ED0A0A0B4880ED0A0A50
:102850000A4890ED0B0A084880ED0B0A074890EDF6
:102860000C0A054880ED0C0A044890ED0D0A024858
:1028700080ED0D0A704700004C0400201404002075
:1028800044010020480100200000000000007A44BC
:1028900000007AC400004844000048C4F8480078AA
:1028A0000B287DD1F6484078AA28FAD1F4488078E0
:1028B000FF28F6D1F248C07ACC28F2D1F048C0788F
:1028C000F0494870EE4800798870ED484079C8704A
:1028D000EB4880790871EA48C0794871E848007A85
:1028E0008871E748407AC871E548807A0872E648FE
:1028F0000078012855D1E54908704CE0E14840785E
:10290000012804D1E2484068401CE1494860DD48A4
:102910008078012804D1DE488068401CDC4988604A
:10292000D848C078012804D1D948C068401CD8498B
:10293000C860D4480079012804D1D5480069401CFA
:10294000D3490861CF484079012804D1D048406973
:10295000401CCF494861CB488079012804D1CC483C
:102960008069401CCA498861C648C079012804D1E1
:10297000C748C069401CC649C861C248007A0128DE
:1029800004D1C348006A401CC1490862BF480078AE
:10299000401CBE490870BD4800780828AEDD1CE028
:1029A00013E00120B94908700AE00020B849B74A8D
:1029B000127841F82200B5480078401CB3490870ED
:1029C000B24800780828F0DD07E0002003E000218D
:1029D000AC4A1154401C0A28F9DB704770B5002539
:1029E00040F22551AB4803F03FFD60B1A948001DFE
:1029F0000088C4B2A84801780078401CA64A10702C
:102A00009F4844541BE040F22441A24803F02CFDAF
:102A1000A8B1A0480088C5B29E48001D0088C5B274
:102A20009D480078401E9649087001209A49087018
:102A30009A480068401C99490860FFF72FFF70BD55
:102A4000974800780B287DD195484078AA28FAD17C
:102A500093488078FF28F6D19148C07ACC28F2D1EB
:102A60008F48C0788F4948708D48007988708C48AD
:102A70004079C8708A48807908718948C07948715E
:102A80008748007A88718648407AC8718448807A7D
:102A900008727D480078012855D1834908704CE0C0
:102AA00080484078012804D180484068401C7F4914
:102AB00048607C488078012804D17C488068401CAC
:102AC0007A4988607748C078012804D17748C0687F
:102AD000401C7649C86073480079012804D17348C6
:102AE0000069401C714908616E484079012804D191
:102AF0006E484069401C6D4948616A4880790128E8
:102B000004D16A488069401C684988616548C07979
:102B1000012804D16548C069401C6449C861614806
:102B2000007A012804D16148006A401C5F490862AC
:102B30005D480078401C5C4908705B4800780828B4
:102B4000AEDD1CE013E00120574908700AE00020C8
:102B50005649554A127841F8220053480078401CE3
:102B600051490870504800780828F0DD07E000203F
:102B700003E000214B4A1154401C0A28F9DB70473E
:102B800070B5002540F22551494803F06DFC58B15D
:102B900047488088C4B2474801780078401C454ABD
:102BA00010703F4844541AE040F22441404803F07A
:102BB0005BFCA0B13E480088C5B23D488088C5B2E4
:102BC0003C480078401E3649087001203949087099
:102BD00039480068401C38490860FFF731FF70BD74
:102BE000024600200021012A0CD1012107E02F4BD1
:102BF00053F82130834200DD08464B1CD9B2082926
:102C0000F5DD0DE0022A0BD1012107E0204B53F83E
:102C10002130834200DD08464B1CD9B20829F5DD7E
:102C2000704770B503460024002500210022012BC7
:102C300021D100BF14E01D4E56F820608E4205DD04
:102C40000A461A4E56F82010C4B208E0174E56F83D
:102C50002060964203DD154E56F82020C5B2401C78
:102C60000828E8DD154E3470154E3570154E31606C
:102C7000154E326049E0022B47D101203BE00000B5
:102C800084040020560500208001002084010020DB
:102C9000840500200014014081010020580100201B
:102CA000E80400204C05002083010020600500207E
:102CB00000500040820100205401002064010020E7
:102CC000650100206C010020700100200F4E56F8B5
:102CD00020608E4205DD0A460C4E56F82010C4B224
:102CE00008E00A4E56F82060964203DD074E56F87B
:102CF0002020C5B2401C0828E8DD054E3470054E82
:102D00003570054E3160054E326070BD840500207F
:102D10006601002067010020740100207801002076
:102D2000704770B505460E4600240CE0295D074843
:102D300003F0D4FA00BF8021044803F07FFB012890
:102D4000F9D1601CC4B2B442F0DB70BD0044004055
:102D50001CB50121022002F0B7F94FF46040009049
:102D600001208DF8040000208DF8060003208DF866
:102D7000050000208DF8070069464C4801F006FF69
:102D80004FF40051494801F07DFF4FF4804147481E
:102D900001F078FF4FF40041444801F073FF1CBD7F
:102DA0001CB50121102002F08FF90C2000900020AA
:102DB0008DF804008DF8060002208DF80500012032
:102DC0008DF807006946394801F0E0FE1CBD09286E
:102DD0005FD2DFE800F05E051A3024103B47530055
:102DE0000121334A11600021324AC2F8BC12304A34
:102DF000121F116057E001212D4A11602D4AC2F8BF
:102E0000BC122B4A121F11604DE00021284A1160AC
:102E1000284AC2F8BC12264A121F116043E0002162
:102E2000234A11600121234AC2F8BC120021204A22
:102E3000121F116037E001211D4A11601D4AC2F8BE
:102E4000BC1200211A4A121F11602CE00021184AFE
:102E500011600121174AC2F8BC120021144A121F46
:102E6000116020E00121124A11600021114AC2F8CC
:102E7000BC1201210E4A121F116014E000210C4AFD
:102E8000116001210B4AC2F8BC12094A121F1160DD
:102E900009E00021064A1160064AC2F8BC12044A41
:102EA000121F116000BF00BF704700000004024005
:102EB000B8824042008040429EB07BE00120F7494A
:102EC00008704FF47A70FDF7A3FB0120FFF788FE2E
:102ED000F34908602C22F34913A803F001FCF048E1
:102EE00000681490F048EE49096850F821001C224F
:102EF00017A91590684603F0F3FB13A80FC801F05B
:102F00002DFAE748E9A10268EA4803F07BFC1023A8
:102F1000E84A00210846FEF7CEFAE7480268E7488B
:102F20000378E7A1E34803F06DFC1023E14A052193
:102F30000020FEF7C0FADC48D949096850F82100A2
:102F4000502820DD0020D54908700120DF49087095
:102F50000AE00020D449DD4A127841F82200DB481B
:102F60000078401CD9490870D84800780828F0DD5E
:102F7000D7A1D04803F046FC1023CE4A03210020FD
:102F8000FEF799FA17E00020C44908700120CF49E4
:102F900008700AE00021C448CC4A127840F8221098
:102FA000CA480078401CC9490870C84800780828F9
:102FB000F0DD00BF82E700BF0DE0C748006838B908
:102FC0004FF47A70FDF724FB0120C449087003E038
:102FD0003220FDF71DFBF0E700BF18E2BF48007884
:102FE000012871D1BE48007801283AD1BD48007847
:102FF000012833D1BC48006870BBBC480078401E33
:10300000C0B2BA490870BA49085CBA4908700846A3
:10301000007801280ED100212820FFF7A5FBF02021
:10302000FDF7F6FA0020AF4908704FF4FA70B24984
:10303000086013E0AF48007803280ED12821002053
:10304000FFF792FBF020FDF7E3FA0020A549087096
:103050004FF4FA70A849086000E000BFFEF79CFE3C
:103060007EE1A648007820B901208C490870A34968
:1030700008709C480078012842D19B48006810BB2A
:1030800087480068012803D085480068022837D1A6
:1030900083480068012818D128210020FFF764FB2D
:1030A000F020FDF7B5FA00208E4908704FF4FA7051
:1030B0009149086001218D4802780078401C8B4BB3
:1030C00018708B4881541BE045E175480068022860
:1030D00016D100212820FFF747FBF020FDF798FAD2
:1030E0000020804908704FF4FA708349086003217A
:1030F0007E4802780078401C7C4B18707C488154D4
:103100007848007801287DD1774800680028FAD1F6
:1031100063480068012875D0614800680228FAD029
:1031200000205E4908700120FFF77BFD0220FFF7B9
:1031300078FD73480068032802DA0020714908709E
:1031400071480068032802DA00207049087070484E
:103150000068032802DA00206E4908706E48006893
:10316000032802DA00206D490870012057490870D1
:103170000AE000214C48554A127840F82210534882
:103180000078401C51490870504800780828F0DD4C
:1031900001204E4908700AE0002061494B4A12782C
:1031A00041F8220049480078401C484908704748C7
:1031B00000780828F0DD5948007856490978CDE9AB
:1031C0000010524803784F48027856A1394803F05E
:1031D00019FB1023374A02210020FEF76CF94E48F4
:1031E00000684B490968CDE9001047480368444826
:1031F00050A102682F4803F005FB10232D4A04213B
:10320000002000E0A4E0FEF756F93E48007824498B
:103210000968884205D03D480078214909688842FC
:1032200017D128210020FFF79FFAF020FDF7F0F9D1
:103230004FF4FA703049086001212C480278007878
:10324000401C2A4B18702A488154012013490870E9
:103250007BE03048007812490968884205D02F4841
:1032600000780F49096888426CD100212820FFF7B7
:103270007BFAF020FDF7CCF94FF4FA701E49086094
:1032800003211A4802780078401C184B187018481F
:10329000815401200149087057E053E0800100206B
:1032A0000C01002088730008600500204E2D256465
:1032B0000000000024020020880300204E010020AE
:1032C0006F6D762D25642D622D2564009C010020F4
:1032D000474F474F474F210014024042C80100208A
:1032E0008501002020010020280100208701002006
:1032F000A80500209E010020A40100209D010020BF
:103300006C01002064010020700100206501002094
:103310007401002066010020780100206701002070
:103320008405002076616C3A25642D25642D256482
:103330002D256400636E743A25642D25642D256463
:103340002D256400012032490870002031490870A1
:10335000FEF722FD04E0FEF721FE00202E49087052
:103360002C222E4913A803F0BBF92D4800681490B5
:103370002C48006815902C48407816902A48807890
:1033800017902948C0781890274800791990264846
:1033900040791A90244880791B902348C0791C906A
:1033A0002148007A1C2217A91D90684603F098F95D
:1033B00013A80FC800F0D2FF2C2218492C3108A8FE
:1033C00003F08EF9194840780990184880780A90DF
:1033D0001648C0780B90154800790C901348407936
:1033E0000D90124880790E901048C0790F900F48C8
:1033F000007A1C220CA91090684603F071F908A805
:103400000FC800F0ABFF1220FDF702F900BFE5E5A1
:103410008001002020010020C8010020B4730008B2
:1034200054010020880300204C0500205605002090
:1034300010B52DED028BFD480068A0B3FB48006875
:10344000A03808EE100AB8EEC80AF948D0ED000A14
:1034500020EE200ABDEEC00AF64880ED000A0068A2
:103460000A2802DD0A20F3490860F248006810F1DA
:103470000A0F03DA6FF00900EE490860EE480068B1
:10348000EC4909680844ED490860EB480068E949DF
:103490000968401AEA49086008460168E748006878
:1034A000FFF762F984E0FFE7E048006800287BD17D
:1034B000E4480078032877DBE348007803280AD142
:1034C0004FF4C870FDF7A4F8FEF768FD0120FFF780
:1034D0007EFC00BFFEE7DD48007801280AD14FF4EA
:1034E000C870FDF795F8FEF759FD0120FFF76FFC56
:1034F00000BFFEE7D6480078012806D1C820FDF7B6
:1035000087F8FEF74BFD00BFFEE74FF4C870FDF7EC
:103510007FF80320FFF75BFCFEF740FD12E0CD488B
:1035200002680068401CCB4BCBA11860CC4803F06C
:1035300069F91023CA4A05210020FDF7BCFF1420B9
:10354000FDF766F8C74800780028E8D0C54802783B
:10355000C1A1C34803F056F91023C14A0521002038
:10356000FDF7A9FF4FF47A70FDF752F84FF47A7027
:10357000FDF74EF84FF47A70FDF74AF84FF47A7081
:10358000FDF746F86FF00E010F20FFF7EDF840F25F
:103590002620FDF73DF849F64040B3490860012078
:1035A000AA49087004E0FFE71E210846FFF7DCF88F
:1035B000BDEC028B10BD1CB512E0AC48ACA102689A
:1035C000A74803F01FF91023A54A03210020FDF7A7
:1035D00072FF0520FFF7FBFB4FF47A70FDF718F838
:1035E000A24800680028E8D0A048A1A102689C4831
:1035F00003F008F910239A4A03210020FDF75BFF2E
:103600000220FFF7E4FB0DE09B48006838B94FF457
:103610009670FCF7FDFF01209849087003E0322006
:10362000FCF7F6FFF0E700BFD3E1944800780128EB
:1036300071D18748007801283AD191480078012853
:1036400033D19048006870BB8F480078401EC0B2EC
:103650008D4908708D49085C8D49087008460078CE
:1036600001280ED100211C20FFF77EF8F020FCF786
:10367000CFFF0020824908704FF4FA707A49086041
:1036800013E08348007803280ED11C210020FFF7A7
:103690006BF8F020FCF7BCFF0020794908704FF46C
:1036A000FA707149086000E000BFFFF7C1FE8DE1CC
:1036B0007848007820B9012077490870754908706A
:1036C0006F480078012842D16E48006810BB6748F7
:1036D0000068012803D065480068022837D1634894
:1036E0000068012818D11C210020FFF73DF8F020C8
:1036F000FCF78EFF0020624908704FF4FA705A49B7
:1037000008600121604802780078401C5E4B187008
:103710005E4881541BE054E154480068022816D1E9
:1037200000211C20FFF720F8F020FCF771FF00209B
:10373000534908704FF4FA704B490860032152480E
:1037400002780078401C504B1870504881544C4807
:103750000078012869D14B4800680028FAD1434815
:103760000068012861D0414800680228FAD0002092
:10377000494908700120FFF754FA0220FFF751FA77
:1037800046480068052802DA002045490870454887
:103790000068052802DA00204349087043480068A1
:1037A000052802DA002042490870424800680528CE
:1037B00002DA0020404908700120404908700AE000
:1037C00000213F483D4A127840F822103B480078DB
:1037D000401C3A490870394800780828F0DD01207B
:1037E000364908700AE000213648344A127840F819
:1037F000221032480078401C304908702F48007869
:103800000828F0DD2C48007829490978CDE9001016
:1038100025480378224802782BA1114802F0F2FFD4
:1038200010230F4A0221002056E0C7E08803002041
:103830001C010020180100202C0100203001002074
:10384000340100204E01002086010020AB01002041
:1038500085010020AC0100206C65617625640000C4
:1038600024020020A2010020A40100200C0100205D
:1038700064652D256400000014024042C801002048
:10388000200100202801002087010020A805002039
:10389000AA010020A9010020800100206C01002065
:1038A00064010020700100206501002074010020E7
:1038B000660100207801002067010020A801002097
:1038C000600500208405002076616C3A25642D2572
:1038D000642D25642D256400FDF7EDFD3D4800684D
:1038E0003D490968CDE900103C4803683C483DA1CA
:1038F0000268404802F086FF10233E4A042100205F
:10390000FDF7D9FD3C4800783C490968884205D05C
:103910003B4800783949096888421ED1012039495D
:10392000087039480078394908701C210020FEF7DA
:103930001BFFF020FCF76CFE4FF4FA70344908606E
:103940000122344801780078401C324B187032480C
:1039500042540120314908702DE02B480078274956
:103960000968884205D02E480078244909688842B1
:103970001ED10220234908701F480078234908708F
:1039800000211C20FEF7F0FEF020FCF741FE4FF472
:10399000FA701F49086003211E4802780078401C15
:1039A0001C4B18701C48815401201C49087002E00F
:1039B00001201A49087000201A490870FFF738FDE5
:1039C00004E0FEF7EBFA0020174908701220FCF71C
:1039D0001FFE2AE6780100207401002070010020FB
:1039E0006C010020636E743A25642D25642D2564D6
:1039F0002D25640024020020640100200C01002019
:103A000065010020A001002066010020A101002026
:103A1000A401002087010020A805002080010020CB
:103A20006701002020010020C801002010B52DED05
:103A3000028BF9480068A0B3F7480068A03808EE88
:103A4000100AB8EEC80AF548D0ED000A20EE200AA8
:103A5000BDEEC00AF24880ED000A00680A2802DDC7
:103A60000A20EF490860EE48006810F10A0F03DAF7
:103A70006FF00900EA490860EA480068E849096807
:103A80000844E9490860E7480068E5490968401AC0
:103A9000E649086008460168E3480068FEF764FEEE
:103AA00025E0FFE7DC480068E8B9E1480078032832
:103AB00019DBFEF773FA4FF47A70FCF7A9FD6FF08B
:103AC0000E010F20FEF750FE40F22620FCF7A0FD6D
:103AD000FEF764FA00BFD74800780028FBD0012029
:103AE000D549087003E01E210846FEF73DFEBDECF7
:103AF000028B10BD92B07BE00120D04908704FF4DA
:103B00007A70FCF785FD0120FFF76AF8CC49086060
:103B10002C22CC4907A802F0E3FDC94800680890B0
:103B2000C948C749096850F821001C220BA909900F
:103B3000684602F0D5FD07A80FC800F00FFCC0488A
:103B4000C2A10268C34802F05DFE1023C14A0021F1
:103B50000846FDF7B0FCB0480268B5480378BEA13E
:103B6000BC4802F04FFE1023BA4A05210020FDF7A1
:103B7000A2FCB548B249096850F82100502820DD60
:103B80000020AE4908700120B64908700AE0002004
:103B9000AD49B44A127841F82200B2480078401C7E
:103BA000B0490870AF4800780828F0DDAEA1A948F8
:103BB00002F028FE1023A74A03210020FDF77BFC1A
:103BC00017E000209D4908700120A64908700AE00E
:103BD00000209D49A34A127841F82200A1480078AC
:103BE000401CA04908709F4800780828F0DD00BFFD
:103BF00082E700BF05E00320FFF7E9F80520FCF7A6
:103C000007FD9B4800780028F5D00220FFF7DFF879
:103C1000002098490870884908700120964908706A
:103C2000FEE125E00A20FCF7F3FCFFF7FFFE9148D8
:103C30000078012815D19148006890B9002128200A
:103C4000FEF792FDF020FCF7E3FC4FF4FA708C498C
:103C5000086000208749087077480078401C764942
:103C6000087075480078022802DB01208549087039
:103C7000844800780028D5D00620FFF7A8F8CEE1C8
:103C80007D480078012871D17F48007801283AD119
:103C900078480078012833D17848006870BB7B48A9
:103CA0000078401EC0B2794908707949085C7949AA
:103CB00008700846007801280ED100211C20FEF76C
:103CC00053FDF020FCF7A4FC00206A4908704FF473
:103CD000FA706B49086013E06E48007803280ED133
:103CE0001C210020FEF740FDF020FCF791FC002095
:103CF000604908704FF4FA706149086000E000BF45
:103D0000FFF796FB88E16448007820B901204B4911
:103D100008706149087057480078012842D1574817
:103D2000006810BB46480068012803D0444800687A
:103D3000022837D142480068012818D11C210020F0
:103D4000FEF712FDF020FCF763FC002049490870E3
:103D50004FF4FA704A49086001214C480278007813
:103D6000401C4A4B18704A4881541BE04FE13448CC
:103D70000068022816D100211C20FEF7F5FCF02077
:103D8000FCF746FC00203B4908704FF4FA703C49B0
:103D9000086003213D4802780078401C3B4B1870B6
:103DA0003B48815433480078012834D133480068B7
:103DB0000028FAD12248006801282CD02048006849
:103DC0000228FAD000201D4908700120FEF729FFC3
:103DD0000220FEF726FF31480068052802DA00209D
:103DE0002F4908702F480068052802DA00202E4964
:103DF00008702E480068052802DA00202C49087057
:103E00002C480068052802DA00202B4908700120A0
:103E1000144908705DE0F7E0880300201C010020D1
:103E2000180100202C010020300100203401002066
:103E30004E010020B0010020B101002080010020CF
:103E40000C0100200C740008600500204E2D256434
:103E500000000000240200206F6D762D25642D6285
:103E60002D256400B2010020474F474F474F2100E6
:103E7000A201002020010020C8010020280100200C
:103E8000A4010020B301002085010020870100204B
:103E9000A8050020B5010020B40100206C0100201D
:103EA00064010020700100206501002074010020E1
:103EB0006601002078010020670100200020594998
:103EC000594A127841F8220057480078401C564958
:103ED0000870554800780828F0DD01205249087024
:103EE0000AE000205149504A127841F822004E4819
:103EF0000078401C4C4908704B4800780828F0DDD9
:103F00004B4800784B490978CDE900104A480378BE
:103F10004A4802784AA14E4802F074FC10234C4AE9
:103F200002210020FDF7C7FA4A4800684A4909689B
:103F3000CDE900104948036849484AA1026844484D
:103F400002F060FC1023424A04210020FDF7B3FA7E
:103F50003A48007847490968884205D036480078D1
:103F60004449096888421ED10120434908703148FC
:103F70000078424908701C210020FEF7F5FBF02074
:103F8000FCF746FB4FF4FA703D49086001223D48BA
:103F900001780078401C3B4B18703B48425401208C
:103FA0003A4908702DE02348007832490968884270
:103FB00005D01F4800782F49096888421ED1022089
:103FC0002D4908701D4800782C49087000211C20DC
:103FD000FEF7CAFBF020FCF71BFB4FF4FA702849F0
:103FE00008600321274802780078401C254B187090
:103FF0002548815401202549087002E00120234909
:104000000870002022490870FFF712FA04E0FDF75B
:10401000C5FF00201F4908701220FCF7F9FA2FE6AF
:10402000FFE5000060050020B201002084050020AB
:104030006701002066010020650100206401002066
:1040400076616C3A25642D25642D25642D25640048
:10405000240200207801002074010020700100205B
:104060006C010020636E743A25642D25642D25644F
:104070002D2564000C010020A0010020A1010020DA
:10408000A401002087010020A80500208001002055
:1040900020010020C801002070B505460E4600240E
:1040A0000CE0295DF94802F019F900BF8021F748BA
:1040B00002F0C4F90128F9D1601CC4B2B442F0DBAB
:1040C00070BD2DE9FF410646002400250027AA22E5
:1040D0002146641CEE484254FF222146641C42548F
:1040E00006F1F000C2B22146641CE94842540022A5
:1040F0002146641C42549DF804202146641C42540D
:104100009DF805202146641C42549DF80620214656
:10411000641C42549DF807202046611CCCB2DC4947
:104120000A549DF808202046611CCCB2D8490A5494
:104130009DF809202046611CCCB2D5490A549DF84F
:104140000A202046611CCCB2D1490A549DF80B20AC
:104150002146601CC4B2CE4842549DF80C20204633
:10416000611CCCB2CA490A549DF80D202046611C3E
:10417000CCB2C7490A549DF80E202046611CCCB22F
:10418000C3490A549DF80F202046611CCCB2C04997
:104190000A549DF828202046611CCCB2BC490A5420
:1041A0009DF829202046611CCCB2B9490A549DF8DB
:1041B0002A202046611CCCB2B5490A549DF82B2018
:1041C0002046611CCCB2B2490A549DF82C202146ED
:1041D000601CC4B2AE4842549DF82D202046611C9C
:1041E000CCB2AB490A549DF82E202046611CCCB2BB
:1041F000A7490A549DF82F202146601CC4B2A44848
:1042000042549DF830202046611CCCB2A0490A548B
:104210009DF831202046611CCCB29D490A549DF87E
:1042200032202046611CCCB299490A549DF83320B3
:104230002046611CCCB296490A549DF83420204691
:10424000611CCCB292490A549DF835202046611C6D
:10425000CCB28F490A549DF836202146601CC4B266
:104260008B4842549DF837202046611CCCB28849C7
:104270000A549DF838202046611CCCB284490A5467
:104280009DF839202046611CCCB281490A549DF822
:104290003A202046611CCCB27D490A549DF83B204F
:1042A0002046611CCCB27A490A549DF83C20204635
:1042B000611CCCB276490A549DF83D202046611C11
:1042C000CCB273490A549DF83E202046611CCCB202
:1042D0006F490A549DF83F202046611CCCB26C49BE
:1042E0000A549DF840202046611CCCB268490A540B
:1042F0009DF841202046611CCCB265490A549DF8C6
:1043000042202146601CC4B2614842549DF84320BB
:104310002046611CCCB25E490A54201FC8700020A0
:1043200007E05B49095C2944CDB27919CFB2411C41
:10433000C8B25749C978091D8142F2DC2046611C88
:10434000CCB253490D542046611CCCB250490F5495
:1043500021464F48FFF7A0FEBDE8FF810FB42DE9CD
:10436000F04F8BB09DF8500010B19DF8500000E068
:1043700001200446159808B1159800E00020054674
:10438000169808B1169800E000200646179808B164
:10439000179800E000200A90189808B1189800E0DB
:1043A00000200990199808B1199800E000200746EC
:1043B0001A9808B11A9800E0002080461B9808B1AE
:1043C0001B9800E0002081461C9808B11C9800E072
:1043D000002082461D9808B11D9800E0002008903A
:1043E0001E9808B11E9800E0002083460898CDE989
:1043F000050BCDE9039A09988DE8810132462946DB
:1044000020460A9BFFF75DFE0BB0BDE8F00F5DF89C
:1044100014FB73B5002400250026AA222146641C43
:104420001B484254AF222146641C4254E2222146DA
:10443000641C425400222146641C42549DF8002012
:104440002146641C42549DF801202146641C4254BC
:104450009DF804202146641C42549DF80520214605
:10446000601CC4B20A4842549DF806202146601CD4
:10447000C4B2074842549DF807202046611CCCB2C4
:1044800003490A54201FC87000200BE000100140AF
:10449000B2050020F449095C2944CDB27119CEB2AD
:1044A000411CC8B2F049C978091D8142F2DC20469E
:1044B000611CCCB2EC490D542046611CCCB2EA49D7
:1044C0000E542146E848FFF7E7FD7CBD2DE9F04793
:1044D00006460F46904600240025A146AA22214602
:1044E000641CE1484254AF222146641C425400221D
:1044F0002146641C42542146641C42542146641CDB
:1045000046542146641C47542146641C00F801802F
:10451000201FD549C870002009E0D349095C29440F
:10452000CDB209EB050101F0FF09411CC8B2CE492B
:10453000C978091D8142F0DC2046611CCCB2CA4911
:104540000D542046611CCCB2C74901F800902146A9
:10455000C548FFF7A1FDBDE8F0872DE9FF410A9F9F
:10456000002400250026AA222146641CBE4842548D
:10457000FF222146641C425404222146641C4254FA
:1045800009222146641C42549DF800202146641CE7
:1045900042549DF801202146641C42549DF8042099
:1045A0002146641C42549DF805202146601CC4B27B
:1045B000AD4842549DF808202046611CCCB2AA495F
:1045C0000A549DF809202046611CCCB2A6490A5421
:1045D0009DF80C202046611CCCB2A3490A549DF8DA
:1045E0000D202046611CCCB29F490A542046611C14
:1045F000CCB29D490F54002007E09B49095C294437
:10460000CDB27119CEB2411CC8B29749C978091D03
:104610008142F2DC2046611CCCB293490D54204605
:10462000611CCCB290490E5421468F48FFF734FDEF
:10463000BDE8FF812DE9FF41DDE90B78002400256D
:104640000026AA222146641C87484254FF222146A4
:10465000641C425402222146641C42540E2221460C
:10466000641C42549DF800202146641C42549DF86D
:1046700001202146641C42549DF804202146641CFC
:1046800042549DF805202146601CC4B2764842542D
:104690009DF808202046611CCCB273490A549DF84D
:1046A00009202146601CC4B26F4842549DF80C207A
:1046B0002046611CCCB26C490A549DF80D2020465E
:1046C000611CCCB268490A549DF80E202046611C3A
:1046D000CCB265490A549DF80F202046611CCCB22B
:1046E00061490A549DF828202046611CCCB25E49DD
:1046F0000A549DF829202146601CC4B25A484254ED
:104700002046611CCCB258490F542046611CCCB2E3
:10471000554901F80080002007E05349095C29440D
:10472000CDB27119CEB2411CC8B24F49C978091D2A
:104730008142F2DC2046611CCCB24B490D5420462C
:10474000611CCCB248490E5421464748FFF7A4FCEF
:10475000BDE8FF812DE9FF410C9F002400250026C4
:10476000AA222146641C40484254FF222146641C70
:10477000425401222146641C42540D222146641CED
:1047800042549DF800202146641C42549DF80120AB
:104790002146641C42549DF804202146641C425466
:1047A0009DF805202146601CC4B22F4842549DF854
:1047B00008202146601CC4B22B4842549DF80920B1
:1047C0002046611CCCB228490A549DF80C20214691
:1047D000601CC4B2244842549DF80D202046611C40
:1047E000CCB221490A549DF828202046611CCCB245
:1047F0001D490A549DF829202146601CC4B21A485C
:1048000042549DF82C202046611CCCB216490A5413
:104810009DF82D202146601CC4B213484254204606
:10482000611CCCB210490F54002007E00E49095C0E
:104830002944CDB27119CEB2411CC8B20A49C97817
:10484000091D8142F2DC2046611CCCB206490D54A0
:104850002046611CCCB204490E5421460248FFF7A1
:104860001BFCBDE8FF810000B20500200648804720
:1048700006480047FEE7FEE7FEE7FEE7FEE7FEE745
:10488000FEE7FEE7FEE7FEE71904000889010008DD
:1048900032490143324A1160704770B5002100234C
:1048A0000F22C4781CB32E4C246804F4E064C4F5D1
:1048B000E064C4F30721C1F10404E3B20A4144787F
:1048C0009C40E1B28478144021430C07210E254C12
:1048D00005786155047804F01F050124AC40057883
:1048E0006D11AD0005F1E025C5F8004109E004783F
:1048F00004F01F050124AC401B4D0678761145F8E5
:10490000264070BD194A0A400243154B1B1F1A600E
:10491000704739B1124A121D12680243104B1B1D19
:104920001A6006E00E4A121D126882430C4B1B1DD2
:104930001A607047042808D14FF0E021096941F05E
:1049400004014FF0E022116107E04FF0E021096916
:1049500021F004014FF0E022116170470000FA05D8
:104960000CED00E000E400E080E100E080FFFF1FCC
:10497000002041490860091D0860091D0860091DE3
:1049800008603E483C4914310860704700213A49AC
:104990008279002A3AD00A46126803689A430B4685
:1049A0001A600A1D126803689A430B1D1A60027987
:1049B00011440A6803681A430A602F4A08321268D1
:1049C00003689A432C4B08331A601A1D1268036857
:1049D0009A43294B0C331A604279102A0ED11A1FC0
:1049E000126803681A43244B08331A601A1D1268B0
:1049F00003681A43204B0C331A600DE01E494279BC
:104A000011440A6803681A430A6005E002791144F8
:104A10000A6803689A430A607047002101600171C7
:104A20000C214171002181717047134910310968CF
:104A30000143114A103211607047014600200E4AAE
:104A4000143212680A400AB1012000E000207047C9
:104A5000094914310860704701460020064A1432A3
:104A600012680A400AB1012000E0002070470249A4
:104A70001431086070470000003C0140FFFF7F00D8
:104A800010B504469848844208D10121084600F038
:104A900086FB0021012000F082FB76E093488442EF
:104AA00008D10121022000F07AFB0021022000F051
:104AB00076FB6AE08E48844208D10121042000F090
:104AC0006EFB0021042000F06AFB5EE0894884420E
:104AD00008D10121082000F062FB0021082000F02D
:104AE0005EFB52E08448844208D10121102000F08E
:104AF00056FB0021102000F052FB46E07F48844224
:104B000008D10121202000F04AFB0021202000F0E4
:104B100046FB3AE07A48844208D10121402000F067
:104B20003EFB0021402000F03AFB2EE07548844215
:104B300008D10121802000F032FB0021802000F00C
:104B40002EFB22E07048844208D10121801500F03C
:104B500026FB0021A01500F022FB16E06B488442E2
:104B600008D10121401500F01AFB0021601500F06A
:104B700016FB0AE06648844207D10121001500F0C7
:104B80000EFB0021201500F00AFB10BDF0B50A460F
:104B900000210023002400BF3DE0012505FA01F3B8
:104BA000156805EA03049C4234D105684F000326CA
:104BB000BE40B543056015794E00B54006683543E3
:104BC00005601579012D02D01579022D16D1856861
:104BD0004F000326BE40B543856055794E00B54071
:104BE000866835438560456801268E40B54345603B
:104BF000456896798E40B6B235434560C5684F002A
:104C00000326BE40B543C560D5794E00B540C668A1
:104C10003543C560491C1029BFD3F0BD4FF6FF7165
:104C200001600021017141718171C171704708B546
:104C30004FF480320092009A0A430092009AC261B7
:104C4000C161009AC261C2690092C269009208BD46
:104C50000246002013690B400BB1012000E0002048
:104C600070470146086980B27047024600205369C8
:104C70000B400BB1012000E000207047014648695D
:104C800080B2704701837047418370470AB1018346
:104C900000E0418370474161704742694A40426188
:104CA0007047F0B5002300244D07ED0E02FA05F31E
:104CB000CE1000F1200555F826504E07F70E0F26AE
:104CC000BE40B543CF1000F1200646F82750CE1065
:104CD00000F1200555F8265045EA0304CE1000F1F6
:104CE000200545F82640F0BD0000024000040240C7
:104CF00000080240000C0240001002400014024074
:104D000000180240001C0240002002400024024023
:104D100000280240F948006840F00100F7490860A7
:104D20000020F64908310860F4480068F44908405A
:104D3000F2490860F348091D0860F348EF498431DF
:104D40000860F0481038091D0860EC48006820F43D
:104D50008020EA4908600020E8490C310860E749F2
:104D60008C31086070470021E44A921C1170114692
:104D70000870704710B501460022002300204A1138
:104D8000012A02D1DD4C236808E0022A03D1DB4C62
:104D90007034236802E0D94C7434236801F01F0298
:104DA000012494401C400CB1012000E0002010BD03
:104DB00038B5002000900024002500BF3120FFF707
:104DC000D9FF05460098401C00900098B0F5A04F10
:104DD00001D0002DF2D03120FFF7CCFF08B1012423
:104DE00000E00024204638BD01460020C34A106878
:104DF00020F0F80040EAC10010607047C349086025
:104E000070470021BD4A703211701170012802D024
:104E100004280AD104E00121B84A7032117005E07B
:104E20000521B64A7032117000E000BF00BF704724
:104E3000B7490860704770B5049C41EA82150126A5
:104E4000C6EB530645EA0645054345EA0465AB4E05
:104E5000361D356070BDAD4908667047820142EA73
:104E60000172A64B84331A607047A8498866704760
:104E700010B5830143EA016343EA02739F4C88340F
:104E8000236010BDA14908677047A049C8647047F6
:104E900002460020994B0833186820F0EC6042EA83
:104EA00001031843954B08331860704702460020F1
:104EB000924B0833186820F0784042EA0103184307
:104EC0008E4B083318607047014600208B4A083229
:104ED000106820F0030008431060704787480830CE
:104EE000006800F00C00704701460020834A083239
:104EF000106820F0F0000843106070470146002061
:104F00007E4A0832106820F4E05008431060704771
:104F100001460020794A0832106820F4604040EAD7
:104F2000C10010607047F0B5002100220024022566
:104F300000260223714F08373F6807F00C0121B1AA
:104F4000042905D0082937D105E0724F076036E003
:104F5000714F076033E0694F3F1D3F68C7F38056CC
:104F6000664F3F1D3F6807F03F036EB16A4FB7FBC6
:104F7000F3F7DFF888C10CF1040CDCF800C0CCF3C7
:104F8000881C07FB0CF40CE0624FB7FBF3F7DFF86B
:104F90006CC10CF1040CDCF800C0CCF3881C07FBDE
:104FA0000CF4564F3F1D3F68C7F301477F1C7D003F
:104FB000B4FBF5F7076002E0564F076000BF00BF83
:104FC0004E4F08373F6807F0F0010909534F7A5CEC
:104FD0000768D7404760494F08373F6807F4E051FA
:104FE000890A4E4F7A5C4768D7408760434F08373D
:104FF0003F6807F46041490B484F7A5C4768D740E7
:10500000C760F0BD002100F44072B2F5407F0AD1C4
:105010003A4A0832116821F4F811414A024011431A
:10502000364A08321160354A70321268C0F30B03F9
:105030001A43324B70331A6070473549443908605F
:1050400070473349403908607047364908607047F7
:1050500001460020294A8C32106820F01F004A1EA9
:105060001043264A8C321060704701460020234AC4
:105070008C32106820F4F8504A1E40EA02201F4A81
:105080008C3210607047014600201C4A8C32106838
:1050900020F4401008431060704701460020174A72
:1050A0008C32106820F440000843106070470146BD
:1050B0000020124A8C32106820F4403008431060FF
:1050C000704719490860704739B10C4A303212688C
:1050D00002430A4B30331A6006E0084A3032126845
:1050E0008243064B30331A607047F9B1034A3432B9
:1050F00012680243014B34331A601CE0003802404E
:10510000FFFFF6EA10300024003000200000474284
:10511000800E47420024F40000127A00B6010020FD
:10512000FFFCFF0F5C014742E01147428F4A1268C3
:1051300082438E4B1A60704739B18C4A121D126837
:1051400002438A4B1B1D1A6006E0884A121D126832
:105150008243864B1B1D1A60704739B1834A0C325B
:1051600012680243814B0C331A6006E07F4A0C320E
:10517000126882437D4B0C331A60704739B17B4A09
:10518000103212680243794B10331A6006E0774AF6
:10519000103212688243754B10331A60704739B170
:1051A000724A243A12680243704B243B1A6006E0AC
:1051B0006E4A243A126882436C4B243B1A60704753
:1051C00039B16A4A203A12680243684B203B1A60A0
:1051D00006E0664A203A12688243644B203B1A601C
:1051E000704739B1614A1C3A126802435F4B1C3B5D
:1051F0001A6006E05D4A1C3A126882435B4B1C3B16
:105200001A60704739B1594A143A12680243574B31
:10521000143B1A6006E0554A143A12688243534B15
:10522000143B1A60704739B1504A103A1268024371
:105230004E4B103B1A6006E04C4A103A126882430B
:105240004A4B103B1A60704739B1484A1C32126809
:105250000243464B1C331A6006E0444A1C32126873
:105260008243424B1C331A60704739B13F4A2032A7
:10527000126802433D4B20331A6006E03B4A20325D
:1052800012688243394B20331A60704739B1374A6C
:10529000243212680243354B24331A6006E0334A45
:1052A000243212688243314B24331A60704739B17B
:1052B0002E4A2C32126802432C4B2C331A6006E023
:1052C0002A4A2C3212688243284B2C331A607047CA
:1052D00039B1264A303212680243244B30331A6007
:1052E00006E0224A303212688243204B30331A6083
:1052F0007047012808D11D493C31096841F0080177
:105300001A4A3C32116007E018493C31096821F023
:105310000801164A3C321160704739B1134A273AE6
:1053200012780243114B273B1A7006E00F4A273AC6
:10533000127882430D4B273B1A7070470B48403060
:10534000006840F0807009494031086070470146AC
:105350000020064A283A12680A400AB1012000E0FB
:1053600000207047014926390870704734380240E0
:1053700010B501218803FFF756FF00214FF480404C
:10538000FFF751FF10BD1C49086070471B490862B8
:10539000704730B500228B071C0F0F2303FA04F26D
:1053A000154B08338C1053F824309343124C0834B7
:1053B0008D1044F8253023468C1053F824308C0788
:1053C000240F00FA04F423430B4C08348D1044F8E6
:1053D000253030BD0949DC31086070470849086054
:1053E0007047002004492031096801F4807109B137
:1053F000012000E0002070470038014000002742F3
:105400000004274210B50446FE48844208D1012119
:105410000846FFF708FF00210120FFF704FF9DE089
:10542000B4F1804F08D101210846FFF7EBFE0021BF
:105430000120FFF7E7FE91E0F348844208D1012103
:105440000220FFF7DFFE00210220FFF7DBFE85E0F0
:10545000EE48844208D101210420FFF7D3FE002149
:105460000420FFF7CFFE79E0E948844208D101210A
:105470000820FFF7C7FE00210820FFF7C3FE6DE0FC
:10548000E448844208D101211020FFF7BBFE00212F
:105490001020FFF7B7FE61E0DF48844208D1012108
:1054A0002020FFF7AFFE00212020FFF7ABFE55E0E4
:1054B000DA48844208D101210220FFF7B4FE00211E
:1054C0000220FFF7B0FE49E0D548844209D101210E
:1054D0000804FFF7A8FE00214FF48030FFF7A3FE79
:1054E0003CE0D048844209D101214804FFF79BFEEB
:1054F00000214FF40030FFF796FE2FE0CA488442A7
:1055000009D101218804FFF78EFE00214FF480208D
:10551000FFF789FE22E0C548844208D101214020DE
:10552000FFF770FE00214020FFF76CFE16E0C04838
:10553000844208D101218020FFF764FE00218020F1
:10554000FFF760FE0AE0BB48844207D101218015C5
:10555000FFF758FE0021A015FFF754FE10BD0022F2
:105560000288A84B98420ED0AC4B98420BD0B0F1B9
:10557000804F08D0A44B984205D0A44B984202D04B
:10558000A34B984204D14FF68F731A404B881A43AD
:10559000A04B984207D0A04B984204D04FF6FF434F
:1055A0001A400B891A4302804B68C3620B8803853B
:1055B000944B984202D0994B984201D18B7A038642
:1055C0000123838270474FF0FF3141600021018049
:1055D00001814180817270470185828270470A464D
:1055E000002101884FF68F731940114301807047E5
:1055F00041627047C16270470146486A7047014680
:10560000088D704721B1028842F00202028004E056
:1056100002884FF6FD731A400280704721B102885C
:1056200042F00402028004E002884FF6FB731A4045
:105630000280704721B1028842F08002028004E0BB
:1056400002884FF67F731A400280704702884FF637
:10565000F7731A40028002880A430280704702886A
:105660004FF6FF431A40028002880A4302807047C7
:1056700021B1028842F00102028004E002884FF664
:10568000FE731A400280704770B500240022002388
:10569000058C4FF6FE7635400584028C8388048B9A
:1056A0004FF68F752C40B51E2C400D882C43751E6F
:1056B0002A408D892A434D882A43524DA84202D060
:1056C000564DA84213D14FF6F7752A40CD892A438B
:1056D0004FF6FB752A408D882A434FF6FF652B4015
:1056E0004FF6FF552B400D8A2B434D8A2B43838069
:1056F00004838D684563028470BD70B50024002268
:105700000023058C4FF6EF7635400584028C8388A4
:10571000048B48F6FF752C404FF6FF452C400D8852
:105720004FF6FF7606EA05252C434FF6DF752A4033
:105730008D8906EA05152A434D8806EA05152A4390
:10574000304DA84202D0354DA8421DD14FF67F758D
:105750002A40CD894FF6FF7606EA05152A434FF613
:10576000BF752A408D8806EA05152A434FF6FF3596
:105770002B404FF2FF752B400D8A06EA85052B431F
:105780004D8A06EA85052B43838004838D688563F3
:10579000028470BD70B5002400220023058C4FF6F2
:1057A000FF6635400584028C8388848B4FF68F75A5
:1057B0002C404FF6FC752C400D882C434FF6FF55BE
:1057C0002A408D894FF6FF7606EA05252A434D8843
:1057D00006EA05252A430B4DA84202D00F4DA842E8
:1057E00038D14FF2FF752A40CD894FF6FF7606EA91
:1057F00005252A434FF6FF352A408D8806EA052500
:105800002A4319E000000140000400400008004065
:10581000000C004000100040001400400004014053
:105820000040014000440140004801400018004091
:10583000001C0040002000404EF6FF752B404DF646
:10584000FF752B400D8A06EA05152B434D8A06EAA3
:1058500005152B43838084838D68C563028470BDE6
:1058600070B5002200230024058C4EF6FF763540EB
:105870000584038C8488828B48F6FF752A404FF696
:10588000FF452A400D884FF6FF7606EA05252A4394
:105890004DF6FF752B408D8906EA05352B434D8863
:1058A00006EA05352B43FE4DA84202D0FD4DA84225
:1058B00008D14BF6FF752C400D8A4FF6FF7606EAAD
:1058C00085152C43848082838D680564038470BDB4
:1058D000002101804180818081608181C1810182BC
:1058E0004182704770B503460020002418461830E6
:1058F00001258D40ACB21D8CA5431D8409B108293A
:105900000AD100EB610005684FF68F7635400560DF
:105910000568154305600FE00D1FC5F34E052844CB
:10592000056848F6FF763540056005684FF6FF7656
:1059300006EA02263543056070BD41637047816306
:105940007047C1637047016470470A460021018BAC
:105950004FF68F7319401143018370470A460021A7
:10596000018B48F6FF7319404FF6FF7303EA0223D9
:105970001943018370470A460021818B4FF68F73CC
:1059800019401143818370470A460021818B48F6F4
:10599000FF7319404FF6FF7303EA02231943818313
:1059A00070470A460021018B4FF6F77319401143E7
:1059B000018370470A460021018B4FF2FF731940A3
:1059C0004FF6FF7303EA02231943018370470A4627
:1059D0000021818B4FF6F773194011438183704783
:1059E0000A460021818B4FF2FF7319404FF6FF7377
:1059F00003EA02231943818370470A460021018B81
:105A00004FF6FB7319401143018370470A4600218A
:105A1000018B4FF6FF3319404FF6FF7303EA022361
:105A20001943018370470A460021818B4FF6FB73AF
:105A300019401143818370470A460021818B4FF63C
:105A4000FF3319404FF6FF7303EA022319438183A2
:105A500070470A460021018B4FF67F7319401143AE
:105A6000018370470A460021018BC1F30E014FF6F6
:105A7000FF7303EA02231943018370470A4600219A
:105A8000818B4FF67F7319401143818370470A461B
:105A90000021818BC1F30E014FF6FF7303EA02234D
:105AA0001943818370470A460021018C4FF6FD732C
:105AB00019401143018470470A460021018C4FF6BA
:105AC000F77319401143018470470A460021018C85
:105AD0004FF6DF7319404FF6FF7303EA02131943C1
